:100000000C94CB170C94FC170C94FC170C94FC1755
:100010000C94FC170C94FC170C94FC170C94FC1714
:100020000C94FC170C94FC170C94FC170C94FC1704
:100030000C94FC170C94FC170C94FC170C94FC17F4
:100040000C94FC170C94405F0C94FC170C94FC1758
:100050000C94FC170C94FC170C948E570C945D7147
:100060000C94FC170C9462380C9458380C94FC17C0
:100070000C94FC170C94FC170C94FC170C94FC17B4
:100080000C94FC170C94FC170C94FC170C94FC17A4
:100090000C94FC170C94FC170C94FC170C94FC1794
:1000A0000C94FC170C94FC170C94FC170C94FC1784
:1000B0000C94FC170C94FC170C94FC170C94FC1774
:1000C0000C94FC170C94FC170C94FC170C94FC1764
:1000D0000C94FC170C94FC170C94FC170C94FC1754
:1000E0000C94FC1786358B3590359A35A4351D3622
:1000F000AE35B635BE35C835D235DC35EB35F535E0
:100100001D36FF3509361336D0A0D3A0C2A0C6A035
:10011000CAA00AA1D7A0DBA0E1A0E5A0E9A0EFA0BA
:10012000F3A0F7A00AA1FDA001A105A1CDBE3CBD91
:1001300075BD09BF75BD75BD75BD75BD75BD75BD99
:1001400075BD75BD75BD75BD75BD75BD75BD75BD1F
:1001500075BD75BD75BD75BD75BD75BD75BD75BD0F
:1001600075BD75BD75BD75BD03BF75BD75BD75BD6F
:1001700075BD75BD75BD75BD75BDDCBE75BD75BD87
:1001800075BD75BD75BD75BD75BD75BD75BD75BDDF
:1001900020BF72BD084AD73B3BCE016E84BCBFFD79
:1001A000C12F3D6C74319ABD56833DDA3D00C77F47
:1001B00011BED9E4BB4C3E916BAAAABE00000080E0
:1001C0003F05A84CCDB2D44EB93836A9020C50B96F
:1001D000918688083CA6AAAA2ABE000000803F009B
:1001E0000C94C6A00C94E5A00C9413360C94F74123
:1001F0000C94DA710C94C2A00C945E3C0C94DBA0BD
:100200000C949B390C947D3C0C94AF6D0C9429712B
:100210000C94DCBE0C94F8B60C9441820C94B8A7F4
:100220000C9410A80C94FFDA0C9490400C9414B821
:100230000C94C4BC0C948F390C94D2350C94C1BC72
:100240000C9458A40C9490350C941E390C94EADD4F
:100250000C9470A30C9413820C940EB80C945A4016
:100260000C94D0A00C94E8380C94F3A00C9446A401
:100270000C9428390C9410B80C94CCBC0C94FB381A
:100280000C94EFA90C94E9A00C947D400C94DB71C4
:100290000C9489390C94FF6B0C94A9A70C949FB90A
:1002A0000C946D7A0C94FF700C9409360C94D3A5C1
:1002B0000C94957D0C948B350C94FDA00C949A3580
:1002C0000C94DC350C9486350C9415A40C9420BF4A
:1002D0000C94563C0C9464A40C949AA70C94A435EA
:1002E0000C9450A80C94FB410C94AE350C94F7A0E0
:1002F0000C9484550C9452A40C9495390C946AA4D3
:100300000C94CDBE0C94A1B90C94FD3B0C94AD683B
:100310000C942EA40C94F33B0C94F9410C9405A17D
:100320000C948F820C94717A0C94FF350C9434A445
:100330000C941C7A0C94867A0C94BBA30C941439FC
:100340000C94EB350C94DE710C9409BF0C94B992AB
:100350000C9401A10C94C5690C94C7A70C9475BDAD
:100360000C9405720C9403BF0C94E9A30C94D6A3CF
:100370000C9499400C940AA10C94A9380C940F4544
:100380000C946A3C0C9412B80C94BB820C944CA450
:100390000C941D360C940CB80C943AA40C9467720F
:1003A0000C941DAA0C9440A40C94E1A00C948339E5
:1003B0000C9474420C9423390C94EFA00C940142D9
:1003C0000C9466390C949D430C94FCA30C94F53565
:1003D0000C947B420C949D390C94C1450C94B63519
:1003E0000C94827A0C9407420C942D3E0C9447395D
:1003F0000C94D3A00C943CBD0C94C8350C945EA412
:100400000C94A5400C9419390C9407A80C949DB930
:100410000C94023C0C94CAA00C94BE350C94A3B965
:100420000C94F83B0C94BEBC0C9489A30C94A2A32E
:100430000C9462A30C9472BD0C9426AA0C94D7A0C1
:100440000C949BB90C940EAA4E414E494E495459F6
:10045000494E46CDCCCC3D0AD7233C17B7D138778F
:10046000CC2B329595E6241FB14F0A0000204100A5
:1004700000C84200401C4620BCBE4CCA1B0E5AAEEF
:10048000C59D7400407A10F35A00A0724E180900FE
:1004900010A5D4E80000E87648170000E40B5402E9
:1004A0000000CA9A3B000000E1F505000080969824
:1004B00000000040420F000000A086010000001074
:1004C0002700000000E803000000006400000000B6
:1004D000000A00000000000100000000002C76D897
:1004E00088DC674F0823DFC1DFAE59E1B1B796E57D
:1004F000E3E453C63AE651997696E8E6C28426EBE1
:10050000898C9B62ED407C6FFCEFBC9C9F40F2BAF3
:10051000A56FA5F490055A2AF75C936B6CF9676D8B
:10052000C11BFCE0E40D47FEF520E6B500D0ED90E0
:100530002E0300943577050080841E080000204EAD
:100540000A000000C80C333333330F986E12831146
:1005500041EF8D2114893BE65516CFFEE6DB18D11D
:10056000844B381BF77C1D901DA4BBE424203284EF
:10057000725E228100C9F124ECA1E53D27434F4D75
:100580004D554E49434154494F4E004452595255DE
:100590004E004552524F525300494E464F0045437C
:1005A000484F0047322F47332062616420706172E8
:1005B000616D65746572730A00446F726D696E6473
:1005C0006F2E2E2E00436C6971756520706172610B
:1005D000207265746F6D61720053656D206D6F766A
:1005E000696D656E746F00456E642066696C652088
:1005F0006C6973740A00426567696E2066696C6590
:10060000206C6973740A004E6F206D656469610A1D
:1006100000286E6F2066696C6529004375727265EB
:100620006E742066696C653A2000534420707269CC
:100630006E74696E67206279746520004E6F742055
:100640005344207072696E74696E670A0044656C69
:100650006574696F6E206661696C65642C204669FB
:100660006C653A200046696C652064656C6574654C
:10067000643A002569792025696420256968202568
:10068000696D20256973005072696E742074696DFC
:10069000653A20006F66660044454255473A004D72
:1006A0003131322053687574646F776E004D31318B
:1006B000332053004573667269616E646F206D6507
:1006C00073612E2E2E004171756563656E646F2017
:1006D0006D6573612E2E2E004672616E6B507269CD
:1006E0006E746572204F46462E004348414D424588
:1006F000525F54454D504552415455524500424178
:1007000042595354455050494E47004152435300BB
:100710004D4F54494F4E5F4D4F444553005448454B
:10072000524D414C5F50524F54454354494F4E0037
:100730004C4F4E475F46494C454E414D4500415553
:10074000544F5245504F52545F53445F5354415499
:100750005553005344434152440050524F4D50545E
:100760005F535550504F525400454D455247454EEA
:1007700043595F50415253455200434153455F4CEA
:10078000494748545F4252494748544E45535300E5
:10079000544F47474C455F4C494748545300534FCB
:1007A0004654574152455F504F57455200425549B4
:1007B0004C445F50455243454E54004C4556454CC1
:1007C000494E475F44415441005A5F50524F4245A1
:1007D0000052554E4F5554004155544F4C455645C7
:1007E0004C005052494E545F4A4F420050524F47BE
:1007F00052455353004155544F5245504F52545F48
:1008000054454D5000564F4C554D455452494300A8
:1008100042494E4152595F46494C455F5452414E00
:10082000534645520053455249414C5F584F4E5F25
:10083000584F4646004649524D574152455F4E413A
:100840004D453A4D61726C696E20322E302E372E36
:100850003220284F63742032372032303230203239
:10086000323A32313A31302920534F555243455FA5
:10087000434F44455F55524C3A68747470733A2F35
:100880002F6769746875622E636F6D2F4D61726C8E
:10089000696E4669726D776172652F4D61726C6920
:1008A0006E2050524F544F434F4C5F564552534960
:1008B0004F4E3A312E30204D414348494E455F540A
:1008C0005950453A4672616E6B5072696E7465722A
:1008D0002045585452554445525F434F554E543A63
:1008E0003120555549443A63656465326132662D5D
:1008F000343161322D343734382D396231322D6341
:1009000035356336326633363766660A002F2F2058
:10091000004D31343520533C696E6465783E206F5C
:100920007574206F662072616E67652028302D31E6
:10093000290A00416363656C65726174696F6E3A80
:1009400020500020204D61783A200020204D696E13
:100950003A2000536F667420656E6473746F707311
:100960003A200046523A0020466C6F773A20002029
:10097000643A0020693A0020703A00496E76616C52
:1009800069642065787472756465720A00646973BD
:100990000043290A0061626C656420286D696E203D
:1009A00074656D702000436F6C6420657874727597
:1009B000646573206172652000486F6D6520257342
:1009C00025732573205072696D6569726F00416CE3
:1009D00074657261C3A7C3A36F2061706C696361A2
:1009E0006461004572723A20546F6F206661722113
:1009F00000546F6F206661722066726F6D207265A1
:100A0000666572656E636520706F696E740A004575
:100A10004550524F4D204F4B0A00446F6E65207079
:100A200072696E74696E672066696C650A004D377D
:100A300037004D3331009E05990592058B057D05E4
:100A40004572726F722077726974696E6720746F75
:100A500020454550524F4D210A004D343130004D54
:100A6000313132004D313038005041524F552E2037
:100A7000005072696E7465722073746F7070656473
:100A80002064756520746F206572726F72732E20FA
:100A900046697820746865206572726F7220616E95
:100AA0006420757365204D39393920746F20726563
:100AB00073746172742E202854656D706572617450
:100AC0007572652069732072657365742E20536595
:100AD0007420697420616674657220726573746134
:100AE0007274696E67290A004E6F20436865636BF4
:100AF00073756D2077697468206C696E65206E75FA
:100B00006D6265722C204C617374204C696E653A7D
:100B10002000636865636B73756D206D69736D612B
:100B20007463682C204C617374204C696E653A20A4
:100B3000004C696E65204E756D6265722069732088
:100B40006E6F74204C617374204C696E65204E7515
:100B50006D6265722B312C204C617374204C696E70
:100B6000653A20004D313130005344207265616494
:100B7000206572726F720A002121204B494C4C2073
:100B8000636175736564206279204B494C4C206227
:100B90007574746F6E2F70696E0A002121204B49A5
:100BA0004C4C2063617573656420627920746F6FAB
:100BB000206D75636820696E616374697665207461
:100BC000696D65202D2063757272656E7420636F88
:100BD0006D6D616E643A2000627573793A207061C0
:100BE0007573656420666F7220696E7075740A0093
:100BF000627573793A2070617573656420666F72EF
:100C000020757365720A00627573793A2070726F8D
:100C100063657373696E670A0043617274C3A36F7F
:100C20002072656D6F7669646F0043617274C3A34F
:100C30006F20696E73657269646F0043616E6365EE
:100C40006C617200566F6C746172005061726172F7
:100C50000054726F636172205344004D323100437F
:100C60006F6E74696E75617220696D7072657373F1
:100C7000C3A36F0053656D2063617274C3A36F20BB
:100C8000534400416A7573746172005061726172FD
:100C900020696D7072657373C3A36F0050617573C3
:100CA000617220696D7072657373C3A36F00496EC2
:100CB000666F726D61C3A7C3B5657300496E6963E2
:100CC00069617220496D7072657373C3A36F0049C7
:100CD0006D7072696D69720043616E6E6F7420652C
:100CE0006E746572207375626469723A2000022E18
:100CF0002E004578747275732E206D746F206672A5
:100D0000696100436F6E74696E756172004D6F7634
:100D1000696D656E746F004D38340054656D706593
:100D20007261747572610041425300504C4100562B
:100D3000656C2E2056656E746F696E686100426F37
:100D400063616C0056656C6F636964616465004D36
:100D5000656E75207072696E636970616C004465C0
:100D6000736162696C69742E206D6F746F72657344
:100D70000049722061206F726967656D2058595A69
:100D800000473238004578747275736F72612024A1
:100D9000005072652D61712E4D65736120240045F0
:100DA000736672696172005072652D617175656359
:100DB000657220240056617AC3A36F002B0D270DA6
:100DC000496D7072657373C3A36F20506175736151
:100DD00064610020746F6F206C6F6E67206578749B
:100DE000727573696F6E2070726576656E74656476
:100DF0000A0020636F6C6420657874727573696F84
:100E00006E2070726576656E7465640A00220A0051
:100E1000556E6B6E6F776E20636F6D6D616E643AA9
:100E20002022004672616E6B5072696E746572208A
:100E300070726F6E746F2E00496D7072696D696E9D
:100E4000646F2E2E2E0020453A00205A3A00205979
:100E50003A004D65736100453100626564002C20E5
:100E600073797374656D2073746F7070656421207D
:100E70004865617465725F49443A20004171756547
:100E800063696D656E746F2066616C686F7500488C
:100E9000656174696E67206661696C656400202D08
:100EA00020496E76616C696420657874727564653A
:100EB00072206E756D62657220210A0045534341B0
:100EC00050452054C389524D49434F0054686572C0
:100ED0006D616C2052756E61776179004572726F39
:100EE0003A54656D70204DC3A178696D61004D4124
:100EF0005854454D50207472696767657265640087
:100F00004572726F3A54656D70204DC3AD6E696D58
:100F100061004D494E54454D5020747269676765B4
:100F200072656400202F002042403A0020403A00C1
:100F300020520020490020204D33303120500050F5
:100F400049442073657474696E67733A00204600E3
:100F500020480020204D3134352053004D61746508
:100F60007269616C2068656174757020706172616E
:100F70006D65746572733A0020204D32303620580A
:100F800000486F6D65206F66667365743A002020B7
:100F90004D323035204200416476616E6365643ABB
:100FA00020423C6D696E5F7365676D656E745F743A
:100FB000696D655F75733E20533C6D696E5F666554
:100FC0006564726174653E20543C6D696E5F747235
:100FD0006176656C5F66656564726174653E205814
:100FE0003C6D61785F785F6A65726B3E20593C6D3D
:100FF00061785F795F6A65726B3E205A3C6D6178FB
:101000005F7A5F6A65726B3E20453C6D61785F6513
:101010005F6A65726B3E0020540020204D323034F0
:10102000205000416363656C65726174696F6E2066
:1010300028756E6974732F7332293A20503C707290
:10104000696E745F616363656C3E20523C726574C7
:10105000726163745F616363656C3E20543C7472BB
:101060006176656C5F616363656C3E0020204D3284
:1010700030312058004D6178696D756D2041636392
:10108000656C65726174696F6E2028756E69747322
:101090002F7332293A0020204D3230332058004D32
:1010A0006178696D756D20666565647261746573DC
:1010B0002028756E6974732F73293A005374657014
:1010C000732070657220756E69743A0020440020A8
:1010D000204D3230302053002044697361626C65CA
:1010E000640A0046696C616D656E74207365747482
:1010F000696E67733A0020204D3134392043203B1C
:1011000020556E69747320696E2043656C73697530
:10111000730A0020286D6D290020204732312020DD
:1011200020203B20556E69747320696E206D6D0020
:1011300020436F756E7420583A0024F4D43050C3A5
:101140008E20C2A24017828B7011127A910D816C91
:10115000D90AA861E108C7586607615143061E4BCA
:101160005D05C145A7041A411104093D9803713971
:1011700031034036DB0265339102D4305402802EB5
:101180001D02632CEE01752AC501B028A0011027AD
:1011900081018F2564012B244B01E0223401AC2115
:1011A0001F018D200D01801FFC00841EED00971D86
:1011B000DF00B81CD200E61BC600201BBC00641A6E
:1011C000B200B219A8000A19A0006A189900D11734
:1011D000910040178B00B516840031167E00B315C0
:1011E00079003A157300C7146F0058146A00EE13A3
:1011F00066008813630025135E00C7125B006C1243
:10120000570015125400C111510070114F002111E7
:101210004B00D61049008D104700461044000210C4
:101220004200C00F4000800F3E00420F3C00060FFE
:101230003B00CB0E3800930E37005C0E3500270EB6
:101240003400F30D3200C10D3100900D3000600DFF
:101250002E00320D2D00050D2C00D90C2B00AE0CEC
:101260002900850C29005C0C2700350C27000E0C8A
:101270002600E80B2400C40B2400A00B23007D0BE8
:1012800023005A0B2100390B2100180B2000F80A0B
:101290001F00D90A1E00BB0A1E009D0A1D00800AFD
:1012A0001D00630A1C00470A1B002C0A1B00110AC0
:1012B0001A00F7091A00DD091900C4091900AB0961
:1012C0001900920917007B091800630917004C09DF
:1012D000160036091600200916000A091500F5083F
:1012E0001500E0081400CC081400B8081400A40885
:1012F0001400900813007D0812006B0813005808B2
:1013000012004608120034081100230811001208C8
:10131000110001081100F0071000E0071000D007CD
:101320001000C0071000B0070F00A10710009107C0
:101330000E0083070F0074070F0065070E005707A4
:101340000E0049070E003B070D002E070E00200778
:101350000D0013070D0006070D00F9060C00ED0641
:101360000D00E0060C00D4060C00C8060C00BC06FC
:101370000C00B0060C00A4060B0099060C008D06AC
:101380000B0082060B0077060B006C060B00610653
:101390000A0057060B004C060A0042060A003806EF
:1013A0000A002E060A0024060A001A060A00100681
:1013B000090007060A00FD050900F4050900EB0510
:1013C0000900E2050900D9050900D0050900C70593
:1013D0000900BE050900B5050800AD050800A50512
:1013E00009009C050800940508008C050800840588
:1013F00008007C050800740508006C0507006505F9
:1014000008005D050700560508004E050700470562
:1014100007004005080038050700310507002A05C8
:101420000700230507001C050600160507000F0529
:1014300007000805060002050700FB040600F50486
:101440000700EE040600E8040600E2040700DB04DF
:101450000600D5040600CF040600C9040600C30434
:101460000600BD040600B7040600B1040500AC0484
:101470000600A6040600A00405009B0406009504CF
:101480000500900406008A04050085040500800418
:1014900006007A04050075040500700405006B045D
:1014A000050066040500610405005C04050057049E
:1014B0000500520405004D040500480405004304DE
:1014C00005003E0404003A0405003504050030041C
:1014D00004002C04050027040400230405001E0456
:1014E00004001A04040016040500110404000D048D
:1014F0000400090405000404040000040400FC03C3
:101500000400F8030400F4030400F0030400EC03F7
:101510000400E8030400E4030400E0030400DC0327
:101520000400D8030400D4030400D0030400CC0357
:101530000400C8030300C503030024F404D9201BDE
:10154000C40C5C0E9804C4095F0265077101F405C0
:10155000F900FB04B30048048700C1036900580385
:10156000550003034500BE023A00840231005302D5
:101570002A002902250004022000E4011C00C80101
:101580001900AF01170098011400840113007101C4
:1015900010006101100051010E0043010D003601E1
:1015A0000B002B010B0020010B00150109000C01A1
:1015B000090003010800FB000800F3000800EB002D
:1015C0000700E4000600DE000600D8000600D20096
:1015D0000600CC000500C7000500C2000500BD00E4
:1015E0000400B9000400B5000400B1000400AD001F
:1015F0000400A9000400A5000300A20003009F004E
:1016000004009B0003009800030095000200930073
:101610000300900003008D0002008B00030088008F
:1016200002008600020084000300810002007F00A7
:1016300002007D0002007B000200790002007700BA
:1016400001007600020074000200720001007100C7
:1016500002006F0002006D0001006C0002006A00D1
:1016600001006900020067000100660001006500DA
:1016700001006400020062000100610001006000DE
:1016800001005F0002005D0001005C0001005B00E2
:1016900001005A00010059000100580001005700E4
:1016A00001005600010055000100540001005300E4
:1016B00000005300010052000100510001005000E1
:1016C00001004F0001004E0000004E0001004D00DF
:1016D00001004C0001004B0000004B0001004A00DB
:1016E00001004900010048000000480001004700D7
:1016F00001004600000046000100450000004500D2
:1017000001004400010043000000430001004200CA
:1017100000004200010041000000410001004000C3
:1017200001003F0000003F0001003E0000003E00BD
:1017300001003D0000003D0001003C0000003C00B5
:1017400000003C0001003B0000003B0001003A00AB
:1017500000003A00010039000000390001003800A3
:10176000000038000000380001003700000037009A
:101770000100360000003600000036000100350090
:101780000000350000003500010034000000340086
:10179000000034000100330000003300000033007B
:1017A0000100320000003200000032000100310070
:1017B0000000310000003100010030000000300066
:1017C0000000300001002F0000002F0000002F005B
:1017D00000002F0001002E0000002E0000002E004F
:1017E00001002D0000002D0000002D0000002D0044
:1017F00001002C0000002C0000002C0000002C0038
:1018000001002B0000002B0000002B0000002B002B
:1018100001002A0000002A0000002A0000002A001F
:101820000100290000002900000029000000290013
:101830000000290001002800000028000000280006
:1018400000002800000028000100270000002700F9
:1018500000002700000027000000270001002600EC
:1018600000002600000026000000260000002600E0
:1018700001002500000025000000250000002500D3
:1018800000002500000025000100240000002400C5
:1018900000002400000024000000240001002300B8
:1018A00000002300000023000000230000002300AC
:1018B000000023000000230001002200000022009D
:1018C0000000220000002200000022000000220090
:1018D0000100210000002100000021000000210083
:1018E0000000210000002100000021000100200074
:1018F0000000200000002000000020000000200068
:1019000000002000000020000000200001001F0057
:1019100000001F0000001F0000001F0000001F004B
:1019200000001F0000001F0001001E0000001E003C
:1019300000001E0000001E000000043700001E29E9
:101940000000511B00005810000010090000CC04DA
:10195000000078020000410100004469C3A26D65E7
:1019600074726F2046696C2E00457874727573C36B
:10197000A36F20656D206D6DC2B300200820466105
:10198000746F72002008204DC3A178002008204DFC
:10199000696E004465736C696761646F004C6967C8
:1019A00061646F0054656D702E204175746F6DC356
:1019B000A17469636100564465736C6F63616D6502
:1019C0006E746F206D696E00566D696E00566D61A4
:1019D00078204500566D6178205A00566D61782058
:1019E0005900566D61782058001000C90210012C72
:1019F000014001220170011801B0010E01F0010443
:101A0000015002FA00B002F0003003E600D003DC1F
:101A1000009004D2007005C800A006BE000008B403
:101A200000B009AA00D00BA000600E960060118CD7
:101A3000000015820020197800C01D6E00A02264ED
:101A400000B0275A00902C500000314600E0343C92
:101A50000010383200903A2800603C1E00A03D146F
:101A600000803E0A00203F00002020506C616E6E16
:101A7000657242756666657242797465733A2000D4
:101A80002046726565204D656D6F72793A2000437E
:101A90006F6D70696C65643A204F63742032372033
:101AA000323032300A00204C61737420557064610A
:101AB0007465643A20323032302D31302D3135208A
:101AC0007C20417574686F723A20286E6F6E652CA9
:101AD0002064656661756C7420636F6E6669672942
:101AE0000A00322E302E372E320A004D61726C6998
:101AF0006E0020536F66747761726520526573655E
:101B0000740A00205761746368646F6720526573BC
:101B100065740A002042726F776E206F75742052D0
:101B2000657365740A002045787465726E616C2077
:101B300052657365740A00506F77657255700A00BC
:101B40006175746F25632E67004732385859004D10
:101B500031303031006572726F722077726974694A
:101B60006E6720746F2066696C650A00446F6E654D
:101B700020736176696E672066696C652E0A004D78
:101B800032390046696E7320646520637572736F25
:101B9000002553202563202563202563202563002D
:101BA000656E6473746F7073206869743A200023E3
:101BB000646566696E652044454641554C545F0036
:101BC0004B6420004B6920004B702000504944209A
:101BD0004175746F74756E652066696E69736865AA
:101BE00064212050757420746865206C61737420C2
:101BF0004B702C204B6920616E64204B6420636F16
:101C00006E7374616E74732066726F6D2062656CA2
:101C10006F7720696E746F20436F6E6669677572A7
:101C20006174696F6E2E680A0050494420417574D2
:101C30006F74756E65206661696C656421207469D6
:101C40006D656F75740A000A20436C617373696374
:101C500020504944200A00204B643A2000204B6960
:101C60003A2000204B703A20002054753A20002082
:101C70004B753A2000206D61783A2000206D696E26
:101C80003A200020643A200020626961733A200003
:101C9000504944204175746F74756E65207374618A
:101CA00072740A00504944204175746F74756E65F2
:101CB000206661696C6564212054656D7065726190
:101CC0007475726520746F6F20686967680A0050C8
:101CD0004944204175746F74756E65005049442005
:101CE0004175746F74756E65206661696C656421F9
:101CF00020426164206578747275646572206E7527
:101D00006D6265720A004572723A207574663820F9
:101D1000666F6E74206E6F7420696E697469616C91
:101D2000697A65642E00000C0F00FE07022503BBD4
:101D300001FFFE0AFE08FE05080806000040F0C884
:101D40008888987810050808060000C0F8888888F8
:101D50008888F80505050600012030F830200508C0
:101D6000080600002070F820202020E00509090660
:101D700000FF2070A8A8B888887020070505070014
:101D800001D86C366CD80509090600FFF8A88888C8
:101D9000888888A8F8050A0A0600FE20505050508E
:101DA00088A8A8887003030306000340A040FFFF33
:101DB000FFFFFFFFFFFFFFFFFFFFFFFFFFFFFFFF33
:101DC000FFFFFFFF0000000605FF010707060200F6
:101DD00080808080800080030303060105A0A0A00E
:101DE00005060606000050F85050F850050909068F
:101DF00000FF2070A8A07028A87020050707060023
:101E000000C8C8102040989805070706000040A0A9
:101E1000A040A890680103030602058080800309A2
:101E2000090601FF204040808080404020030909CE
:101E30000601FF8040402020204040800507070623
:101E4000000020A8702070A82005050506000120CC
:101E500020F820200203030601FFC0408005010195
:101E6000060003F8020202060100C0C005070706CB
:101E70000000081010204040800507070600007091
:101E80008898A8C8887003070706010040C0404032
:101E90004040E0050707060000708808102040F861
:101EA000050707060000F8081030088870050707C6
:101EB00006000010305090F81010050707060000CB
:101EC000F880F00808887005070706000030408099
:101ED000F0888870050707060000F8081010202019
:101EE000200507070600007088887088887005073D
:101EF0000706000070888878081060020505060152
:101F000000C0C000C0C00206060601FFC0C000C07D
:101F100040800305050601012040804020050303A1
:101F2000060002F800F80305050601018040204084
:101F30008005070706000070881020200020050794
:101F4000070600007088B8A8B8807005070706006B
:101F500000708888F8888888050707060000F04820
:101F600048704848F00507070600007088808080A8
:101F70008870050707060000F04848484848F00503
:101F80000707060000F88080F08080F80507070644
:101F90000000F88080F08080800507070600007050
:101FA000888080988870050707060000888888F870
:101FB000888888030707060100E04040404040E071
:101FC000050707060000381010101090600507077D
:101FD0000600008890A0C0A09088050707060000B2
:101FE000808080808080F805070706000088D8A8D8
:101FF000888888880507070600008888C8A8988808
:10200000880507070600007088888888887005079B
:1020100007060000F08888F080808005070706002A
:102020000070888888A89068050707060000F08877
:1020300088F0A09088050707060000708880700867
:102040008870050707060000F820202020202005C2
:1020500007070600008888888888887005070706B3
:1020600000008888888850502005070706000088EF
:10207000888888A8A850050707060000888850208F
:1020800050888805070706000088885020202020F7
:10209000050707060000F80810204080F80309092A
:1020A0000601FFE080808080808080E005070706D1
:1020B0000000804040201010080309090601FFE0DD
:1020C00020202020202020E00503030600052050CA
:1020D000880501010600FEF80303030601058040A0
:1020E00020050505060000700878887805070706B2
:1020F00000008080F0888888F005050506000070E3
:10210000808088700507070600000808788888889E
:10211000780505050600007088F080700507070641
:102120000000304840E04040400507070600FE70D0
:102130008888887808700507070600008080F08886
:102140008888880307070601004000C0404040E03F
:102150000409090601FE10003010101010906005EF
:10216000070706000080808890E090880307070634
:102170000100C04040404040E0050505060000D099
:10218000A8A8A8A8050505060000B0C88888880585
:10219000050506000070888888700507070600FEA0
:1021A000F0888888F080800507070600FE78888818
:1021B00088780808050505060000B0C880808005FD
:1021C000050506000078807008F005070706000086
:1021D0002020F820202018050505060000888888A2
:1021E00098680505050600008888885020050505C3
:1021F0000600008888A8A85005050506000088503C
:102200002050880507070600FE88888850204080F7
:10221000050505060000F8102040F803090906012D
:10222000FF2040404080404040200109090602FF55
:102230008080808080808080800309090601FF8083
:10224000404040204040408005030306000248A86B
:1022500090FFFFFFFFFFFFFFFFFFFFFFFFFFFFFFFD
:10226000FFFFFFFFFFFFFFFFFFFFFFFFFFFFFFFF7E
:10227000FFFF0000000605FF0107070602008000BF
:1022800080808080800507070600FF2070A8A0A836
:102290007020050707060000304840E04048B005C0
:1022A0000505060000A8508850A80507070600008D
:1022B0008850F820F820200107070602008080805F
:1022C00000808080040808060100708060909060A3
:1022D00010E0030101060107A006070706000078C9
:1022E00084B4A4B4847803050506010460A06000EA
:1022F000E00505050600002850A050280503030648
:102300000001F80808030101060103E006070706BB
:1023100000007884B4A4A48478050101060007F8BD
:10232000040404060105609090600507070600009C
:102330002020F8202000F803050506010440A02015
:1023400040E0030505060104C0204020C00303034C
:102350000601052040800507070600FE888888984A
:10236000E8808005080806000078E8E8E868282882
:1023700028020202060203C0C00302020601FE2078
:10238000C003050506010440C04040E00305050602
:10239000010540A04000E0050505060000A050280A
:1023A00050A0050A0A06000040C048506050B050D6
:1023B0007810050A0A06000040C048506050A8087E
:1023C0001038050A0A060000C0204830E050B0501E
:1023D00078100507070600002000202040887005BF
:1023E0000A0A060000402000708888F8888888055E
:1023F0000A0A060000102000708888F8888888057E
:102400000A0A060000205000708888F8888888052D
:102410000A0A06000068B000708888F88888880575
:1024200009090600005000708888F8888888050A25
:102430000A060000205020708888F88888880507E0
:102440000706000078A0A0F0A0A0B80509090600C2
:10245000FE708880808088701060050A0A0600007F
:10246000402000F88080F08080F8050A0A0600000D
:10247000102000F88080F08080F8050A0A0600002D
:10248000205000F88080F08080F8050909060000DF
:102490005000F88080F08080F8030A0A060100806E
:1024A0004000E04040404040E0030A0A06010020AE
:1024B0004000E04040404040E0030A0A060100407E
:1024C000A000E04040404040E0030909060100A0B0
:1024D00000E04040404040E005070706000070482B
:1024E00048E8484870050A0A06000068B000888875
:1024F000C8A8988888050A0A06000040200070884D
:102500008888888870050A0A0600001020007088F4
:102510008888888870050A0A0600002050007088A4
:102520008888888870050A0A06000068B0007088EC
:10253000888888887005090906000050007088881E
:102540008888887005050506000188502050880598
:1025500009090600FF087098A8A8A8C87080050A95
:102560000A06000040200088888888888870050A4C
:102570000A06000010200088888888888870050A6C
:102580000A0600002050008888888888887005091D
:1025900009060000500088888888888870050A0A23
:1025A0000600001020008888502020202004070703
:1025B00006010080E0909090E0800507070600008B
:1025C000708890A09088B0050808060000402000A0
:1025D0007008788878050808060000102000700848
:1025E0007888780508080600002050007008788870
:1025F0007805080806000068B0007008788878053B
:10260000070706000050007008788878050808065B
:102610000000205020700878887805050506000025
:10262000702870A0780507070600FE708880887003
:1026300010600508080600004020007088F08070D7
:102640000508080600001020007088F0807005085A
:10265000080600002050007088F08070050707060B
:10266000000050007088F0807003080806010080A8
:102670004000C0404040E003080806010020400040
:10268000C0404040E003080806010040A000C040F0
:102690004040E0030707060100A000C0404040E0C2
:1026A00005090906000050205008788888887005C0
:1026B000080806000068B000B0C8888888050808C7
:1026C0000600004020007088888870050808060011
:1026D0000010200070888888700508080600002017
:1026E0005000708888887005080806000068B000EF
:1026F0007088888870050707060000500070888879
:1027000088700505050600012000F8002005050574
:102710000600007898A8C8F00508080600004020C8
:102720000088888888700508080600001020008846
:10273000888888700508080600002050008888886E
:102740008870050707060000500088888888700593
:102750000A0A0600FE102000888888502040800564
:1027600009090600FE8080F0888888F080800509CD
:10277000090600FE5000888888502040803F0049AC
:102780006E696369617220454550524F4D00496D35
:102790007072657373C3A36F2041626F727461645A
:1027A00061004D32350050617573696E672E2E2EB3
:1027B00000454550524F4D2056657273696F6E202B
:1027C0004572726F7200454550524F4D20496E64FC
:1027D0006578204572726F7200454550524F4D200A
:1027E000435243204572726F720049676E6F726583
:1027F0000052657365746172006F70656E005452AB
:1028000049474745524544007A5F6D696E00795FDC
:102810006D696E00785F6D696E005265706F7274DD
:10282000696E6720656E6473746F70207374617471
:1028300075730A0046616C686120616F20697220BF
:10284000C3A0206F726967656D005761726E696E13
:10285000673A20486F6D696E672042756D7020443D
:10286000697669736F72203C20310A00000048428B
:1028700000004842000080400202040000A0400026
:1028800000A04000000040FFFFFF2053697A653A36
:10289000200043616E6E6F74206F70656E207375DB
:1028A000626469722000534420496E697420466155
:1028B000696C0053442063617264206F6B0A006F7F
:1028C00070656E526F6F74206661696C65640A0092
:1028D000766F6C756D652E696E6974206661696CC2
:1028E00065640A004E6F20534420636172640A00DD
:1028F0004D3234004D3233202573006F70656E20E9
:102900006661696C65642C2046696C653A200046F6
:10291000696C652073656C65637465640A0046695B
:102920006C65206F70656E65643A2000454E4420EA
:10293000535542524F5554494E450A002220706F5C
:1029400073002220706172656E743A220053554202
:10295000524F5554494E452043414C4C20746172AE
:102960006765743A220053756263616C6C204F7620
:102970006572666C6F770045786365656465642091
:102980006D617820535542524F5554494E4520644D
:10299000657074683A310A0057726974696E67200D
:1029A000746F2066696C653A200066726573680012
:1029B000646F696E67004E6F7720007C3C3E5E2B33
:1029C0003D3F2F5B5D3B2C2A225C00000000000095
:1029D0000000000000000000005C4300005C4300B9
:1029E00000484353657474696E67732053746F7243
:1029F00065640053657474696E67732053746F72F5
:102A00006564202800496D7072696D697220646F79
:102A1000205344004D6F7665722025736D6D004D17
:102A20006F76657220302E316D6D004D6F76657258
:102A300020316D6D004D6F7665722031306D6D0007
:102A40004D6F766572206569786F004D6F7665729F
:102A5000204578747275736F72004D6F76657220C1
:102A60005A004D6F7665722059004D6F7665722061
:102A7000580000000A0B02090C0D0E0807030401A0
:102A80000000000000000000000000000000000046
:102A90000000000000000000000000000000121113
:102AA0001000000000000000000000000000000016
:102AB0000000000000000000436F6E6669672E2072
:102AC0004176616EC3A761646100496E69636961A3
:102AD00072004D3432380046696C616D656E746FFA
:102AE00000506173736F2F6D6D00417272616E6380
:102AF000616461004163656C657261C3A7C3A36FC4
:102B000000436F6D70656E736172206F72696765E7
:102B10006D004C657220436F6E666967757261C3A4
:102B2000A7C3A36F00526573746175726F207365DC
:102B30006775726F0053616C76617220436F6E66C9
:102B40006967757261C3A7C3A36F00416A75737427
:102B500061722024001FE02010201020101020108F
:102B6000202010201030300840048003001FE03F78
:102B7000F03FF03FF01FE01FE03FF03FF03FF00F6D
:102B8000C0078003003FFFF038007030FC3020FCAD
:102B9000102078102030102C00D02E31D02F7BD078
:102BA0002F7BD02E31D02C00D02030102078102058
:102BB000FC1030FC303800703FFFF03FFFF0380071
:102BC000703186302387102787902F87D02F03D02E
:102BD0002030102078102078102030102F03D02FB4
:102BE00087D02787902387103186303800703FFFC9
:102BF000F01FFFF81FFFF804104002082002082011
:102C0000041040082080104100104100082080047A
:102C100010400000001FFFF81FFFF82568753A25D7
:102C20003032687500256875642025303268753A41
:102C30002530326875002020202020202000000050
:102C40002200250028002B002E0031003400020154
:102C50000000050108010B010000210024002700ED
:102C60002A002D003000330001010000040107019B
:102C70000A01050505050705080808080202020201
:102C80000A0A080804040404010101010101010108
:102C90000303030303030303040707070C0C0C0CD3
:102CA0000C0C0C0C020202020606060606060606BC
:102CB0000B0B0B0B0B0B0B0B010210202008081049
:102CC000204010204080020102010804020101029C
:102CD0000408102040808040201008040201800475
:102CE00002018040201008040201080402010102D0
:102CF0000408102040800102040810204080416D2B
:102D00006178204500416D6178205A00416D6178FD
:102D1000205900416D61782058004D6F76696D65CE
:102D20006E746F20410052657472616972204100B7
:102D30004163656C2E00617272616E636164612033
:102D4000564500617272616E6361646120565A007B
:102D5000617272616E6361646120565900617272C2
:102D6000616E6361646120565800452F6D6D00509F
:102D70006173736F205A2F6D6D00506173736F20F4
:102D8000592F6D6D00506173736F20582F6D6D005A
:102D9000456E636C6F73757265002062797465733C
:102DA0003B2063726320004E6F20454550524F4DCB
:102DB0002E0A00454550524F4D206461746173697D
:102DC0007A65206572726F722E0A002073746F72BA
:102DD00065642073657474696E67732072657472BC
:102DE0006965766564202800202863616C63756CD2
:102DF0006174656429210A0020213D200045455069
:102E0000524F4D20435243206D69736D6174636866
:102E1000202D202873746F726564292000496E6428
:102E200065783A200044494749504F5453204C6F2D
:102E3000616465640A0044494749504F5453204C2B
:102E40006F6164696E670A00204D61726C696E3D46
:102E5000563832290A00454550524F4D207665724A
:102E600073696F6E206D69736D61746368202845A6
:102E70004550524F4D3D0048617264636F64656414
:102E80002044656661756C742053657474696E675F
:102E900073204C6F616465640A003B20000000C829
:102EA000430000C8430000004100004842000048C1
:102EB0004300004843000048430000C8429001001E
:102EC000009001000090010000320000004361709A
:102ED0003A00656E7175657565696E672022006FD1
:102EE0006B00526573656E643A200020573A0052B9
:102EF0006573667269616E646F2E2E2E0041717566
:102F00006563656E646F2E2E2E00452025530046A6
:102F100061766F72207265736574617200494D50FD
:102F2000524553534F5241205041524F5500255363
:102F30003A20255300504152414441204445204508
:102F40004D455247C38A4E434941005072696E74E1
:102F500065722068616C7465642E206B696C6C28E6
:102F6000292063616C6C6564210A006563686F3AAF
:102F7000004572726F723A00204D3932205800209D
:102F8000496E76616C6964206578747275646572E7
:102F90002000EADDFFDA11241FBECFEFD1E2DEBF51
:102FA000CDBF00E00CBF12E0A0E0B2E0E8EBFCED2A
:102FB00001E00BBF02C007900D92A43CB107D9F706
:102FC00023E1A4ECB2E001C01D92A834B207E1F7FE
:102FD00017E1CAECD7E100E006C021970109802F74
:102FE000FE010E94A5EAC93CD10780E00807A9F7C5
:102FF0000E94F0D30C944AEE0C9400002F923F9262
:103000004F925F926F927F928F929F92AF92BF92F8
:10301000CF92DF92EF92FF920F931F93CF93DF93A4
:10302000CDB7DEB7C555D1090FB6F894DEBF0FBED8
:10303000CDBF66968FAF66972091CE0265962FAF73
:10304000659791E09093CE0280919B128D3409F4A4
:103050006DC2843511F40C947A26873411F00C94E7
:103060009F262090991230909A1234E02316310452
:1030700009F495C154F437FC55C28091270B52E0F6
:10308000251631040CF0FFC02FC08AE52816310444
:1030900009F4D3C164F4A5E12A16310411F40C94A7
:1030A000A126BCE12B16310409F4B7C13BC2EBE504
:1030B0002E16310409F4C5C1FCE52F16310409F0C0
:1030C00031C293E6292E92E0392E2AEAE22E2BE035
:1030D000F22EA3E8B3E0B9A3A8A333E9C32E33E0EB
:1030E000D32E00E010E0EEC1813011F00C94A12647
:1030F0000E946FCE87EB9BE00E94AA7A80918B089A
:1031000083FD85C020918F033091900340919103FE
:10311000509192036091C30B7091C40B8091C50BC9
:103120009091C60B0E94B2E3882309F470C080918D
:10313000D80381111BC06091C10C7091C20C8091A9
:10314000C30C9091C40C0E9422EC20910E0230918D
:103150000F02215031096217730744F40E94BCCF5B
:1031600082EF9DE00E945ACF11E001C010E0209153
:103170008F0330919003409191035091920360919D
:10318000C30B7091C40B8091C50B9091C60B0E942C
:10319000B5EA6B017C0120E030E0A9010E9416ED48
:1031A00087FF04C0F7FAF094F7F8F09420910A0230
:1031B00030910B0240910C0250910D02C701B601F3
:1031C0000E9418E420E030E048E453E40E9416ED49
:1031D00018163CF40E94BCCF83ED9DE00E945ACFAC
:1031E00002C01123A1F08091C30B9091C40BA09158
:1031F000C50BB091C60B80938F0390939003A0935F
:103200009103B093920383EC9BE00E94B69A2AE06C
:1032100037ED43E25CE3609100027091010280911E
:103220000202909103020E9418E46B017C016091FC
:103230004D0270914E02072E000C880B990B0E94D4
:10324000B9E39B01AC01C701B6010E9418E4698390
:103250007A838B839C838E010F5F1F4F23EC3BE0AF
:103260004FEB5BE06BEB7BE087EB9BE00E94115444
:1032700080E1E7EBFBE0A3E8B3E001900D928A95D3
:10328000E1F70C94A126813011F00C94A1260E9444
:103290006FCE82E50E9462CE882309F44EC00E9460
:1032A000E1CD6B017C0120E030E0A9010E94B2E396
:1032B000882311F40C946E272091830330918403AA
:1032C000409185035091860328A339A34AA35BA3A9
:1032D0008091870390918803A0918903B0918A031C
:1032E0008CA39DA3AEA3BFA38090B70B9090B80B07
:1032F000A090B90BB090BA0B4090BB0B5090BC0B98
:103300006090BD0B7090BE0BA501940168A179A1DE
:103310008AA19BA10E94B2E381110C94AF26A30164
:1033200092016CA17DA18EA19FA10E94B2E388238E
:1033300011F40C946E270C94AF2689E40E9462CE9F
:10334000882329F00E94E1CD6B017C0103C0C12CD0
:10335000D12C76018AE40E9462CE882311F40C9469
:1033600075270E94E1CD68A779A78AA79BA720E0CF
:1033700030E0A901C701B6010E94B2E381110C94AB
:10338000822720E030E0A90168A579A58AA59BA540
:103390000E94B2E381110C9482270C946E2780E581
:1033A0000E9462CE882329F00E9499CD6B017C0196
:1033B00003C0C12CD12C760183E50E9462CE882304
:1033C00061F00E94E1CD20E030E04AE754E40E9441
:1033D00018E40E9429EC6B017C010E940F988091F7
:1033E000760B811105C060E089EB95E00E94DC81DD
:1033F0000E945171C60ED71EE81EF91E0E9451711F
:10340000DC01CB018C199D09AE09BF09B7FD02C0D3
:103410000C94A1260E94A132F1CF8091B60B877047
:10342000873011F00C94242B60E08FE40E9421CFB0
:1034300081110C94A1260C94242B1092CD020C9493
:10344000A1268FE08093CD020C94A1260E94E1CDAD
:103450002B013C01133049F0D6012D913D914D9146
:103460005C910E94B5EA2B013C01E8A1F9A1208101
:10347000318142815381C301B2010E94B5EA4B01FF
:103480005C012DEB37E346E855EB0E9416ED87FD16
:1034900021C02DEB37E346E855E3C501B4010E9496
:1034A000B2E31816BCF01F5FF4E0EF0EF11C28A188
:1034B00039A12C5F3F4F39A328A334E0C30ED11CA0
:1034C000143031F1F10181911F010E9462CE8823F5
:1034D00051F3BCCF133051F440928F0350929003BC
:1034E000609291037092920301E0DDCFA5019401F7
:1034F000D7016D917D918D919C910E94B6EAF70163
:103500006083718382839383812F0E948A7ACBCFD9
:10351000002321F08FE893E00E94B69A0E946E7C0F
:103520000C94A1260E940A550C94A1260091991290
:1035300010919A120137110509F420C50CF0B1C0A1
:103540000B34110509F428C40CF04DC008311105E5
:1035500009F43FC264F50231110509F4A4C574F4FD
:1035600017FF02C00C947726023011050CF471C1CC
:103570000131110509F4CAC10C94772605311105F2
:1035800009F409C234F40431110509F4D3C10C94CF
:1035900077260631110509F402C20731110511F031
:1035A0000C947726E0919712F091981206C20C3194
:1035B000110509F494C23CF40A31110509F42EC234
:1035C0000CF413C239C20E31110509F497C20CF480
:1035D0008EC20F31110509F435C30032110509F40B
:1035E000EEC20C9477260836110509F4EEC3ACF54B
:1035F0000235110509F449C504F50D34110509F426
:10360000E1C30CF4CCC30135110511F00C947726FD
:103610000E94DF570E94A77D0E941F980E94E13000
:1036200068EE73E080E090E00E9436CF60E088EDC5
:1036300096E00E94DC810C94A1260435110509F462
:1036400032C50CF429C50535110509F463C50C35DF
:10365000110509F482C50C9477260C36110509F47E
:1036600088C43CF40A36110509F4EBC30CF4D3C347
:1036700023C40E36110509F427C40CF4C9C30F3650
:10368000110509F432C40037110511F00C947726A6
:1036900041E060E070E08FE996E00E9424D00C9455
:1036A000A126033D110511F40C9492230CF053C094
:1036B0000139110509F4D4C60CF50637110509F4D2
:1036C00083C664F40337110509F4ECC50CF4E3C5B3
:1036D0000537110509F468C60C94772608371105DB
:1036E00009F4AFC60CF4AAC60937110509F4B1C62E
:1036F0000C38110509F464C40C947726093C1105B3
:1037000009F46DC774F40E3B110509F478C4083C44
:10371000110509F41DC70B39110511F00C9477261A
:103720008EC40C3C110509F49CC734F40B3C110504
:1037300009F478C70C9477260D3C110509F4C5C728
:103740000E3C110511F00C94772655E9E52E59E051
:10375000F52E10E0D5C70C3A41E0140711F40C9493
:10376000BD258CF50D3281E0180711F40C94F4247A
:1037700094F40D3D110511F40C947F240C32A1E05A
:103780001A0711F40C94D5240C3D110511F00C947A
:1037900077260C9458240F32B1E01B0711F40C94D7
:1037A000B72514F40C9473250039F1E01F0711F4C8
:1037B0000C94BA250A39114011F00C9477260E9416
:1037C0003F300C94A126083F31E0130711F40C940C
:1037D00032262CF5053F51E0150711F40C942C26E8
:1037E0004CF4043F114011F00C9477260E941E9374
:1037F0000C94A126063FA1E01A0711F40C942F2681
:10380000073F114011F00C94772661E083E50E9498
:1038100021CF91E089270E948B660C94A126003A63
:10382000E3E01E0709F400C23CF40C30124011F42E
:103830000C9442260C947726073E33E0130711F4CC
:103840000C944F26093E134011F40C945D260C9401
:10385000772680E50E9462CE882329F00E9499CDC8
:103860006B017C0103C0C12CD12C760183E50E9441
:1038700062CE882361F00E94E1CD20E030E04AE78B
:1038800054E40E9418E40E9429EC6B017C010E9420
:103890000F988091971290919812009721F061E013
:1038A0000E946C8205C060E085EC95E00E94DC819E
:1038B0001091CE0283E08093CE0281E08093A20B30
:1038C000C114D104E104F10431F00E945171C60E1B
:1038D000D71EE81EF91E8091A20B882311F40C94C8
:1038E000572CC114D104E104F10411F40C94532CAD
:1038F0000E945171DC01CB018C199D09AE09BF09F1
:10390000B7FF02C00C94532C0C94572C8091931247
:1039100084FF02C00C945E2C8091951287FF02C038
:103920000C945E2C80919612837011F00C945E2C96
:103930000C947A2C8091FF1083FF25C086EF95E0D0
:103940000E945ACF8091FF1083FF17C088E39FE049
:103950000E94CE8F8BE1E8E3FFE0DE01119601903B
:103960000D928A95E1F760E070E0CE0101960E9429
:10397000BB88CE0101960E94C29187EE95E00E941D
:103980005ACF0C94A1260E94BCCF87E096E00E94FB
:103990005ACF0C94A1260E94D5850C94A1260E9492
:1039A00019858091FF10877F80628093FF100C94AF
:1039B000A126803209F41082319680818111F9CFDD
:1039C00060E080919712909198120E94A2870C94C7
:1039D000A1260E94C130882321F00E9428850E94E0
:1039E000717D0E94D0540C94A1268091FF1082FF1B
:1039F00003C08B7F8093FF1080918203813089F711
:103A000082E0809382030E9451716093A60B7093B1
:103A1000A70B8093A80B9093A90BE3CF8091FF1085
:103A200083FD02C00C94A12683E50E9462CE811121
:103A30000C94882C0C94A12683E40E9414CE882335
:103A400019F18BE196E00E945ACF8091E20E882313
:103A500091F0BE016F5F7F4F8FED9EE00E94958ECB
:103A60008E010F5F1F4FD8018D918D01882339F092
:103A70000E947531F8CF81E196E00E945ACF8AE02A
:103A80000E9475310C94A1268091FF1082FF21C005
:103A90008AE296E00E945ACF6091FB107091FC1070
:103AA0008091FD109091FE104AE00E947C318FE2DF
:103AB0000E9475316091F7107091F8108091F910A3
:103AC0009091FA104AE00E947C310E947A320C9464
:103AD000A1268CE396E00E945ACF0C94A1268091F7
:103AE0009712909198120E945A870C94A126809167
:103AF000FF108E7F8093FF100C94A1268091FF1001
:103B000083FD02C00C94A1260E94F3548091FF1003
:103B100083FD02C00C94A1264091971250919812F7
:103B2000BE01645E7F4F80E00E94F0B58C0100977B
:103B300011F40C94A1266C8D7D8D19821C8222E0DB
:103B4000AC01CE0101960E94C891811102C0F12CF6
:103B500014C0CE0101960E945EB58823C1F361E0D6
:103B6000CE0101960E943D8E009789F325EEFC015F
:103B700020831C820E94C589F82ECE0101960E94E6
:103B8000C291B801FF2089F085E696E00E94A5CF9A
:103B90008AE00E9475311092FB101092FC10109276
:103BA000FD101092FE100C94A1268DE496E00E9468
:103BB000A5CF80EB9DE20E945ACF0C94A126809164
:103BC000FF1082FD0E940F988091FF1083FD02C0BC
:103BD0000C94A12660E080E50E9421CF182F682F69
:103BE00080919712909198120E94A28783E50E947B
:103BF00062CE882381F00E94A9CDAB01BC01409325
:103C0000FB105093FC106093FD107093FE108FED2D
:103C10009EE00E94B88B0E94288511110C94A12669
:103C20000E94717D0C94A1262091971230919812D8
:103C30009091FF1092609093FF10C9010E945A87E3
:103C40000C94A1260E94227D7B018C0120E831E5A5
:103C500041E050E00E9408EAC9016DE671E00E946F
:103C60005EEA4B015C01C801B70120E13EE040E0A3
:103C700050E00E9408EACA01B90128E130E040E0C2
:103C800050E00E9408EA762E672EC62ED72E8CE3CF
:103C9000282E312C412C512CC801B701A2019101D1
:103CA0000E9408EAF62EE72ECA01B901A20191018D
:103CB0000E9408EACB018E010F5F1F4F811491040F
:103CC00099F0EF92FF927F936F936F927F92BF92E2
:103CD000AF929F928F9283E796E09F938F931F936B
:103CE0000F930E944AE313C0A114B104B1F0EF9204
:103CF000FF927F936F936F927F92BF92AF9287E70D
:103D000096E09F938F931F930F930E944AE30FB601
:103D1000F894DEBF0FBECDBF30C0CD2879F0EF9252
:103D2000FF927F936F936F927F928BE796E09F93C2
:103D30008F931F930F930E944AE3E9CF892B69F079
:103D4000EF92FF927F936F938FE796E09F938F930D
:103D50001F930F930E944AE3DACFEF92FF9283E81A
:103D600096E09F938F931F930F930E944AE30F90C7
:103D70000F900F900F900F900F9060E0C8010E947D
:103D80006C820E94BCCFB80187E896E00E94A5CF64
:103D90008AE00E947531D5C70E94717DD2C780919B
:103DA0008203813009F0CDC782E0809382030E94B4
:103DB00051716093A60B7093A70B8093A80B9093FF
:103DC000A90BBFC70E94A77DBCC780918B0883FD4C
:103DD000B8C70E94C0CF87FDB4C789E40E9462CEF5
:103DE000882311F40C94992C0E94BDCD90E01816F4
:103DF000190614F481E090E026E0289FF001299F45
:103E0000F00D1124E65FF64F808191810C94A32C74
:103E10000E9472C896C70E94C0CF182F87FD0AC0A3
:103E20008FED9EE20E945ACF812F0E941C578AE09C
:103E30000E9475316596BFAD6597B093CE020C9424
:103E40000A3080E50E94185581117BC781E40E94E9
:103E500014CE882329F06091C703062F10E002C01A
:103E60000FEF10E089E40E9462CE882399F00E944F
:103E7000BDCD90E01816190614F481E090E026E01C
:103E8000289FF001299FF00D1124E65FF64F048171
:103E9000158108C083E50E9462CE882319F00E9434
:103EA000A9CD8B01B8010F3F110519F010F06FEF8C
:103EB00070E06093C70345C780E50E9418558111E3
:103EC00040C71092C7033DC78EE40E9462CE88238C
:103ED00009F437C70E94A9CD609320137093211372
:103EE00080932213909323132CC783E50E9414CE52
:103EF000882329F083E50E94185580938B080E943F
:103F0000BCCF88E996E00E945ACF80918B08882325
:103F100069F106E3E02E0AE0F02E00E010E020E078
:103F200080918B0890E0A0E0B0E0002E04C0B69530
:103F3000A795979587950A94D2F780FF0EC0DD2448
:103F4000D394D20E222319F08CE20E947531F7012E
:103F5000859194910E945ACF2D2D0F5F1F4FE2E063
:103F6000EE0EF11C05301105D9F689CD84E996E0F5
:103F700084CD1092A20B10922102E3C683E50E9429
:103F800062CE882371F00E94BDCD282F30E02D3302
:103F900031051CF480930402D4C68CE380930402A0
:103FA000D0C60E94BCCF4091040250E060E070E0B7
:103FB0008DEA96E00E9469CF8AE00E947531C1C601
:103FC00080918B0883FDBDC689E40E9462CE882360
:103FD00011F40C94AC2C0E94BDCD90E0181619067B
:103FE00014F481E090E026E0289FF001299FF00D75
:103FF0001124E65FF64F628173810C94B62C809198
:104000008B0883FD9EC689E40E9462CE882311F44A
:104010000C94C52C0E94BDCD90E01816190614F41E
:1040200081E090E026E0289FF001299FF00D112407
:10403000E65FF64F6281738118A20C94D52C83E55C
:104040000E9462CE882309F47CC60E94BDCD182F41
:1040500090E0CD970CF01CE31093C8020E945171C0
:104060006B017C01212F30E0A8EEB3E00E9435EA1D
:10407000C60ED71EE81EF91EC092C402D092C50219
:10408000E092C602F092C7025CC68091CD028F7D9D
:1040900080618093CD0255C68091CD028F7E806273
:1040A0008093CD024EC683E50E9462CE8823E9F05C
:1040B0000E945171609324137093251380932613EB
:1040C000909327130E94E1CD20E030E04AE754E4CA
:1040D0000E9418E40E9429EC609305027093060286
:1040E00080930702909308022CC68091931284FF5C
:1040F00002C00C947A2E8091951287FF02C00C9416
:104100007A2E80919612837011F00C947A2E0E9470
:104110001F9817C683E50E9414CE882309F411C6A0
:104120000E9451716093241370932513809326137A
:10413000909327130E94E1CD20E030E04AE754E459
:104140000E9418E40E9429EC6093C9027093CA028D
:104150008093CB029093CC02F4C50E94C0CF87FD20
:10416000F0C59091931294FD04C09091951297FF21
:104170000AC0E3E6CE2EE2E0DE2EFCE8EF2EF8E009
:10418000FF2E10E009C090919612937091F7682F5E
:1041900081E00E94E9CFD5C5D6018D916D010E94C5
:1041A00062CE882309F46DC0133009F063C00E9409
:1041B000E1CD4B015C0120E030E040EA51E40E9497
:1041C000B2E387FF4EC0A50194016091AC087091E5
:1041D000AD088091AE089091AF080E94B0EB2B0122
:1041E0003C019B01AC016091AB037091AC038091E9
:1041F000AD039091AE030E9418E46093AB037093FB
:10420000AC038093AD039093AE03A3019201609140
:10421000BC087091BD088091BE089091BF080E94B3
:1042200018E46093BC087093BD088093BE08909317
:10423000BF086091BB037091BC038091BD03909156
:10424000BE030E94B7E3A30192010E9418E40E94FA
:1042500029EC6093BB037093BC038093BD039093E0
:10426000BE038092AC089092AD08A092AE08B092C6
:10427000AF0807C00E94E1CDF701648B758B868B78
:10428000978B1F5FF4E0EF0EF11C143009F084CF20
:104290000E94EB9B56C50E946B548EE79FE00E94E4
:1042A000D85E4FC585E398E00E945ACF60E085E272
:1042B00098E00E94D8CC60E080E198E00E94D8CCE1
:1042C00061E087E897E20E94D8CC61E085E098E061
:1042D0000E94D8CC61E085EF97E00E94D8CC60E0E6
:1042E0008CEE97E00E94D8CC61E082EE97E00E94CD
:1042F000D8CC60E088ED97E00E94D8CC60E081EDFA
:1043000097E00E94D8CC60E089EC97E00E94D8CC7E
:1043100060E08BEB97E00E94D8CC60E08DEA97E0FC
:104320000E94D8CC60E08EE997E00E94D8CC60E093
:1043300080E997E00E94D8CC60E08AE797E00E948D
:10434000D8CC60E089E697E00E94D8CC60E08AE5AE
:1043500097E00E94D8CC61E083E597E00E94D8CC3A
:1043600060E08EE397E00E94D8CC60E080E397E0C5
:104370000E94D8CC61E08DE197E00E94D8CC60E04B
:1043800080E197E00E94D8CC61E08BE097E00E944A
:10439000D8CC60E08EEF96E00E94D8CC60E08AEE48
:1043A00096E00E94D8CCCDC480919712909198123B
:1043B000009709F416CBDC012C91222309F411CBD0
:1043C00060E00E946C82BDC4009197121091981217
:1043D00094E0F12C40E0915021F1F8018081282FE8
:1043E0002B7F213421F421812133D9F407C080357A
:1043F000C1F4818180538A3048F013C0813421F0A8
:10440000853421F441E002C0FF24F39498012E5F2B
:104410003F4F89012F5F3F4FF80180818032C9F300
:10442000DACF41110E94BCCFFF2021F08DE099E04E
:104430000E945ACFC8010E94803283C40E94F57C3A
:1044400080C481E080939209809391090E94177D36
:1044500078C410929209109291090E94177D71C43C
:1044600083E50E9462CE882359F00E94B9CD823044
:1044700048F00E94B8CF81E199E00E945ACF61C410
:1044800080E090E08C01112788E40E9462CE8823AE
:10449000E1F00E94B9CD8A3A910544F00E94B9CD6D
:1044A0008530914034F40E94B9CD05C08AEA90E08D
:1044B00002C084E091E026E0209FF001219FF00DF2
:1044C0001124E65FF64F9183808382E40E9462CEDE
:1044D0008823D9F00E94B9CD059744F00E94B9CD48
:1044E0008D38910534F40E94B9CD05C085E090E087
:1044F00002C08CE890E026E0209FF001219FF00DA3
:104500001124E65FF64F9383828386E40E9462CE95
:10451000882309F416C40E94B9CD97FD09C00E94F2
:10452000B9CD8F3F910509F034F40E94B9CD05C093
:1045300080E090E002C08FEF90E026E0209FF00145
:10454000219FF00D1124E65FF64F95838483F9C314
:104550000E94C0CF182F87FDF4C300911A0984E48C
:104560000E9462CE882311F40C94AD2E0E94E1CDFE
:104570006B017C0120E030E0A9010E94B2E38823B6
:1045800041F124E01202F0011124EA5EF64FC082EC
:10459000D182E282F38220E030E0A9016091160925
:1045A0007091170980911809909119090E94B2E33E
:1045B00081110CC080E090E0A0EEBFE3809316096B
:1045C00090931709A0931809B093190901E00C946E
:1045D000AD2E80E080931A090E94B992B2C30E9466
:1045E000C0CF87FDAEC373E6E72E72E0F72E0CE86E
:1045F00018E0D7018D917D010E9414CE882359F0D7
:104600000E94E1CD0E9429ECF801608371838283CE
:1046100093830E94C8970C5F1F4FF8E00C391F0767
:1046200041F78FC30E94C0CF87FD8BC363E6E62EA0
:1046300062E0F62E0CE818E0D7018D917D010E9412
:1046400014CE882339F00E94E1CDF80164A375A34C
:1046500086A397A30C5F1F4FF8E00C391F0761F783
:1046600070C38091941287FF02C00C94B32E809186
:1046700095128E7011F00C94B32E4091C008509199
:10468000C1086091C2087091C30883E399E00E9459
:1046900087CF4091C4085091C5086091C6087091B9
:1046A000C70880E39FE00E9487CF4091C8085091DF
:1046B000C9086091CA087091CB0887E190E10E9417
:1046C00087CF8AE00E9475313CC38091931282713A
:1046D00011F00C94FB2E809195128C7811F00C94B3
:1046E000FB2E80919612837011F00C94FB2E29C33F
:1046F0001F5FB4E0EB0EF11C133011F40C948E1A12
:1047000088E5810F0E9414CE882391F30E94E1CDA9
:10471000D7016D937D938D939C931397812F0E9466
:104720008A7AE6CF4090930350909403609095036B
:1047300070909603209132023091330240913402FE
:1047400050913502C301B2010E94B6EA68A379A371
:104750008AA39BA38090970390909803A0909903BD
:10476000B0909A032091360230913702409138027E
:1047700050913902C501B4010E94B6EA6CA37DA331
:104780008EA39FA3C0909B03D0909C03E0909D03B9
:10479000F0909E0320913A0230913B0240913C02FE
:1047A00050913D02C701B6010E94B6EA68A779A7F9
:1047B0008AA79BA720913E0230913F024091400280
:1047C00050914102C301B2010E94B6EA2B013C01A3
:1047D000209142023091430240914402509145029F
:1047E000C501B4010E94B6EA4B015C01209146026A
:1047F000309147024091480250914902C701B601E9
:104800000E94B6EA6B017C010E94BCCF83E599E06F
:104810000E945ACF83E50E9414CE882321F00E9483
:10482000D1CD8093300280913002882319F088E83E
:1048300095E002C081E398E00E945ACF8BE499E0B2
:104840000E945ACF48A159A16AA17BA182E790E1B9
:104850000E9487CF4CA15DA16EA17FA187E69AE25D
:104860000E9487CF48A559A56AA57BA58FE59AE246
:104870000E9487CF8CE39CE20E945ACF83E499E0A8
:104880000E945ACFB301A20182E790E10E9487CF34
:10489000B501A40187E69AE20E9487CFB701A6017D
:1048A0008FE59AE20E9487CF8AE00E94753149C263
:1048B00083E50E9462CE882331F00E94B9CD9093A7
:1048C0004E0280934D028091931290919412A09188
:1048D0009512B0919612892B8A2B8B2B09F031C23D
:1048E00060914D0270914E0283E699E00E9498CF4C
:1048F00085E20E9475318AE00E94753122C20E94D1
:10490000C0CFF82E87FD1DC283E50E9462CE0F2D19
:104910000F2C000C110B882369F10E94B9CDF8010E
:10492000EE0FFF1FEE5DFD4F91838083000F111F7F
:10493000000F111FF801E65FFD4F7F01BC01990FC9
:10494000880B990B0E94B9E32AE037ED43E25CE360
:104950000E9418E4F801EB5BF34F20813181428122
:1049600053810E9418E4D7016D937D938D939C939E
:104970001397E7C10E94BCCF85E40E94753180E3A4
:104980008F0D0E947531000F111FF801EE5DFD4F74
:104990006081718187E699E00E9498CF85E20E944C
:1049A00075318AE00E947531CCC183E50E9462CEE8
:1049B000882321F00E94A9CD8B0102C004E011E000
:1049C00080E50E9462CE882349F00E94A9CDCB01E8
:1049D0006938734128F088E893E102C088EE93E0DB
:1049E000B8010E94A581ADC185E40E9418558111CE
:1049F00073C080E50E9414CE882351F00E94E1CD5F
:104A00006093C80C7093C90C8093CA0C9093CB0C24
:104A100089E40E9414CE882381F00E94E1CD2CEA23
:104A200035EC47E25EE30E9418E46093CC0C70938F
:104A3000CD0C8093CE0C9093CF0C84E40E9414CEC6
:104A4000882381F00E94E1CD2CEA35EC47E25EE359
:104A50000E94B0EB6093D00C7093D10C8093D20C79
:104A60009093D30C0E94BCCF4091C80C5091C90CBC
:104A70006091CA0C7091CB0C87E799E00E9487CFB8
:104A80002CEA35EC47E25EE36091CC0C7091CD0CE2
:104A90008091CE0C9091CF0C0E94B0EBAB01BC0189
:104AA00083E799E00E9487CF2CEA35EC47E25EE38A
:104AB0006091D00C7091D10C8091D20C9091D30C5C
:104AC0000E9418E4AB01BC018FE699E00E9487CFF9
:104AD0008AE00E94753135C10E94B8CF8BE799E01A
:104AE0000E945ACF2EC183E50E9414CE182F88232E
:104AF00071F00E94E1CD0E9422EC70930F0260934E
:104B00000E0221E0672B09F020E02093D80380E516
:104B10000E9414CE882359F020910E0230910F028A
:104B2000232B11F00E94D1CD8093D8030AC111111B
:104B300008C10E94BCCF86EA99E00E945ACF8091BA
:104B4000D803882319F08BEF97E202C08DE899E033
:104B50000E945ACF60910E0270910F0285E999E090
:104B60000E9498CF81E999E00E945ACFEAC00E9442
:104B70004275E7C00E940F98E4C09091B60B90FD7B
:104B800002C087E001C086E091FD8D7FFE01319675
:104B90001F0192FD02C00C94682F8B7F11F00C94C2
:104BA000962F0BEC19E223E833E039A328A397E80A
:104BB000C92E98E2D92E7F01F801659175918591F2
:104BC0009491A8A1B9A18D909D90AD90BD90B9A3ED
:104BD000A8A3A50194010E94B5EA2B013C01F701AD
:104BE000608371838283938320E030E040EA51EC5C
:104BF0000E9416ED87FD0AC020E030E040EA51E453
:104C0000C301B2010E94B2E3181634F4F601849194
:104C1000181614F40C94992FD7018D909D90AD9097
:104C2000BD907D0120E030E040EA51ECC501B401C7
:104C30000E9416ED87FF02C00C94A52F20E030E003
:104C400040EA51E4C501B4010E94B2E3181614F021
:104C50000C94BA2F0C94A52F0E9464C872C00E94B5
:104C60002CC26FC0909378120E9445C310927812A4
:104C7000882309F466C00E94BCCF8FE09AE00E94AE
:104C80005ACF5FC08091FF1082FF04C08064809380
:104C9000FF1057C083FF55C00E94F35452C081E0FB
:104CA0008093270B1092A10B60E083E50E9421CF37
:104CB000811147C00E94C5CA44C00E94227D6D3345
:104CC00071058105910520F082E39AE00E94F2CC03
:104CD0008EE29AE00E94F2CC8AE19AE00E945ACFDA
:104CE00087E19DE09093A3098093A2092AC00E94C6
:104CF0000A5527C00091991210919A120E94517181
:104D00006093241370932513809326139093271395
:104D10000023B9F00E94BCCF84E50E947531B80130
:104D20007727072E000C880B990B0E94E93180E24F
:104D30000E9475318BE799E00E945ACF02C00E9411
:104D40000A556696FFAD6697F11102C00E94B5CA7A
:104D500065962FAD65972093CE020C940A3011E032
:104D600032E02316310409F010E020E030E0A90120
:104D7000C701B6010E94B2E3881F8827881F181355
:104D8000A4C020E030E040E85FE328A739A74AA7A5
:104D90005BA728A139A14AA15BA1C501B4010E946A
:104DA000B5EA20E030E040E05FE30E9418E468A349
:104DB00079A38AA39BA32CA13DA14EA15FA1C3010E
:104DC000B2010E94B5EA20E030E040E05FE30E94DB
:104DD00018E46CA37DA38EA39FA328A139A14AA1A7
:104DE0005BA1CA01B9010E9418E44B015C012CA12E
:104DF0003DA14EA15FA1CA01B9010E9418E49B0127
:104E0000AC01C501B4010E94B6EA0E9464ED4B01F9
:104E10005C019B01AC01C701B6010E94B5EA2B0100
:104E20003C01A5019401C701B6010E94B6EA9B01AD
:104E3000AC01C301B2010E9418E46B017C0120E0C7
:104E400030E0A9010E9416ED87FD07C0C701B60139
:104E50000E9464ED2B013C0103C0412C512C320116
:104E60006CA17DA18EA19FA19058A50194010E94E3
:104E7000B0EB28A539A54AA55BA50E9418E4A301BB
:104E800092010E9418E428A139A14AA15BA10E94C5
:104E9000B6EA6B017C01A501940168A179A18AA100
:104EA0009BA10E94B0EB28A539A54AA55BA50E944D
:104EB00018E4A30192010E9418E42CA13DA14EA187
:104EC0005FA10E94B6EA0C94B31980E090E0A0E8DC
:104ED000BFEB88A799A7AAA7BBA75BCF0E94B8CFB3
:104EE00083EA95E00E945ACF2CCF20E030E0A90160
:104EF000C701B6010E94B2E3882381F318A619A660
:104F00001AA61BA6A7019601505828A339A34AA3A5
:104F10005BA388A599A5AAA5BBA5B0588CA39DA302
:104F2000AEA3BFA3CA01B9010E9418E44B015C0102
:104F30002CA13DA14EA15FA1CA01B9010E9418E4B4
:104F40009B01AC01C501B4010E94B6EA0E9464ED68
:104F50006CAF7DAF8EAF9FAF209183033091840300
:104F600040918503509186032CA73DA74EA75FA7CC
:104F7000C701B6010E94B6EA24966CAF7DAF8EAF32
:104F80009FAF24978091870390918803A091890314
:104F9000B0918A0388AB99ABAAABBBAB28A539A566
:104FA0004AA55BA5BC01CD010E94B6EA28966CAF6C
:104FB0007DAF8EAF9FAF28972091B70B3091B80B84
:104FC0004091B90B5091BA0B2CAB3DAB4EAB5FABE4
:104FD00024962CAD3DAD4EAD5FAD24976CA97DA957
:104FE0008EA99FA90E94B5EA6B017C018091BB0B41
:104FF0009091BC0BA091BD0BB091BE0B88AF99AF47
:10500000AAAFBBAF28962CAD3DAD4EAD5FAD289796
:10501000BC01CD010E94B5EA4B015C01A7019601DC
:1050200068A179A18AA19BA10E9418E42B013C01EF
:10503000A50194016CA17DA18EA19FA10E9418E4FD
:105040009B01AC01C301B2010E94B6EA2B013C01F5
:10505000A501940168A179A18AA19BA10E9418E4ED
:105060004B015C01A70196016CA17DA18EA19FA1BE
:105070000E9418E49B01AC01C501B4010E94B5EA8D
:10508000A30192010E9435EB6B017C0120E030E02E
:10509000A9010E94B2E387FF0AC02BED3FE049EC73
:1050A00050E4C701B6010E94B6EA6B017C012BED0A
:1050B0003FE049EC50E4C701B6010E94B0EB20E0AC
:1050C00030E040EC51E40E9418E40E9494EB0E940E
:1050D00029EC8B01672B11F401E010E032E023167C
:1050E000310451F42BED3FE049EC50E4C701B60127
:1050F0000E94B5EA6B017C0120E030E0A901C70104
:10510000B6010E94B2E3811122C02CA93DA94EA98B
:105110005FA96CA57DA58EA59FA50E94B2E3811114
:1051200016C028AD39AD4AAD5BAD68A979A98AA989
:105130009BA90E94B2E381110AC008E110E05BED77
:10514000C52E5FE0D52E59ECE52E50E4F52E80916A
:105150008B0390918C03A0918D03B0918E0388AB4B
:1051600099ABAAABBBAB9C01AD016091BF0B709139
:10517000C00B8091C10B9091C20B0E94B5EA2B012C
:105180003C01A70196016CAD7DAD8EAD9FAD0E9437
:1051900018E44B015C0120E030E0A901C301B20139
:1051A0000E94B2E38823C9F0A5019401C501B401AE
:1051B0000E9418E44B015C01A3019201C301B201FA
:1051C0000E9418E49B01AC01C501B4010E94B6EA3B
:1051D0000E9464ED4B015C010DC020E030E0A901AC
:1051E000C501B4010E9416ED87FF04C0B7FAB09460
:1051F000B7F8B0942FE632E143E85AE3C501B401B1
:105200000E94B2E387FD15C22091C30B3091C40BFD
:105210004091C50B5091C60B28AF39AF4AAF5BAF79
:1052200080918F0390919003A0919103B09192038C
:105230008CAB9DABAEABBFAB2AE037ED43E25CE39A
:10524000609100027091010280910202909103022C
:105250000E9418E46CA77DA78EA79FA760914D02BE
:1052600070914E02072E000C880B990B0E94B9E337
:105270009B01AC016CA57DA58EA59FA50E9418E49D
:105280006C8F7D8F8E8F9F8FC501B4010E9458EC6B
:105290000E9429EC1B016017710708F41801B10185
:1052A00080E090E00E94B7E34B015C019B01AC0100
:1052B000C701B6010E94B0EB6CA77DA78EA79FA780
:1052C000A5019401C301B2010E94B0EB60966CAFDE
:1052D0007DAF8EAF9FAF60972CA93DA94EA95FA966
:1052E00068AD79AD8AAD9BAD0E94B5EAA501940188
:1052F0000E94B0EB64966CAF7DAF8EAF9FAF6497AA
:105300002CA53DA54EA55FA5CA01B9010E9418E4D0
:105310006B017C019B01AC016CA57DA58EA59FA5B1
:105320000E9418E420E030E040EC50E40E94B0EB32
:105330009B01AC016CA57DA58EA59FA50E94B5EA39
:1053400068AF79AF8AAF9BAF20E030E040E05FE329
:10535000C701B6010E9418E49B01AC0160E070E057
:1053600080E89FE30E94B5EA6CAF7DAF8EAF9FAF40
:1053700028A939A94AA95BA929873A874B875C875D
:105380008CA99DA9AEA9BFA98D879E87AF87B88B31
:105390000E9451719B01AC0128533F4F4F4F5F4F0B
:1053A0002C962CAF3DAF4EAF5FAF2C9748A059A0C5
:1053B0006AA07BA041E050E059AB48AB59E15CAB3F
:1053C00088A999A98215930508F00DC10E94AF5BC9
:1053D0000E945171DC01CB012C962CAD3DAD4EAD40
:1053E0005FAD2C97821B930BA40BB50BB7FD10C0C0
:1053F0000E9451719B01AC0128533F4F4F4F5F4FAB
:105400002C962CAF3DAF4EAF5FAF2C970E94A132D0
:105410003CA931503CAB3323E9F12CA13DA14EA175
:105420005FA16CAD7DAD8EAD9FAD0E9418E46B01A8
:105430007C019201A30168AD79AD8AAD9BAD0E945C
:1054400018E4A70196010E94B6EA7B018C01920143
:10545000A3016CAD7DAD8EAD9FAD0E9418E44B01F4
:105460005C012CA13DA14EA15FA168AD79AD8AADD3
:105470009BAD0E9418E49B01AC01C501B4010E94E0
:10548000B5EA2B013C01C701D8018CA39DA3AEA3B3
:10549000BFA34FC048A959A9BA0180E090E00E947B
:1054A000B7E32CA53DA54EA55FA50E9418E44B01CE
:1054B0005C010E94ABEB6B017C01C501B4010E9451
:1054C00056ED4B015C01A701960168A179A18AA163
:1054D0009BA10E9418E42B013C0128A539A54AA5EF
:1054E0005BA5C501B4010E9418E4A30192010E94CA
:1054F000B6EA2B013C01A501940168A179A18AA11A
:105500009BA10E9418E44B015C0128A539A54AA57E
:105510005BA5C701B6010E9418E49B01AC01C5015F
:10552000B4010E94B5EA6CA37DA38EA39FA359E1A9
:105530005CAB9201A30124966CAD7DAD8EAD9FADA9
:1055400024970E94B6EA69837A838B839C832CA17B
:105550003DA14EA15FA128966CAD7DAD8EAD9FADF6
:1055600028970E94B6EA6D837E838F839887609622
:105570002CAD3DAD4EAD5FAD609769857A858B856D
:105580009C850E94B6EA69877A878B879C87649698
:105590002CAD3DAD4EAD5FAD64976D857E858F853D
:1055A00098890E94B6EA6D877E878F87988BCE0197
:1055B00001960E94AA7A8E01045E1F4F9E01235F0E
:1055C0003F4FAE01475F5F4FBE016B5F7F4FCE0124
:1055D00001960E941154882331F088A999A9019657
:1055E00099AB88ABEDCE80E1E7EBFBE0DE011196F5
:1055F00001900D928A95E1F7CE0101960E94AA7A58
:105600008E01045E1F4F9E01235F3F4FAE01475F37
:105610005F4FBE016B5F7F4FCE0101960E94115418
:1056200080E1FE013196A3E8B3E001900D928A95E6
:10563000E1F70E94517160932413709325138093B6
:105640002613909327137DCB0E940F98109231025E
:105650000E94517160932413709325138093261335
:10566000909327138091000290910102A091020271
:10567000B09103028093D1029093D202A093D302FF
:10568000B093D40280914D0290914E029093D0023B
:105690008093CF0284E690E090934E0280934D0277
:1056A00081E0809392090E94177D8AE50E9414CEC2
:1056B000382E88E50E9414CE882E89E50E9414CEEB
:1056C0008812EFC0381411F0D82C06C0DD24D39412
:1056D000882483943324339482E50E9462CE882305
:1056E00069F00E94E1CD2B013C0120E030E0A901EE
:1056F0000E94B2E3882309F4A1C006C0412C512CBA
:1057000040EA642E40E4742E811003C0DD2009F4C9
:105710009FC020E030E0A901C301B2010E94B6EAB7
:105720007B018C0190908B03C0908C03B0908D0313
:10573000A0908E03292D3C2D4B2D5A2D0E94B2E3B3
:10574000409083035090840360908503709086039B
:1057500020918703309188034091890350918A03F7
:1057600028A339A34AA35BA320E030E048E453E434
:1057700087FD37C4B701C8010E94B2E387FD04C0AA
:10578000E12CF12C08E413E480E090E0A0E8B0E420
:105790008C8F9D8FAE8FBF8F89839A83AB83BC83A1
:1057A0009701A801692D7C2D8B2D9A2D0E94B2E3C3
:1057B00087FF0EC0C701D80180938B0390938C03A1
:1057C000A0938D03B0938E03CE014C960E944B7B29
:1057D0004092830350928403609285037092860303
:1057E00088A199A1AAA1BBA1809387039093880364
:1057F000A0938903B0938A03CE0101960E944B7B4C
:105800009701A80160918B0370918C0380918D03A7
:1058100090918E030E9416ED181674F4C701D801FA
:1058200080938B0390938C03A0938D03B0938E038E
:10583000CE014C960E944B7B0E940F98882019F055
:1058400080E00E949D7BDD2019F081E00E949D7B1D
:10585000332019F082E00E949D7B0E945B7B809147
:105860009109809392098091D1029091D202A091E6
:10587000D302B091D4028093000290930102A093CE
:105880000202B09303028091CF029091D0029093D4
:105890004E0280934D0283E080934A020E946E7C08
:1058A00050CAD82E19CF0E94A1320C946B1C1092B2
:1058B000A20B1093CE020E94D05443CA88E50E94E6
:1058C00014CE81115F9889E50E9414CE81118A98C7
:1058D0008AE50E9414CE882329F080910801817006
:1058E0008093060185E40E9414CE882309F429CA16
:1058F000129827CA60E089ED95E00E94DC815F98EC
:105900008A9880910801817080930601129819CAC3
:105910000E94A9CDAB01BC014093FB105093FC1039
:105920006093FD107093FE108FED9EE00E94B88B87
:1059300008CA83E50E9462CE882359F00E94E1CD17
:105940000E9422ECCB010E940C5761E080E00E9493
:10595000C6570E948997F5C983E50E9462CE8823C5
:1059600009F4EFC90E94E1CD0E9422EC6C38710568
:105970000CF48B011093E4080093E3080E94845513
:1059800061E080E00E94C657DCC983E50E9462CED8
:1059900088A3811106C082E50E9462CE882309F4A3
:1059A000D0C90E94E1CD0E9422EC6C3871050CF048
:1059B0009EC1962F872F9093E3088093E4080E945E
:1059C000845560E081E00E94C6576091E3087091C1
:1059D000E408072E000C880B990B0E94B9E3209174
:1059E000DF083091E0084091E1085091E2080E9400
:1059F00016ED18161CF486EC96E002C084EB96E0D7
:105A000060E00E94DC8181E08093210218A619A643
:105A10001AA61BA628961CAE1DAE1EAE1FAE28975A
:105A20001CAEFCE32996FFAF29972CE12D962FAFF2
:105A30002D9736E461963FAF6197C12CD12CB0E829
:105A4000EB2E1FEBF12E1CA241E048AF812C912CD4
:105A500054016091E3087091E408072E000C880B54
:105A6000990B0E94B9E3162F072F782E692E960105
:105A7000A7010E94B2E3882331F12091DF08309121
:105A8000E0084091E1085091E20888A1612F702F51
:105A9000811109C0872D962D0E94B2E3881F8827A7
:105AA000881F8CA316C0872D962D0E94B2E387FF16
:105AB0000FC080912102882309F443C9109221026A
:105AC0000E94D0543EC91C2D0D2D7E2C6F2C01C080
:105AD0001CA20E9451716B017C01DC01CB01289654
