:100000000C94B91A0C94EA1A0C94EA1A0C94EA1A91
:100010000C94EA1A0C94EA1A0C94EA1A0C94EA1A50
:100020000C94EA1A0C94EA1A0C94EA1A0C94EA1A40
:100030000C94EA1A0C94EA1A0C94EA1A0C94EA1A30
:100040000C94EA1A0D945C040C94EA1A0C94EA1AC3
:100050000C94EA1A0C94EA1A0C946DC80D94990A3F
:100060000C94EA1A0C94EA390C94E0390C94EA1ACC
:100070000C94EA1A0C94EA1A0C94EA1A0C94EA1AF0
:100080000C94CF320C94EA1A0C94EA1A0C94EA1AE3
:100090000C94EA1A0C94EA1A0C94EA1A0C94EA1AD0
:1000A0000C94EA1A0C94EA1A0C94A1320C94EA1AF1
:1000B0000C94EA1A0C94EA1A0C94EA1A0C94EA1AB0
:1000C0000C94EA1A0C94EA1A0C94EA1A0C94EA1AA0
:1000D0000C94EA1A0C94EA1A0C94EA1A0C94EA1A90
:1000E0000C94EA1A0E371337183722372C37A537F6
:1000F00036373E37463750375A37643773377D3790
:10010000A537873791379B3751DAC0D8F9D88DDAC0
:10011000F9D8F9D8F9D8F9D8F9D8F9D8F9D8F9D857
:10012000F9D8F9D8F9D8F9D8F9D8F9D8F9D8F9D847
:10013000F9D8F9D8F9D8F9D8F9D8F9D8F9D8F9D837
:10014000F9D8F9D887DAF9D8F9D8F9D8F9D8F9D897
:10015000F9D8F9D8F9D860DAF9D8F9D8F9D8F9D8AE
:10016000F9D8F9D8F9D8F9D8F9D8F9D8A4DAF6D85D
:10017000A0011A0114021602F201F00062018C01C2
:100180003E012E01020160012E020602F000320241
:1001900050016A01084AD73B3BCE016E84BCBFFDCB
:1001A000C12F3D6C74319ABD56833DDA3D00C77F47
:1001B00011BED9E4BB4C3E916BAAAABE00000080E0
:1001C0003F05A84CCDB2D44EB93836A9020C50B96F
:1001D000918688083CA6AAAA2ABE000000803F009B
:1001E0000D943E0A0C94F0560C9480E40C94AC5D93
:1001F0000C94AC8F0C947A740C94DFE40C9460DA59
:100200000C9499590D941D0A0C94624F0C94A9E416
:100210000C9464560C94434F0C948DDA0C944470F7
:100220000C9450700C94235D0C94BE560C944B5659
:100230000C94FAE40D94070A0C940E370C949B3737
:100240000C94D1510C94C0D80C942C370C94A85910
:100250000D94D5000C94C64E0C9432560D94190A88
:100260000C944BDE0C94834F0C9428700D949214D4
:100270000C94E2C10C9491370C94FC710D94150A06
:100280000C943B700C94E85C0C9449DE0C94B9FF20
:100290000C9486650C9419560C94683F0C94A4DA5F
:1002A0000D94350A0C9449590C9455590C9452EA02
:1002B0000C94205D0C9487DA0C944CE10C94D6518C
:1002C0000D94230A0D940B0A0C94DB510C9434E525
:1002D0000C94874E0D94390A0C9408730C9473593E
:1002E0000C9461590C94D7560C9479590C944F592D
:1002F0000C944AE10D9423000C9451DA0C9415E50A
:100300000C942A410C94A2710C9418370C945175DA
:100310000C9475E80C9434520D940F0A0C940570EB
:100320000C94344F0C9440E50C9448D80C945A37F4
:100330000C9445D80C944A5D0C9467590C94E05188
:100340000D94040A0C94D94E0C94313A0C94133742
:100350000C943E370D941F000C94FF560C945037AC
:100360000C94174F0C9464370C9436370D94A700F7
:100370000C9448E10C947D560C94C4E40C943AE53A
:100380000C948EE40C94C6590C94F9D80C9444E166
:100390000C94165D0C94AC710C94814F0C94463700
:1003A0000C94394F0C94A6710C94808F0C94A53743
:1003B0000C9421E50C94AB560C94A4710C947D37ED
:1003C0000C948A590C9422370D9427000C943C52BB
:1003D0000C94F6D80C94E14E0C947F590C941F5D4C
:1003E0000C944FDE0D94FE090C9408570C9450D8D1
:1003F0000C9446E10C944F3B0C941A5B0C94AEE6C3
:100400000C94B7590C94EC530C94EFCA0D942B0A2E
:100410000D940A000C94B8DF0C9473370C941D4FA4
:100420000C94B0650C94075D0D94F6090D94FA09CF
:100430000C94234F0C945B590C9487370C944DDE2D
:100440000C9498560C9467E40D940E000C94294F6C
:100450000C9447DE0C943E4F0C946D590D94270A72
:100460000C9442D80D94310A0C942F4F0D945F14C4
:100470000C94065A0C94F5714E414E494E4954590C
:10048000494E46CDCCCC3D0AD7233C17B7D138775F
:10049000CC2B329595E6241FB14F0A000020410075
:1004A00000C84200401C4620BCBE4CCA1B0E5AAEBF
:1004B000C59D7400407A10F35A00A0724E180900CE
:1004C00010A5D4E80000E87648170000E40B5402B9
:1004D0000000CA9A3B000000E1F5050000809698F4
:1004E00000000040420F000000A086010000001044
:1004F0002700000000E80300000000640000000086
:10050000000A00000000000100000000002C76D866
:1005100088DC674F0823DFC1DFAE59E1B1B796E54C
:10052000E3E453C63AE651997696E8E6C28426EBB0
:10053000898C9B62ED407C6FFCEFBC9C9F40F2BAC3
:10054000A56FA5F490055A2AF75C936B6CF9676D5B
:10055000C11BFCE0E40D47FEF520E6B500D0ED90B0
:100560002E0300943577050080841E080000204E7D
:100570000A000000C80C333333330F986E12831116
:1005800041EF8D2114893BE65516CFFEE6DB18D1ED
:10059000844B381BF77C1D901DA4BBE424203284BF
:1005A000725E228100C9F124ECA1E53D27434F4D45
:1005B0004D554E49434154494F4E004452595255AE
:1005C0004E004552524F525300494E464F0045434C
:1005D000484F0047322F47332062616420706172B8
:1005E000616D65746572730A00446F726D696E6443
:1005F0006F2E2E2E005A2050726F6265205061734C
:1006000074204265640A00536F6E646120666F72E5
:1006100061206461206D657361004D6573682070B1
:100620006F696E74206F7574206F662072616E67DB
:10063000650A00436C697175652070617261207292
:1006400065746F6D61720053656D206D6F76696DB5
:10065000656E746F00456E642066696C65206C6918
:1006600073740A00426567696E2066696C65206C68
:100670006973740A004E6F206D656469610A002811
:100680006E6F2066696C65290043757272656E74C1
:100690002066696C653A20005344207072696E745C
:1006A000696E67206279746520004E6F7420534430
:1006B000207072696E74696E670A0044656C6574B7
:1006C000696F6E206661696C65642C2046696C6593
:1006D0003A200046696C652064656C657465643A0F
:1006E0000025697920256964202569682025696DC0
:1006F00020256973005072696E742074696D653AC3
:100700002000526573667269616E646F2E2E2E0032
:100710004171756563656E646F2E2E2E0045202530
:1007200053006F66660044454255473A004D3131EB
:10073000322053687574646F776E004D3131332009
:1007400053004573667269616E646F206D657361F5
:100750002E2E2E004171756563656E646F206D6588
:1007600073612E2E2E00526F626F74204F46462EFC
:10077000004348414D4245525F54454D504552411A
:100780005455524500424142595354455050494EE8
:10079000470041524353004D4F54494F4E5F4D4F18
:1007A00044455300544845524D414C5F50524F54BC
:1007B000454354494F4E004C4F4E475F46494C45C8
:1007C0004E414D45004155544F5245504F52545F94
:1007D00053445F535441545553005344434152448E
:1007E0000050524F4D50545F535550504F5254008B
:1007F000454D455247454E43595F5041525345522E
:1008000000434153455F4C494748545F4252494772
:1008100048544E45535300544F47474C455F4C494D
:100820004748545300534F4654574152455F504F29
:10083000574552004255494C445F50455243454E3E
:1008400054004C4556454C494E475F444154410085
:100850005A5F50524F42450052554E4F5554004139
:1008600055544F4C4556454C005052494E545F4AE2
:100870004F420050524F4752455353004155544F39
:100880005245504F52545F54454D5000564F4C55B1
:100890004D45545249430042494E4152595F4649E1
:1008A0004C455F5452414E534645520053455249C0
:1008B000414C5F584F4E5F584F4646004649524D97
:1008C000574152455F4E414D453A4D61726C696EDC
:1008D00020322E302E372E322028417072203138AF
:1008E00020323032312031373A31353A333729200E
:1008F000534F555243455F434F44455F55524C3A21
:1009000068747470733A2F2F6769746875622E6308
:100910006F6D2F4D61726C696E4669726D77617291
:10092000652F4D61726C696E2050524F544F434F8A
:100930004C5F56455253494F4E3A312E30204D416F
:100940004348494E455F545950453A526F626F745F
:100950002045585452554445525F434F554E543AE2
:100960003120555549443A63656465326132662DDC
:10097000343161322D343734382D396231322D63C0
:1009800035356336326633363766660A002F2F20D8
:10099000004D31343520533C696E6465783E206FDC
:1009A0007574206F662072616E67652028302D3166
:1009B000290A00416363656C65726174696F6E3A00
:1009C0002050005741524E494E4721204C6F77200E
:1009D0005A204A65726B206D6179206C65616420D4
:1009E000746F20756E77616E7465642070617573C5
:1009F00065732E0A0046523A0020466C6F773A2003
:100A00000020536572766F200020643A0020693A16
:100A10000020703A006469730043290A0061626C27
:100A2000656420286D696E2074656D702000436FC9
:100A30006C642065787472756465732061726520DA
:100A4000004D34323120696E636F727265637420B9
:100A5000706172616D657465722075736167650A96
:100A600000416C74657261C3A7C3A36F2061706C91
:100A70006963616461004572723A20546F6F206649
:100A800061722100546F6F206661722066726F6D13
:100A9000207265666572656E636520706F696E743D
:100AA0000A00454550524F4D204F4B0A00446F6E8F
:100AB00065207072696E74696E672066696C650A7C
:100AC000004D3737004D333100CE05C905C205BB97
:100AD00005AD054572726F722077726974696E6731
:100AE00020746F20454550524F4D210A004D34313E
:100AF00030004D313132004D313038004E6F2043DF
:100B00006865636B73756D2077697468206C696EB6
:100B100065206E756D6265722C204C617374204C7B
:100B2000696E653A2000636865636B73756D206D4F
:100B300069736D617463682C204C617374204C6917
:100B40006E653A20004C696E65204E756D62657267
:100B5000206973206E6F74204C617374204C696E31
:100B600065204E756D6265722B312C204C6173745B
:100B7000204C696E653A20004D31313000534420DD
:100B800072656164206572726F720A002121204BC8
:100B9000494C4C20636175736564206279204B4930
:100BA0004C4C20627574746F6E2F70696E0A002150
:100BB00021204B494C4C2063617573656420627938
:100BC00020746F6F206D75636820696E616374694E
:100BD00076652074696D65202D2063757272656E6F
:100BE0007420636F6D6D616E643A20006275737975
:100BF0003A2070617573656420666F7220696E704B
:100C000075740A00627573793A2070617573656452
:100C100020666F7220757365720A00627573793A87
:100C20002070726F63657373696E670A0043617247
:100C300074C3A36F2072656D6F7669646F00436142
:100C40007274C3A36F20696E73657269646F004626
:100C500061766F72207265736574617200494D50E0
:100C6000524553534F5241205041524F5500255346
:100C70003A202553005041524144412044452045EB
:100C80004D455247C38A4E434941005072696E74C4
:100C900065722068616C7465642E206B696C6C28C9
:100CA000292063616C6C6564210A004469C3A26DEC
:100CB0006574726F2046696C2E0045787472757386
:100CC000C3A36F20656D206D6DC2B3002008204660
:100CD00061746F72002008204DC3A17800200820A5
:100CE0004D696E0054656D702E204175746F6DC333
:100CF000A17469636100564465736C6F63616D65CF
:100D00006E746F206D696E00566D696E00566D6170
:100D100078204500566D6178205A00566D61782024
:100D20005900566D61782058004F46460A004661CA
:100D30006465204865696768742000426564204CDA
:100D40006576656C696E6720004661696C65642034
:100D5000746F20656E61626C6520426564204C652D
:100D600076656C696E670A00496E76616C6964200D
:100D70006D6573682E0A00536F6E64616E646F2038
:100D8000706F6E746F0025532025692F2569005000
:100D9000726F62696E67206D65736820706F696E2F
:100DA000742000202844525952554E2900473239A8
:100DB000204175746F20426564204C6576656C69CE
:100DC0006E67003F20284C2C522C462C4229206F65
:100DD0007574206F6620626F756E64732E0A003F13
:100DE0002856296572626F7365206C6576656C2084
:100DF000696D706C61757369626C652028302D3483
:100E0000292E0A00426164205A2076616C75650AB9
:100E1000004E6F2062696C696E656172206772694D
:100E2000640A00204D393220580020204D61783A64
:100E3000200020204D696E3A2000536F66742065B3
:100E40006E6473746F70733A200020496E76616C23
:100E50006964206578747275646572200043616E00
:100E600063656C617200566F6C74617200506172E0
:100E700061720054726F636172205344004D3231CD
:100E800000436F6E74696E75617220696D70726572
:100E90007373C3A36F00416A75737461720050610C
:100EA00072617220696D7072657373C3A36F0050B5
:100EB000617573617220696D7072657373C3A36F1E
:100EC0000053656D2063617274C3A36F20534400A7
:100ED000496E666F726D61C3A7C3B5657300496ED5
:100EE000696369617220496D7072657373C3A36F22
:100EF00000496D7072696D69720043616E6E6F7446
:100F000020656E746572207375626469723A2000A0
:100F1000022E2E004578747275732E206D746F202A
:100F20006672696100436F6E74696E756172004428
:100F300065736C696761646F004C696761646F0019
:100F4000452F6D6D00506173736F205A2F6D6D00CA
:100F5000506173736F20592F6D6D00506173736F03
:100F600020582F6D6D00496E6963696172004D34C0
:100F700032380046696C616D656E746F0050617344
:100F8000736F2F6D6D00436F6D70656E73617220AE
:100F9000536F6E646100417272616E6361646100DF
:100FA0004163656C657261C3A7C3A36F00436F6D36
:100FB00070656E736172206F726967656D0053753D
:100FC0006176697A617220616C74757261004E6934
:100FD00076656C6172204D657361004732380A474F
:100FE00032390023646566696E6520444546415583
:100FF0004C545F004B6420004B6920004B70200074
:10100000504944204175746F74756E652066696E31
:101010006973686564212050757420746865206C5C
:10102000617374204B702C204B6920616E64204BDF
:101030006420636F6E7374616E74732066726F6D7B
:101040002062656C6F7720696E746F20436F6E66E7
:10105000696775726174696F6E2E680A0050494441
:10106000204175746F74756E65206661696C656486
:10107000212074696D656F75740A000A20436C61E4
:101080007373696320504944200A00204B643A205E
:1010900000204B693A2000204B703A200020547504
:1010A0003A2000204B753A2000206D61783A2000EC
:1010B000206D696E3A200020643A20002062696148
:1010C000733A2000504944204175746F74756E6501
:1010D0002073746172740A00504944204175746F22
:1010E00074756E65206661696C6564212054656D58
:1010F000706572617475726520746F6F20686967BE
:10110000680A00504944204175746F74756E65001B
:10111000504944204175746F74756E65206661692D
:101120006C65642120426164206578747275646521
:1011300072206E756D6265720A004572723A207592
:1011400074663820666F6E74206E6F7420696E69E5
:101150007469616C697A65642E00000C0F00FE07EB
:10116000022503BB01FFFE0AFE08FE050808060073
:101170000040F0C88888987810050808060000C06C
:10118000F88888888888F80505050600012030F869
:1011900030200508080600002070F820202020E0FC
:1011A0000509090600FF2070A8A8B88888702007E4
:1011B0000505070001D86C366CD80509090600FF43
:1011C000F8A88888888888A8F8050A0A0600FE20FA
:1011D0005050505088A8A8887003030306000340AD
:1011E000A040FFFFFFFFFFFFFFFFFFFFFFFFFFFF2D
:1011F000FFFFFFFFFFFFFFFF0000000605FF0107E5
:1012000007060200808080808000800303030601BF
:1012100005A0A0A005060606000050F85050F850A2
:101220000509090600FF2070A8A07028A8702005F5
:101230000707060000C8C810204098980507070651
:10124000000040A0A040A8906801030306020580AA
:1012500080800309090601FF2040408080804040D3
:10126000200309090601FF804040202020404080E3
:1012700005070706000020A8702070A820050505B6
:101280000600012020F820200203030601FFC040D1
:1012900080050101060003F8020202060100C0C039
:1012A00005070706000008101020404080050707CA
:1012B000060000708898A8C8887003070706010018
:1012C00040C040404040E005070706000070880825
:1012D000102040F8050707060000F80810300888BD
:1012E0007005070706000010305090F81010050731
:1012F00007060000F880F008088870050707060058
:1013000000304080F0888870050707060000F80864
:1013100010102020200507070600007088887088BC
:10132000887005070706000070888878081060023A
:101330000505060100C0C000C0C00206060601FF88
:10134000C0C000C040800305050601012040804068
:1013500020050303060002F800F803050506010155
:10136000804020408005070706000070881020207C
:1013700000200507070600007088B8A8B88070052F
:101380000707060000708888F88888880507070620
:101390000000F04848704848F00507070600007054
:1013A000888080808870050707060000F04848485C
:1013B0004848F0050707060000F88080F08080F8B4
:1013C000050707060000F88080F080808005070789
:1013D0000600007088808098887005070706000066
:1013E000888888F8888888030707060100E040405D
:1013F000404040E00507070600003810101010902C
:10140000600507070600008890A0C0A09088050727
:1014100007060000808080808080F80507070600AE
:101420000088D8A88888888805070706000088886B
:10143000C8A89888880507070600007088888888EB
:101440008870050707060000F08888F08080800516
:10145000070706000070888888A8906805070706B7
:101460000000F08888F0A09088050707060000704B
:10147000888070088870050707060000F820202083
:101480002020200507070600008888888888887043
:101490000507070600008888888850502005070740
:1014A00006000088888888A8A8500507070600005D
:1014B00088885020508888050707060000888850D3
:1014C00020202020050707060000F8081020408093
:1014D000F80309090601FFE080808080808080E0B9
:1014E0000507070600008040402010100803090986
:1014F0000601FFE020202020202020E00503030635
:1015000000052050880501010600FEF803030306CC
:1015100001058040200505050600007008788878E0
:101520000507070600008080F0888888F00505051B
:101530000600007080808870050707060000080814
:1015400078888888780505050600007088F0807026
:10155000050707060000304840E040404005070707
:101560000600FE7088888878087005070706000066
:101570008080F0888888880307070601004000C043
:10158000404040E00409090601FE10003010101030
:1015900010906005070706000080808890E0908822
:1015A000030707060100C04040404040E005050534
:1015B000060000D0A8A8A8A8050505060000B0C828
:1015C00088888805050506000070888888700507EA
:1015D000070600FEF0888888F0808005070706006F
:1015E000FE78888888780808050505060000B0C8D8
:1015F00080808005050506000078807008F00507EA
:10160000070600002020F820202018050505060008
:101610000088888898680505050600008888885035
:10162000200505050600008888A8A85005050506C0
:10163000000088502050880507070600FE8888882B
:1016400050204080050505060000F8102040F803F2
:1016500009090601FF204040408040404020010928
:10166000090602FF808080808080808080030909D5
:101670000601FF80404040204040408005030306B3
:10168000000248A890FFFFFFFFFFFFFFFFFFFFFFE3
:10169000FFFFFFFFFFFFFFFFFFFFFFFFFFFFFFFF5A
:1016A000FFFFFFFFFFFF0000000605FF0107070621
:1016B0000200800080808080800507070600FF20F0
:1016C00070A8A0A87020050707060000304840E079
:1016D0004048B0050505060000A8508850A8050739
:1016E000070600008850F820F820200107070602AE
:1016F00000808080008080800408080601007080DF
:101700006090906010E0030101060107A006070742
:101710000600007884B4A4B48478030505060104A7
:1017200060A06000E00505050600002850A05028D4
:10173000050303060001F80808030101060103E0A0
:101740000607070600007884B4A4A4847805010184
:10175000060007F804040406010560909060050780
:10176000070600002020F8202000F80305050601E8
:101770000440A02040E0030505060104C0204020ED
:10178000C00303030601052040800507070600FE8D
:1017900088888898E8808005080806000078E8E8CE
:1017A000E868282828020202060203C0C0030202D9
:1017B0000601FE20C003050506010440C04040E0CC
:1017C00003050506010540A04000E00505050600EB
:1017D00000A0502850A0050A0A06000040C048504A
:1017E0006050B0507810050A0A06000040C048500A
:1017F0006050A8081038050A0A060000C0204830CA
:10180000E050B050781005070706000020002020A7
:10181000408870050A0A060000402000708888F899
:10182000888888050A0A060000102000708888F859
:10183000888888050A0A060000205000708888F809
:10184000888888050A0A06000068B000708888F851
:101850008888880509090600005000708888F88883
:101860008888050A0A060000205020708888F888B9
:10187000888805070706000078A0A0F0A0A0B8059A
:1018800009090600FE708880808088701060050A53
:101890000A060000402000F88080F08080F8050AE9
:1018A0000A060000102000F88080F08080F8050A09
:1018B0000A060000205000F88080F08080F80509BA
:1018C000090600005000F88080F08080F8030A0AC2
:1018D000060100804000E04040404040E0030A0A2A
:1018E000060100204000E04040404040E0030A0A7A
:1018F00006010040A000E04040404040E0030909EC
:10190000060100A000E04040404040E00507070617
:101910000000704848E8484870050A0A0600006858
:10192000B0008888C8A8988888050A0A0600004080
:10193000200070888888888870050A0A06000010D0
:10194000200070888888888870050A0A06000020B0
:10195000500070888888888870050A0A0600006828
:10196000B0007088888888887005090906000050D2
:1019700000708888888888700505050600018850F1
:101980002050880509090600FF087098A8A8A8C873
:101990007080050A0A060000402000888888888830
:1019A0008870050A0A060000102000888888888848
:1019B0008870050A0A0600002050008888888888F8
:1019C0008870050909060000500088888888888882
:1019D00070050A0A06000010200088885020202088
:1019E0002004070706010080E0909090E080050742
:1019F00007060000708890A09088B00508080600CF
:101A0000004020007008788878050808060000105B
:101A1000200070087888780508080600002050002B
:101A2000700878887805080806000068B00070081B
:101A300078887805070706000050007008788878D5
:101A400005080806000020502070087888780505F1
:101A500005060000702870A0780507070600FE70D4
:101A6000888088701060050808060000402000701B
:101A700088F080700508080600001020007088F0CB
:101A800080700508080600002050007088F0807003
:101A900005070706000050007088F08070030808F2
:101AA000060100804000C0404040E00308080601F5
:101AB00000204000C0404040E0030808060100400C
:101AC000A000C0404040E0030707060100A000C09E
:101AD000404040E005090906000050205008788881
:101AE00088887005080806000068B000B0C88888BB
:101AF0008805080806000040200070888888700566
:101B00000808060000102000708888887005080802
:101B100006000020500070888888700508080600BC
:101B20000068B000708888887005070706000050BC
:101B30000070888888700505050600012000F800FF
:101B4000200505050600007898A8C8F005080806D5
:101B5000000040200088888888700508080600007A
:101B6000102000888888887005080806000020502A
:101B7000008888888870050707060000500088885C
:101B8000888870050A0A0600FE10200088888850A0
:101B90002040800509090600FE8080F0888888F0D2
:101BA00080800509090600FE500088888850204082
:101BB000801000C90210012C01400122017001189F
:101BC00001B0010E01F00104015002FA00B002F070
:101BD000003003E600D003DC009004D2007005C89A
:101BE00000A006BE000008B400B009AA00D00BA0F7
:101BF00000600E960060118C00001582002019789C
:101C000000C01D6E00A0226400B0275A00902C5026
:101C10000000314600E0343C0010383200903A2891
:101C200000603C1E00A03D1400803E0A00203F00E2
:101C3000002020506C616E6E65724275666665723A
:101C400042797465733A20002046726565204D65BF
:101C50006D6F72793A2000436F6D70696C65643AFC
:101C60002041707220313820323032310A00204C4D
:101C700061737420557064617465643A2032303247
:101C8000302D31302D3135207C20417574686F72D4
:101C90003A20286E6F6E652C2064656661756C74E1
:101CA00020636F6E666967290A00322E302E372E48
:101CB000320A004D61726C696E0020536F66747752
:101CC0006172652052657365740A00205761746300
:101CD00068646F672052657365740A002042726FF2
:101CE000776E206F75742052657365740A00204505
:101CF000787465726E616C2052657365740A005069
:101D00006F77657255700A006175746F25632E6771
:101D1000004732385859004D313030310065727209
:101D20006F722077726974696E6720746F206669BC
:101D30006C650A00446F6E6520736176696E67207A
:101D400066696C652E0A004D32390046696E732053
:101D5000646520637572736F002553202563202509
:101D60006320256320256300656E6473746F707350
:101D7000206869743A20006F70656E0054524947BC
:101D80004745524544007A5F6D696E00795F6D6921
:101D90006E00785F6D696E005265706F7274696E67
:101DA0006720656E6473746F7020737461747573EB
:101DB0000A00486F6D6520257325732573205072C6
:101DC000696D6569726F0046616C686120616F20A2
:101DD000697220C3A0206F726967656D004D6F76D0
:101DE000696D656E746F004D3834004E6976656CB0
:101DF00061C3A7C3A36F204D657361004972206161
:101E0000206F726967656D2058595A0054656D706E
:101E1000657261747572610041425300504C41001B
:101E200056656C2E2056656E746F696E686100424F
:101E30006F63616C0056656C6F6369646164650013
:101E40004D656E75207072696E636970616C0044D7
:101E500065736162696C69742E206D6F746F726551
:101E60007300473238004578747275736F72612061
:101E700024005072652D61712E4D65736120240020
:101E800045736672696172005072652D6171756586
:101E900063657220240056617AC3A36F001C1E186C
:101EA0001E53657474696E67732053746F72656432
:101EB000002062797465733B206372632000536570
:101EC0007474696E67732053746F726564202800A0
:101ED000454550524F4D206461746173697A6520A5
:101EE0006572726F722E0A002073746F72656420BF
:101EF00073657474696E6773207265747269657650
:101F00006564202800202863616C63756C617465CA
:101F10006429210A0020213D2000454550524F4DA3
:101F200020435243206D69736D61746368202D20D6
:101F30002873746F726564292000496E6465783A6D
:101F4000200044494749504F5453204C6F61646509
:101F5000640A0044494749504F5453204C6F616410
:101F6000696E670A00204D61726C696E3D563832A9
:101F7000290A00454550524F4D2076657273696FAE
:101F80006E206D69736D61746368202845455052F9
:101F90004F4D3D00496D7072657373C3A36F205040
:101FA0006175736164610020746F6F206C6F6E6780
:101FB00020657874727573696F6E207072657665CE
:101FC0006E7465640A0020636F6C642065787472B7
:101FD0007573696F6E2070726576656E7465640ADC
:101FE00000220A00556E6B6E6F776E20636F6D6D09
:101FF000616E643A202200526F626F742070726FBB
:102000006E746F2E00496D7072696D696E646F2E0B
:102010002E2E0020453A00205A3A0020593A00203E
:1020200053697A653A200043616E6E6F74206F7059
:10203000656E207375626469722000534420496E96
:102040006974204661696C005344206361726420A6
:102050006F6B0A006F70656E526F6F7420666169F6
:102060006C65640A00766F6C756D652E696E6974B7
:10207000206661696C65640A004E6F2053442063DA
:102080006172640A004D3234004D323320257300F2
:102090006F70656E206661696C65642C2046696CA2
:1020A000653A200046696C652073656C65637465EC
:1020B000640A0046696C65206F70656E65643A203D
:1020C00000454E4420535542524F5554494E450AFF
:1020D000002220706F73002220706172656E743A66
:1020E0002200535542524F5554494E452043414CCE
:1020F0004C207461726765743A22005375626361A3
:102100006C6C204F766572666C6F770045786365FE
:1021100065646564206D617820535542524F555473
:10212000494E452064657074683A310A00577269F7
:1021300074696E6720746F2066696C653A2000666A
:102140007265736800646F696E67004E6F77200078
:102150006563686F3A004572726F723A0042696C4B
:10216000696E656172204C6576656C696E672047A3
:102170007269643A0A005041524F552E2000507245
:10218000696E7465722073746F7070656420647515
:102190006520746F206572726F72732E20466978A5
:1021A00020746865206572726F7220616E6420759C
:1021B0007365204D39393920746F207265737461ED
:1021C00072742E202854656D706572617475726525
:1021D0002069732072657365742E205365742069BD
:1021E00074206166746572207265737461727469BB
:1021F0006E67290A0021212053544F502063616CDF
:102200006C65642062656361757365206F6620424A
:102210004C546F756368206572726F72202D207246
:102220006573746172742077697468204D39393927
:102230000A004732362043616E63656C61646F004B
:10224000473236204171756563656E646F2045784D
:10225000742E00473236204171756563656E646F78
:10226000204D6573610057616974696E6720666F00
:1022700072206865617475702E0A0046697865641D
:10228000204C656E677468205072696D6500446FFC
:102290006E65205072696D696E67004D616E756183
:1022A0006C207072696D696E672E2E2E0047323673
:1022B000205361696E646F003F537065636966699E
:1022C000656420582C5920636F6F7264696E617465
:1022D00065206F7574206F6620626F756E64732E53
:1022E0000A003F28522965706561742076616C751B
:1022F00065206E6F7420706C61757369626C653BEC
:10230000206D757374206265206174206C65617343
:102310007420312E0A003F537065636966696564F5
:10232000206E6F7A7A6C652074656D706572617469
:10233000757265206E6F7420706C61757369626C64
:10234000652E0A003F53706563696669656420669F
:10235000696C616D656E742073697A65206E6F7447
:1023600020706C61757369626C652E0A003F537052
:1023700065636966696564207072696D65206C6566
:102380006E677468206E6F7420706C61757369621B
:102390006C652E0A003F5370656369666965642049
:1023A0006E6F7A7A6C652073697A65206E6F74201F
:1023B000706C61757369626C652E0A003F526574BA
:1023C00072616374696F6E204D756C7469706C69AD
:1023D0006572206D75737420626520737065636922
:1023E000666965642E0A003F5370656369666965B6
:1023F000642052657472616374696F6E204D756CF0
:102400007469706C696572206E6F7420706C617590
:102410007369626C652E0A003F5370656369666973
:102420006564206C617965722068656967687420ED
:102430006E6F7420706C61757369626C652E0A0032
:1024400043292E0A003F53706563696669656420FD
:102450006265642074656D70657261747572652063
:102460006E6F7420706C61757369626C65202834BE
:10247000302D00473236207374617274696E672E96
:102480002E2E0A0020436F756E7420583A00453195
:1024900000626564002C2073797374656D20737419
:1024A0006F7070656421204865617465725F49448E
:1024B0003A20004171756563696D656E746F2066C1
:1024C000616C686F750048656174696E672066614C
:1024D000696C65640024F4D43050C38E20C2A240DD
:1024E00017828B7011127A910D816CD90AA861E163
:1024F00008C7586607615143061E4B5D05C145A7D5
:10250000041A411104093D9803713931034036DB47
:102510000265339102D4305402802E1D02632CEEEA
:1025200001752AC501B028A001102781018F2564FB
:10253000012B244B01E0223401AC211F018D200D21
:1025400001801FFC00841EED00971DDF00B81CD227
:1025500000E61BC600201BBC00641AB200B219A81A
:10256000000A19A0006A189900D117910040178B32
:1025700000B516840031167E00B31579003A157344
:1025800000C7146F0058146A00EE136600881363C6
:102590000025135E00C7125B006C12570015125421
:1025A00000C111510070114F0021114B00D610498C
:1025B000008D1047004610440002104200C00F403A
:1025C00000800F3E00420F3C00060F3B00CB0E3850
:1025D00000930E37005C0E3500270E3400F30D32E9
:1025E00000C10D3100900D3000600D2E00320D2D18
:1025F00000050D2C00D90C2B00AE0C2900850C29F0
:10260000005C0C2700350C27000E0C2600E80B247C
:1026100000C40B2400A00B23007D0B23005A0B21C8
:1026200000390B2100180B2000F80A1F00D90A1EE0
:1026300000BB0A1E009D0A1D00800A1D00630A1CC3
:1026400000470A1B002C0A1B00110A1A00F7091A7E
:1026500000DD091900C4091900AB09190092091716
:10266000007B091800630917004C0916003609168B
:1026700000200916000A091500F5081500E00814E5
:1026800000CC081400B8081400A408140090081323
:10269000007D0812006B081300580812004608124B
:1026A000003408110023081100120811000108115C
:1026B00000F0071000E0071000D0071000C007105E
:1026C00000B0070F00A107100091070E0083070F4D
:1026D0000074070F0065070E0057070E0049070E2C
:1026E000003B070D002E070E0020070D0013070DFD
:1026F0000006070D00F9060C00ED060D00E0060CC3
:1027000000D4060C00C8060C00BC060C00B0060C79
:1027100000A4060B0099060C008D060B0082060B28
:102720000077060B006C060B0061060A0057060BCB
:10273000004C060A0042060A0038060A002E060A65
:102740000024060A001A060A001006090007060AF5
:1027500000FD050900F4050900EB050900E2050983
:1027600000D9050900D0050900C7050900BE050903
:1027700000B5050800AD050800A50509009C050881
:1027800000940508008C050800840508007C0508F5
:1027900000740508006C050700650508005D050765
:1027A00000560508004E05070047050700400508CC
:1027B0000038050700310507002A05070023050733
:1027C000001C050600160507000F05070008050692
:1027D0000002050700FB040600F5040700EE0406EE
:1027E00000E8040600E2040700DB040600D5040646
:1027F00000CF040600C9040600C3040600BD040699
:1028000000B7040600B1040500AC040600A60406E7
:1028100000A00405009B0406009504050090040632
:10282000008A04050085040500800406007A04057A
:102830000075040500700405006B040500660405BE
:1028400000610405005C04050057040500520405FE
:10285000004D04050048040500430405003E04043F
:10286000003A04050035040500300404002C04057A
:102870000027040400230405001E0404001A0404B5
:102880000016040500110404000D040400090405E9
:10289000000404040000040400FC030400F8030422
:1028A00000F4030400F0030400EC030400E8030454
:1028B00000E4030400E0030400DC030400D8030484
:1028C00000D4030400D0030400CC030400C80303B5
:1028D00000C503030024F404D9201BC40C5C0E982B
:1028E00004C4095F0265077101F405F900FB04B334
:1028F0000048048700C103690058035500030345DD
:1029000000BE023A008402310053022A0029022547
:102910000004022000E4011C00C8011900AF0117E7
:10292000009801140084011300710110006101106E
:102930000051010E0043010D0036010B002B010B6D
:102940000020010B00150109000C0109000301081A
:1029500000FB000800F3000800EB000700E400069D
:1029600000DE000600D8000600D2000600CC0005FC
:1029700000C7000500C2000500BD000400B9000446
:1029800000B5000400B1000400AD000400A900047B
:1029900000A5000300A20003009F0004009B0003A9
:1029A00000980003009500020093000300900003CC
:1029B000008D0002008B00030088000200860002E8
:1029C0000084000300810002007F0002007D0002FD
:1029D000007B00020079000200770001007600020F
:1029E000007400020072000100710002006F00021A
:1029F000006D0001006C0002006A00010069000225
:102A0000006700010066000100650001006400022B
:102A1000006200010061000100600001005F00022F
:102A2000005D0001005C0001005B0001005A000134
:102A30000059000100580001005700010056000134
:102A40000055000100540001005300000053000134
:102A5000005200010051000100500001004F000130
:102A6000004E0000004E0001004D0001004C00012E
:102A7000004B0000004B0001004A0001004900012A
:102A80000048000000480001004700010046000027
:102A9000004600010045000000450001004400011F
:102AA000004300000043000100420000004200011A
:102AB000004100000041000100400001003F000013
:102AC000003F0001003E0000003E0001003D00000C
:102AD000003D0001003C0000003C0000003C000103
:102AE000003B0000003B0001003A0000003A0001FA
:102AF00000390000003900010038000000380000F3
:102B000000380001003700000037000100360000E7
:102B100000360000003600010035000000350000DE
:102B200000350001003400000034000000340001D2
:102B300000330000003300000033000100320000C9
:102B400000320000003200010031000000310000BE
:102B500000310001003000000030000000300001B2
:102B6000002F0000002F0000002F0000002F0001A8
:102B7000002E0000002E0000002E0001002D00009D
:102B8000002D0000002D0000002D0001002C000091
:102B9000002C0000002C0000002C0001002B000085
:102BA000002B0000002B0000002B0001002A000079
:102BB000002A0000002A0000002A0001002900006D
:102BC0000029000000290000002900000029000160
:102BD0000028000000280000002800000028000055
:102BE0000028000100270000002700000027000047
:102BF000002700000027000100260000002600003A
:102C0000002600000026000000260001002500002C
:102C10000025000000250000002500000025000020
:102C20000025000100240000002400000024000012
:102C30000024000000240001002300000023000005
:102C400000230000002300000023000000230000F8
:102C500000230001002200000022000000220000EA
:102C600000220000002200000022000100210000DC
:102C700000210000002100000021000000210000D0
:102C800000210000002100010020000000200000C1
:102C900000200000002000000020000000200000B4
:102CA0000020000000200001001F0000001F0000A5
:102CB000001F0000001F0000001F0000001F000098
:102CC000001F0001001E0000001E0000001E00008A
:102CD000001E000000043700001E290000511B00E8
:102CE000005810000010090000CC04000078020019
:102CF00000410100007C3C3E5E2B3D3F2F5B5D3B75
:102D00002C2A225C00496E76616C696420657874B7
:102D100072756465720A00202D20496E76616C69B7
:102D200064206578747275646572206E756D626575
:102D30007220210A004553434150452054C3895213
:102D40004D49434F00546865726D616C2052756E39
:102D500061776179004572726F3A54656D70204DEC
:102D6000C3A178696D61004D415854454D502074A0
:102D70007269676765726564004572726F3A54657F
:102D80006D70204DC3AD6E696D61004D494E544567
:102D90004D502074726967676572656400202F006A
:102DA0002042403A0020403A0020573A001FE020DD
:102DB000102010201010201020201020103030087B
:102DC00040048003001FE03FF03FF03FF01FE01F92
:102DD000E03FF03FF03FF00FC0078003003FFFF0FF
:102DE00038007030FC3020FC102078102030102C7F
:102DF00000D02E31D02F7BD02F7BD02E31D02C0085
:102E0000D020301020781020FC1030FC30380070BA
:102E10003FFFF03FFFF038007031863023871027E6
:102E200087902F87D02F03D0203010207810207863
:102E3000102030102F03D02F87D0278790238710A2
:102E40003186303800703FFFF01FFFF81FFFF80495
:102E50001040020820020820041040082080104181
:102E6000001041000820800410400000001FFFF8FF
:102E70001FFFF82568753A2530326875002568759A
:102E8000642025303268753A25303268750020207C
:102E900020202020200000002200250028002B00F8
:102EA0002E003100340002010000050108010B0171
:102EB00000002100240027002A002D0030003300EC
:102EC00001010000040107010A01050505050705C8
:102ED00008080808020202020A0A08080404040496
:102EE00001010101010101010303030303030303C2
:102EF000040707070C0C0C0C0C0C0C0C0202020251
:102F000006060606060606060B0B0B0B0B0B0B0B39
:102F100001021020200808102040102040800201EB
:102F200002010804020101020408102040808040D0
:102F300020100804020180040201804020100804CF
:102F4000020108040201010204081020408001026D
:102F5000040810204080456E636C6F7375726500C5
:102F6000416D6178204500416D6178205A00416DC6
:102F70006178205900416D61782058004D6F766965
:102F80006D656E746F2041005265747261697220C4
:102F900041004163656C2E00617272616E63616411
:102FA0006120564500617272616E636164612056F2
:102FB0005A00617272616E636164612056590061EA
:102FC0007272616E6361646120565800436F6D7068
:102FD000656E73617220536F6E646120656D205958
:102FE00000436F6D70656E73617220536F6E646124
:102FF00020656D2058004C657220436F6E666967CE
:10300000757261C3A7C3A36F0053616C76617220B0
:10301000436F6E666967757261C3A7C3A36F004390
:103020006F6D70656E73617220536F6E64612065A1
:103030006D205A00436F6E6669672E204176616E7F
:10304000C3A76164610053572D4D6F6465005265DD
:10305000636F6C68657220424C546F7563680045FD
:103060007374656E64657220424C546F75636800BA
:1030700054657374617220424C546F7563680052DA
:1030800065696E696369617220424C546F7563684B
:1030900000526573746175726F2073656775726F26
:1030A00000416A7573746172202400000028C20018
:1030B0000030C1000000000000484200004842000B
:1030C0000080400202040000A0400000A040000078
:1030D0000040000083430000674300007043FFFF8F
:1030E000FF00005C4300005C4300007043576172C6
:1030F0006E696E673A20486F6D696E672042756D24
:10310000702044697669736F72203C20310A00494F
:103110006D7072696D697220646F20534400205A8B
:103120003A200020593A200042656420583A200095
:1031300050726F62696E67204661696C65640A004F
:1031400046616C686120616F20736F6E646172000C
:103150004361703A003F5A206F7574206F66207289
:10316000616E67652028003F59206F7574206F6677
:103170002072616E676520282D0020746F20003F4B
:1031800058206F7574206F662072616E6765202805
:103190002D0050726F6265204F666673657420580B
:1031A00000656E7175657565696E672022006F6BCD
:1031B00000526573656E643A20003F00496E696392
:1031C00069617220454550524F4D00496D707265DE
:1031D0007373C3A36F2041626F7274616461004DA9
:1031E00032350050617573696E672E2E2E0045458D
:1031F00050524F4D2056657273696F6E2045727242
:103200006F7200454550524F4D20496E64657820DD
:103210004572726F7200454550524F4D20435243E4
:10322000204572726F720049676E6F726500526559
:1032300073657461720020520048617264636F6448
:1032400065642044656661756C74205365747469A7
:103250006E6773204C6F616465640A003B20002038
:10326000204D3835312058005A2D50726F6265203C
:103270004F66667365740020204D33303120500056
:103280005049442073657474696E67733A00204630
:103290000020480020204D3134352053004D61740A
:1032A000657269616C206865617475702070617207
:1032B000616D65746572733A00204A0020204732C0
:1032C00039205720490020204D343230205300410E
:1032D00075746F20426564204C6576656C696E6715
:1032E0003A0020204D323036205800486F6D65205E
:1032F0006F66667365743A0020204D323035204287
:1033000000416476616E6365643A20423C6D696E8B
:103310005F7365676D656E745F74696D655F757306
:103320003E20533C6D696E5F6665656472617465CD
:103330003E20543C6D696E5F74726176656C5F66A9
:10334000656564726174653E20583C6D61785F7894
:103350005F6A65726B3E20593C6D61785F795F6A88
:1033600065726B3E205A3C6D61785F7A5F6A657268
:103370006B3E20453C6D61785F655F6A65726B3EB0
:103380000020540020204D3230342050004163632F
:10339000656C65726174696F6E2028756E697473EF
:1033A0002F7332293A20503C7072696E745F6163EA
:1033B00063656C3E20523C726574726163745F6138
:1033C0006363656C3E20543C74726176656C5F612A
:1033D0006363656C3E0020204D3230312058004D33
:1033E0006178696D756D20416363656C65726174A8
:1033F000696F6E2028756E6974732F7332293A00D5
:1034000020204D3230332058004D6178696D756D44
:10341000206665656472617465732028756E6974D1
:10342000732F73293A00537465707320706572208E
:10343000756E69743A0020440020204D32303020EF
:1034400053002044697361626C65640A0046696CCC
:10345000616D656E742073657474696E67733A008C
:1034600020204D3134392043203B20556E69747340
:1034700020696E2043656C736975730A0020286D9E
:103480006D29002020473231202020203B20556E1E
:1034900069747320696E206D6D000000C8430000E0
:1034A000C8430000004100004842000048430000BB
:1034B00048430000484300004843A00F0000A00F0D
:1034C0000000900100003200000000000A0B020919
:1034D0000C0D0E08070304010000000000000000AE
:1034E00000000000000000000000000000000000DC
:1034F0000000000000001211100000000000000099
:1035000000000000000000000000000000000000BB
:103510004D6F7665722025736D6D004D6F76657207
:1035200020302E316D6D004D6F76657220316D6DDE
:10353000004D6F7665722031306D6D004D6F766590
:1035400072206569786F004D6F76657220457874DA
:103550007275736F72004D6F766572205A004D6FF1
:103560007665722059004D6F7665722058003601DD
:10357000360211241FBECFEFD1E2DEBFCDBF00E087
:103580000CBF13E0A0E0B2E0E4E3F2E502E00BBF21
:1035900002C007900D92AC30B107D9F724E1ACE03E
:1035A000B3E001C01D92A937B207E1F71AE1C8EBF9
:1035B000DAE100E006C021970109802FFE010F9497
:1035C0006B25C73BD10780E00807A9F70F94EE0CE5
:1035D0000D9408290C9400002F923F924F925F9215
:1035E0006F927F928F929F92AF92BF92CF92DF9213
:1035F000EF92FF920F931F93CF93DF93CDB7DEB778
:10360000AD970FB6F894DEBF0FBECDBF8DA720914A
:1036100016032CA781E08093160380913B138D3411
:1036200009F43DC3843511F40C94E32A873411F076
:103630000C94F52A8091391390913A138A319105AF
:1036400009F419C194F48430910534F48230910561
:10365000CCF597FF2BC01FC38430910509F4CDC072
:10366000459711F40C94F72A16C38A32910509F490
:1036700032C264F48D31910509F411C18E31910586
:1036800009F42CC14C9709F006C3F9C08B3591059C
:1036900009F49EC18C35910509F49FC18A359105C5
:1036A00009F0F9C2109215030C94F72A80913E0597
:1036B000813011F00C94F72A0E94B9430E941767D9
:1036C0000C94F72A20913E05213011F00C94F72A32
:1036D00011E0029709F010E00E94B94319821A82A2
:1036E0001B821C821D821E821F82188682E50E9418
:1036F000499A882309F44BC00E94C4996B017C014C
:1037000020E030E0A9010F94701E882309F455C011
:1037100080913C0290913D02A0913E02B0913F0207
:1037200088A399A3AAA3BBA38091400290914102D0
:10373000A0914202B09143028CA39DA3AEA3BFA36C
:103740008090FE129090FF12A0900013B090011391
:10375000409002135090031360900413709005136F
:10376000A501940168A179A18AA19BA10F94701E63
:1037700081110C94002BA30192016CA17DA18EA15B
:103780009FA10F94701E8823C1F00C94002B89E434
:103790000E94499A882331F00E94C49969837A83F0
:1037A0008B839C838AE40E94499A882331F00E948B
:1037B000C4996D837E838F83988720E030E0A901D0
:1037C00069817A818B819C810F94701E81110C9488
:1037D000B42B20E030E0A9016D817E818F81988536
:1037E0000F94701E81110C94B42B0E9464A183ED80
:1037F00095E00E947BA00C94F72A80E50E94499AEC
:10380000882329F00E94BD456B017C0103C0C12CB7
:10381000D12C760183E50E94499A882361F00E94A9
:10382000C49920E030E04AE754E40F94D61E0F9488
:10383000E7266B017C010E94DFEC8091CF138111A0
:1038400005C060E089EE95E00F9470000F948D0A3A
:10385000C60ED71EE81EF91E0F948D0ADC01CB019F
:103860008C199D09AE09BF09B7FD02C00C94F72A57
:103870000E942934F1CF0E9438A20C94F72A80913B
:10388000D1128770873011F00C94C72B60E08FE461
:103890000E94659A81110C94F72A0C94C72B0F94FF
:1038A0008D0A6093720C7093730C8093740C9093D8
:1038B000750C87E00E94366681110C94F72A80917E
:1038C0005514882311F40C94D62C60E08FE40E94E8
:1038D000659A81110C94F72A0C94D62C2091101320
:1038E00030911113409112135091131360913C02C7
:1038F00070913D0280913E0290913F020F94742599
:10390000AB01BC0188E50E94416169837A838B83A6
:103910009C832091141330911513409116135091EC
:103920001713609140027091410280914202909180
:1039300043020F947425AB01BC0189E50E944161EB
:103940006D837E838F839887BE016B5F7F4FCE012F
:1039500001960E94D645882311F40C94F72A80E042
:103960000E94719C0E94EE6961E085E40E94659A64
:1039700021E0482FBE016B5F7F4FCE0101960E9470
:103980002CF26B017C019B01AC010F946628811124
:1039900019C049815A816B817C8188E291E30E9440
:1039A00033A14D815E816F81788583E291E30E942E
:1039B00033A1B701A6018EE191E30E9433A18AE011
:1039C0000E94FD320E94D5690E94E66B0C94F72A92
:1039D0008FE0809315030C94F72A9DE8292E92E03E
:1039E000392E25ECE22E22E1F22EECE3F2E0F9A3EF
:1039F000E8A332EEC32E35E0D32E00E010E0D10173
:103A00008D911D010E94499A882309F44BC00E94A0
:103A1000C4992B013C01133049F0F601208131811A
:103A2000428153810F9473252B013C01A8A1B9A1B8
:103A30002D913D914D915C91C301B2010F9473257D
:103A40004B015C012DEB37E346E855EB0F94D4278F
:103A500087FD0AC02DEB37E346E855E3C501B40105
:103A60000F94701E1816F4F4133051F4409248026B
:103A70005092490260924A0270924B0201E012C0D9
:103A8000A5019401F70160817181828193810F9476
:103A90007425D7016D937D938D939C931397812FFC
:103AA0000E9403661F5FB4E0EB0EF11CE8A1F9A1D0
:103AB0003496F9A3E8A3F4E0CF0ED11C143009F03A
:103AC0009ECF002321F088E492E00E94BDEF0E9487
:103AD000E66B0C94F72A80913E05813011F00C942E
:103AE000F72A89E40E94499AE82E882321F00E944F
:103AF000C099082F01C000E08AE40E94499AF82E7C
:103B0000882321F00E94C099182F01C010E0EE20F8
:103B100011F0033020F4FF2041F0133030F08AE13F
:103B200096E00E947BA00C94F72A80E1ECE3F2E09F
:103B3000AEEFB2E101900D928A95E1F7EE2019F116
:103B4000602F000F770B880B990B0F94771E209135
:103B5000191430911A1440911B1450911C140F9495
:103B6000D61E2091A1053091A2054091A305509148
:103B7000A4050F9474256093FE127093FF12809336
:103B8000001390930113FF2019F1612F110F770B90
:103B9000880B990B0F94771E20911D1430911E14E1
:103BA00040911F14509120140F94D61E2091A5050A
:103BB0003091A6054091A7055091A8050F94742552
:103BC000609302137093031380930413909305136F
:103BD00060E080E50E94659A8823C1F1EE20D1F073
:103BE000209110133091111340911213509113131F
:103BF0006091FE127091FF12809100139091011359
:103C00000F9473256093FE127093FF12809300133C
:103C100090930113FF20D1F02091141330911513CC
:103C20004091161350911713609102137091031372
:103C300080910413909105130F94732560930213E0
:103C400070930313809304139093051340E050E0A6
:103C5000BA0186E40E9441616B017C0120E030E002
:103C6000A9010F94D42718164CF420E030E040E767
:103C700052E4C701B6010F946E2603C060E070E005
:103C8000CB0169837A838B839C83CE0101960E944A
:103C9000ED6A0C94F72A0E94E38E0C94F72A809127
:103CA000391390913A138537910509F498C70CF0B0
:103CB00047C18C34910509F4DAC40CF05CC088313A
:103CC000910509F4F9C24CF58231910509F489C6D0
:103CD0006CF497FF02C00C94E02A823091050CF43A
:103CE0001EC2419709F478C20C94E02A85319105EF
:103CF00009F4C4C22CF4449709F48FC20C94E02A4E
:103D00008631910509F4BEC2479711F00C94E02A60
:103D1000E0913713F0913813C3C28D31910509F446
:103D200051C3B4F48A31910509F4EBC20CF4D0C24A
:103D30008B31910509F4F3C24C9711F00C94E02AF1
:103D400080913713909138130E9434940C94F72A81
:103D50008F31910509F4E1C30CF43BC38032910526
:103D600009F498C38B34910511F00C94E02A0E9459
:103D70002E6D0C94F72A8A36910509F4E8C4CCF527
:103D80008435910509F42DC6FCF48135910509F4BB
:103D90000DC64CF48D34910511F00C94E02A0E946C
:103DA000526D0C94F72A8235910509F413C68335B8
:103DB000910511F00C94E02A809115038F7E8062AA
:103DC000809315030C94F72A8C35910509F462C68B
:103DD00034F48535910509F43AC60C94E02A883606
:103DE000910509F457C48936910509F49CC40C94D3
:103DF000E02A8F36910509F400C584F48C369105CC
:103E000009F440C50CF4DFC48D36910509F465C48E
:103E10008E36910509F4E0C40C94E02A81379105AF
:103E200009F43DC50CF433C58237910509F4D0C6B9
:103E30008337910511F00C94E02A8CEB98E00E94F6
:103E40007BA060E08CEA98E00E9411FF60E087E9C7
:103E500098E00E9411FF61E084EC91E30E9411FF61
:103E600061E08CE898E00E9411FF61E08CE798E047
:103E70000E9411FF60E083E798E00E9411FF61E07B
:103E800089E698E00E9411FF61E08FE598E00E94CA
:103E900011FF60E088E598E00E9411FF61E080E595
:103EA00098E00E9411FF61E082E498E00E9411FF17
:103EB00060E084E398E00E9411FF60E085E298E012
:103EC0000E9411FF60E087E198E00E9411FF60E02E
:103ED00081E098E00E9411FF60E080EF97E00E948F
:103EE00011FF60E081EE97E00E9411FF61E08AED32
:103EF00097E00E9411FF60E085EC97E00E9411FFBF
:103F000060E087EB97E00E9411FF61E084EA97E0B0
:103F10000E9411FF60E087E997E00E9411FF61E0D5
:103F200082E997E00E9411FF60E085E897E00E9437
:103F300011FF60E081E797E00E9411FF0C94F72ADF
:103F40008D3221E0920711F40C94D6280CF06DC04C
:103F5000893C910509F451C78CF58C38910509F419
:103F6000C0C4BCF48737910509F483C60CF447C676
:103F70008837910509F480C68937910511F00C94B2
:103F8000E02A1092AA031092A9030E94D06C0C940C
:103F9000F72A8B39910509F4E3C434F4813991058A
:103FA00009F472C60C94E02A8E3B910509F4B8C45A
:103FB000883C910509F4DCC60C94E02A833D910508
:103FC00009F4BEC7D4F48C3C910509F45EC734F4FF
:103FD0008B3C910509F437C70C94E02A8D3C910580
:103FE00009F484C78E3C910511F00C94E02A5CEA38
:103FF000E52E53E0F52E10E091C78D3D910509F4B3
:10400000C9C734F48C3D910509F49DC70C94E02A8E
:104010008831A1E09A0711F40C9420288C32914049
:1040200011F40C94B7280C94E02A843FE1E09E0739
:1040300011F40C94882AD4F5823921E0920711F406
:104040000C94AA29B4F48F32A1E09A0711F40C94CD
:104050009A2914F40C9456298039E1E09E0711F452
:104060000C949D298139914011F40C94A0290C9451
:10407000E02A843A21E0920711F40C94AF294CF421
:104080008A39914011F00C94E02A0E94AC300C94D3
:10409000F72A853AB1E09B0711F40C94B2298C3AC7
:1040A000914011F40C94292A0C94E02A8C30F2E00F
:1040B0009F0711F40C94AB2AB4F4863F31E09307C8
:1040C00011F40C948E2A14F40C948B2A873FB1E0DF
:1040D0009B0711F40C94912A883F914011F40C94A1
:1040E0009A2A0C94E02A803AF3E09F0709F407C269
:1040F0004CF48335934011F00C94E02A0E9469F847
:104100000C94F72A873EA3E09A0711F40C94B82A7E
:10411000893E934011F40C94C62A0C94E02A80E561
:104120000E94499A882329F00E94BD456B017C01B9
:1041300003C0C12CD12C760183E50E94499A8823C3
:1041400061F00E94C49920E030E04AE754E40F9403
:10415000D61E0F94E7266B017C010E94DFEC809154
:10416000371390913813009721F061E00F9400010C
:1041700005C060E083E396E00F9470001091160391
:1041800083E08093160381E08093FB13C114D10474
:10419000E104F10431F00F948D0AC60ED71EE81E1B
:1041A000F91E8091FB13882311F40C94D92CC114AF
:1041B000D104E104F10411F40C94E02C0F948D0A65
:1041C000DC01CB018C199D09AE09BF09B7FF02C004
:1041D0000C94E02C0C94D92C80913C1384FF02C0E9
:1041E0000C94E42C80913E1387FF02C00C94E42CC5
:1041F00080913F13837011F00C94E42C60E087E40D
:1042000096E00F9470005F988A9880910801817001
:104210008093060112980C94F72A80914D1183FF28
:1042200025C084E696E00E947BA080914D1183FF1B
:1042300017C08AE39FE00E94F7BE8BE1EAE3FFE04C
:10424000DE01119601900D928A95E1F760E070E031
:10425000CE0101960E949595CE0101960E94EBC079
:1042600085E596E00E947BA00C94F72A0E9434A278
:1042700085E796E00E947BA00C94F72A0E94AF92FB
:104280000C94F72A0E94F39180914D11877F8062F0
:1042900080934D110C94F72A803209F410823196E4
:1042A00080818111F9CF60E08091371390913813AC
:1042B0000E947C940C94F72A0E94D130882321F02C
:1042C0000E9402920E942E6D0E94A98E0C94F72AE1
:1042D00080914D1182FF03C08B7F80934D1180919F
:1042E000E105813089F782E08093E1050F948D0A22
:1042F0006093810570938205809383059093840574
:10430000E3CF80914D1183FD02C00C94F72A83E521
:104310000E94499A81110C94002D0C94F72A83E491
:104320000E94FB99882319F189E896E00E947BA0FE
:104330008091E40E882391F0BE016F5F7F4F81EE84
:104340009EE00E94BEBD8E010F5F1F4FF80181915C
:104350008F01882339F00E94FD32F8CF8FE796E075
:104360000E947BA08AE00E94FD320C94F72A809183
:104370004D1182FF21C088E996E00E947BA06091E8
:10438000491170914A1180914B1190914C114AE062
:104390000E9404338FE20E94FD32609145117091BA
:1043A000461180914711909148114AE00E940433D0
:1043B0000E9402340C94F72A8AEA96E00E947BA0BD
:1043C0000C94F72A80914D118E7F80934D110C949F
:1043D000F72A80914D1183FD02C00C94F72A0E94A8
:1043E000CC8E80914D1183FD02C00C94F72A409130
:1043F000371350913813BE01645E7F4F80E00E94F6
:10440000F4D68C01009711F40C94F72A6C8D7D8DF5
:1044100019821C8222E0AC01CE0101960E94F1C0FB
:10442000811102C0F12C14C0CE0101960E9462D607
:104430008823C1F361E0CE0101960E9466BD00971A
:1044400089F325EEDC012C931C820E94EEB8F82E35
:10445000CE0101960E94EBC0B801FF2089F083EDE8
:1044600096E00E9451A18AE00E94FD32109249110B
:1044700010924A1110924B1110924C110C94F72A81
:104480008BEB96E00E9451A181E09EE00E947BA010
:104490000C94F72A80914D1182FD0E94DFEC8091EF
:1044A0004D1183FD02C00C94F72A60E080E50E9464
:1044B000659A182F682F80913713909138130E94B6
:1044C0007C9483E50E94499A882381F00E948C990C
:1044D000AB01BC014093491150934A1160934B11B9
:1044E00070934C1181EE9EE00E94E1BA0E9402920C
:1044F00011110C94F72A0E942E6D0C94F72A20912A
:1045000037133091381390914D11926090934D1163
:10451000C9010E9434940C94F72A0E94DF6C7B013D
:104520008C0120E831E541E050E00F94C624C90138
:104530006DE671E00F9443254B015C01C801B701A2
:1045400020E13EE040E050E00F94C624CA01B901EA
:1045500028E130E040E050E00F94C624762E672E2C
:10456000C62ED72E8CE3282E312C412C512CC8017D
:10457000B701A20191010F94C624F62EE72ECA01BD
:10458000B901A20191010F94C624CB018E010F5FE6
:104590001F4F8114910499F0EF92FF927F936F93D4
:1045A0006F927F92BF92AF929F928F9281EE96E030
:1045B0009F938F931F930F930F94081E13C0A11402
:1045C000B104B1F0EF92FF927F936F936F927F925D
:1045D000BF92AF9285EE96E09F938F931F930F93B8
:1045E0000F94081E0FB6F894DEBF0FBECDBF30C0CB
:1045F000CD2879F0EF92FF927F936F936F927F9225
:1046000089EE96E09F938F931F930F930F94081E4C
:10461000E9CF892B69F0EF92FF927F936F938DEE34
:1046200096E09F938F931F930F930F94081EDACFFA
:10463000EF92FF9281EF96E09F938F931F930F93DA
:104640000F94081E0F900F900F900F900F900F90E7
:1046500060E0C8010F9400010E9434A2B80185EF08
:1046600096E00E9451A18AE00E94FD32C0C780916D
:10467000E105813009F0BBC782E08093E1050F942A
:104680008D0A6093810570938205809383059093D2
:104690008405ADC78091DA0A83FDA9C70E946A44E8
:1046A00087FDA5C789E40E94499A882311F40C94D8
:1046B000112D0E949C9990E01816190614F481E0BF
:1046C00090E026E0289FF001299FF00D1124EF5D76
:1046D000FB4E808191810C941B2D8091DA0A83FD21
:1046E00086C70E946A44F82E87FD81C789E40E942C
:1046F000499A082F882311F40C94242D0E949C9928
:1047000090E01816190614F481E090E026E0289F46
:10471000F001299FF00D1124EF5DFB4E8081918106
:1047200010E00C94342D0E946A44182F87FD0AC0B3
:104730008EEA91E30E947BA0812F0E948FC38AE0C2
:104740000E94FD32BCA5B09316030C941B2F60E0B1
:1047500080E50E94874781114AC781E40E94FB9946
:10476000882329F060911606062F10E002C00FEF93
:1047700010E089E40E94499A882399F00E949C994C
:1047800090E01816190614F481E090E026E0289FC6
:10479000F001299FF00D1124EF5DFB4E048115817E
:1047A00008C083E50E94499A882319F00E948C99D9
:1047B0008B01B8010F3F110519F010F06FEF70E099
:1047C0006093160614C760E080E50E948747811158
:1047D0000EC7109216060BC78EE40E94499A8823D2
:1047E00009F405C70E948C996093C4137093C51394
:1047F0008093C6139093C713FAC683E50E94FB9972
:10480000882331F060E083E50E9487478093DA0ACD
:104810000E9434A286E297E00E947BA08091DA0A8F
:10482000882369F119ECE12E1AE0F12E00E010E086
:1048300020E08091DA0A90E0A0E0B0E0002E04C011
:10484000B695A795979587950A94D2F780FF0EC0E5
:10485000DD24D394D20E222319F08CE20E94FD3283
:10486000F701859194910E947BA02D2D0F5F1F4F22
:10487000E2E0EE0EF11C05301105D9F673CD82E2AF
:1048800097E06ECD1092FB1310921402B0C641E077
:1048900060E070E08DE297E00E941630A8C683E5E4
:1048A0000E94499A882371F00E949C99282F30E039
:1048B0002D3331051CF48093000299C68CE380935C
:1048C000000295C60E9434A24091000250E060E0D0
:1048D00070E08BE397E00E9415A18AE00E94FD3210
:1048E00086C68091DA0A83FD82C689E40E94499ACD
:1048F000882311F40C947E2D0E949C9990E0181648
:10490000190614F481E090E026E0289FF001299F29
:10491000F00D1124EF5DFB4E828193810C94892D63
:104920008091DA0A83FD63C689E40E94499A88234C
:1049300011F40C94902D0E949C9990E01816190681
:1049400014F481E090E026E0289FF001299FF00D0B
:104950001124EF5DFB4E8281938110E00C94A12D18
:1049600083E50E94499A882309F441C60E949C99D4
:10497000182F90E0CD970CF01CE3109310030F94C8
:104980008D0A6B017C01212F30E0A8EEB3E00F947B
:104990001A25C60ED71EE81EF91EC0920C03D0922F
:1049A0000D03E0920E03F0920F0321C60E94A5C8EA
:1049B0000E94526D0E94EFEC0E94F13068EE73E0AD
:1049C00080E090E00E94BC9F60E086E697E00F9454
:1049D00070000DC6809115038F7D80618093150353
:1049E00006C683E50E94499A8823E9F00F948D0A50
:1049F0006093720C7093730C8093740C9093750C8D
:104A00000E94C49920E030E04AE754E40F94D61E97
:104A10000F94E726609301027093020280930302D1
:104A200090930402E4C580913C1384FF02C00C946F
:104A3000CA2D80913E1387FF02C00C94CA2D80912D
:104A40003F13837011F00C94CA2D0C94FB2D83E559
:104A50000E94FB99882309F4CAC50F948D0A6093BC
:104A6000720C7093730C8093740C9093750C0E946D
:104A7000C49920E030E04AE754E40F94D61E0F9426
:104A8000E7266093110370931203809313039093AE
:104A90001403ADC50E946A4487FDA9C590913C13DB
:104AA00094FD04C090913E1397FF0AC0ADE8CA2E52
:104AB000A2E0DA2EBBEDEB2EBAE0FB2E10E009C02F
:104AC00090913F13937091F7682F81E00E94824587
:104AD0008EC5D6018D916D010E94499A882309F4F3
:104AE0006DC0133009F063C00E94C4994B015C0192
:104AF00020E030E040EA51E40F94701E87FF4EC082
:104B0000A50194016091FB0A7091FC0A8091FD0A55
:104B10009091FE0A0F946E262B013C019B01AC0183
:104B20006091FA057091FB058091FC059091FD055F
:104B30000F94D61E6093FA057093FB058093FC05D5
:104B40009093FD05A301920160910B0B70910C0BEA
:104B500080910D0B90910E0B0F94D61E60930B0B52
:104B600070930C0B80930D0B90930E0B60910A06C3
:104B700070910B0680910C0690910D060F94751E96
:104B8000A30192010F94D61E0F94E72660930A06A4
:104B900070930B0680930C0690930D068092FB0A8F
:104BA0009092FC0AA092FD0AB092FE0A07C00E94F1
:104BB000C499F701648B758B868B978B1F5FF4E02C
:104BC000EF0EF11C143009F084CF0E94F4EB0FC5F6
:104BD0000E94448E8CEC9FE00E94A4B108C5809195
:104BE000371390913813009709F46ECBDC012C91A8
:104BF000222309F469CB60E00F940001F8C400910E
:104C000037131091381394E0F12C40E0915021F1CA
:104C1000F8018081282F2B7F213421F42181213339
:104C2000D9F407C08035C1F4818180538A3048F0BF
:104C300013C0813421F0853421F441E002C0FF2407
:104C4000F39498012E5F3F4F89012F5F3F4FF8018A
:104C500080818032C9F3DACF41110E9434A2FF2053
:104C600021F08DE899E00E947BA0C8010E940834E1
:104C7000BEC40E947B6CBBC481E08093AA03809376
:104C8000A9030E94D06CB3C460E070E083E50E9489
:104C9000569A823038F00E9464A181E999E00E941E
:104CA0007BA0A5C48C01112788E40E94499A88231F
:104CB000E1F00E94C0998A3A910544F00E94C0999F
:104CC0008530914034F40E94C09905C08AEA90E092
:104CD00002C084E091E026E0209FF001219FF00DCA
:104CE0001124EF5DFB4E9183808382E40E94499AF8
:104CF0008823D9F00E94C099059744F00E94C0997A
:104D00008D38910534F40E94C09905C085E090E08B
:104D100002C08CE890E026E0209FF001219FF00D7A
:104D20001124EF5DFB4E9383828386E40E94499AAF
:104D3000882309F45CC40E94C09997FD09C00E94B1
:104D4000C0998F3F910509F034F40E94C09905C0C5
:104D500080E090E002C08FEF90E026E0209FF0011D
:104D6000219FF00D1124EF5DFB4E958384833FC49A
:104D70000E946A44182F87FD3AC400915A1484E4B3
:104D80000E94499A882309F439C70E94C4996B018B
:104D90007C0120E030E0A9010F94701E882339F1D6
:104DA00024E01202F0011124EA5AFB4EC082D182A3
:104DB000E282F38220E030E0A90160915614709104
:104DC000571480915814909159140F94701E8111AA
:104DD0000CC080E090E0A0EEBFE380935614909367
:104DE0005714A0935814B093591401E007C780E0FA
:104DF00080935A140E9452EAFAC30E946A4487FDC3
:104E0000F6C3EDE8EE2EE2E0FE2E0BED1AE0FBEE2F
:104E1000CF2EFAE0DF2ED7018D917D010E94FB9904
:104E2000882359F00E94C4990F94E726F801608303
:104E30007183828393830E94ADEB0C5F1F4FC0167A
:104E4000D10649F7D4C30E946A4487FDD0C36DE8F8
:104E5000E62E62E0F62E0BED1AE07BEEC72E7AE02E
:104E6000D72ED7018D917D010E94FB99882339F0BF
:104E70000E94C499F80164A375A386A397A30C5F4D
:104E80001F4FC016D10669F7B2C380913D1387FD4D
:104E9000BAC680913E138E7009F0B5C640910F0BD3
:104EA0005091100B6091110B7091120B83EB99E0F4
:104EB0000E9433A14091130B5091140B6091150B7C
:104EC0007091160B86E392E30E9433A14091170B79
:104ED0005091180B6091190B70911A0B81E893E3B4
:104EE0000E9433A18AE00E94FD3281C380913C136D
:104EF000827109F0CEC680913E138C7809F0C9C644
:104F000080913F13837009F0C4C671C31F5FB4E082
:104F1000EB0EF11C133011F40C94671D88E5810F22
:104F20000E94FB99882391F30E94C499D7016D9345
:104F30007D938D939C931397812F0E940366E6CFF8
:104F40000E94934454C383E50E94499A882331F018
:104F50000E94C099909316028093150280913C1391
:104F600090913D13A0913E13B0913F13892B8A2B52
:104F70008B2B09F03CC3609115027091160285EFEE
:104F800099E00E9444A185E20E94FD328AE00E94DD
:104F9000FD322DC30E946A44F82E87FD28C383E5A5
:104FA0000E94499A0F2D0F2C000C110B882369F1D8
:104FB0000E94C099F801EE0FFF1FED5AFD4F91833B
:104FC0008083000F111F000F111FF801E95EFD4FD4
:104FD0007F01BC01990F880B990B0F94771E2AE073
:104FE00037ED43E25CE30F94D61EF801EE52FD4E1E
:104FF00020813181428153810F94D61ED7016D9358
:105000007D938D939C931397F2C20E9434A285E402
:105010000E94FD3280E38F0D0E94FD32000F111FB0
:10502000F801ED5AFD4F6081718189EF99E00E948E
:1050300044A185E20E94FD328AE00E94FD32D7C27F
:1050400080E50E94FB99882309F4D1C20E94C0998F
:105050008C01892B09F07FC083E50E94FB9988238E
:1050600089F00E94C0998F3FBFEF9B0729F480EB26
:105070009FE00E94F430BBC2BC0180EB9FE00E9425
:10508000B431B5C20E9434A260E070E081E09AE0E1
:105090000E9444A18091B20F28E532E06901C81A4C
:1050A000D10887FDD394CC0CDD1CCC0CDD1C0D2C61
:1050B000000CEE08FF088091B10F28E830E04901AC
:1050C000881A910887FD9394880C991C880C991C68
:1050D000092C000CAA08BB088091B00F8F3FC1F0CB
:1050E00090E0FC01EE0FFF1F8E0F9F1FFC01E9599E
:1050F000F04F2181328113E0220F331F1A95E1F71F
:1051000004E0369527950A95E1F72E5F3F4F02C0E0
:1051100020E030E02F5F3F4FC901330FAA0BBB0BDC
:105120009C01AD01281939094A095B09A4EBB0E0DB
:105130000F940725A7019601281939094A095B0927
:105140000F94E824B90180EB94E20E9444A18AE024
:105150000E94FD324CC20E9464A1B80182E09AE034
:105160000E9444A184E296E00E947BA040C283E5B5
:105170000E94499A882321F00E948C998B0102C0D9
:1051800004E011E080E50E94499A882349F00E94DA
:105190008C99CB016938734128F088E893E102C00B
:1051A00088EE93E0B8010F94390021C260E085E4F5
:1051B0000E948747811173C080E50E94FB99882374
:1051C00051F00E94C4996093D50E7093D60E8093CF
:1051D000D70E9093D80E89E40E94FB99882381F022
:1051E0000E94C4992CEA35EC47E25EE30F94D61E88
:1051F0006093D90E7093DA0E8093DB0E9093DC0EE1
:1052000084E40E94FB99882381F00E94C4992CEACF
:1052100035EC47E25EE30F946E266093DD0E7093EB
:10522000DE0E8093DF0E9093E00E0E9434A2409138
:10523000D50E5091D60E6091D70E7091D80E81E1A7
:105240009AE00E9433A12CEA35EC47E25EE36091DC
:10525000D90E7091DA0E8091DB0E9091DC0E0F94D6
:105260006E26AB01BC018DE09AE00E9433A12CEACE
:1052700035EC47E25EE36091DD0E7091DE0E8091C9
:10528000DF0E9091E00E0F94D61EAB01BC0189E0B9
:105290009AE00E9433A18AE00E94FD32A8C10E94D8
:1052A00064A185E09DE20E947BA0A1C183E50E94EC
:1052B000FB99182F882371F00E94C4990F94E0265F
:1052C00070931C0260931B0221E0672B09F020E021
:1052D0002093270680E50E94FB99882359F02091AE
:1052E0001B0230911C02232B11F00E94B099809375
:1052F00027067DC111117BC10E9434A28EE29AE083
:105300000E947BA080912706882319F089E79DE100
:1053100002C085E19AE00E947BA060911B0270911F
:105320001C028DE19AE00E9444A189E19AE00E946A
:105330007BA05DC10E9458615AC10E94DFEC57C139
:1053400080910F1381110C94671D81E00E94B7EAD0
:105350000C94671D0E94CD450E94E66B48C10E94D7
:105360006B4C45C16FEF7FEF89E40E94569A082F7E
:105370006FEF7FEF8AE40E94569A182F8AE50E9409
:10538000499A811108C081E50E94499AB82E882364
:1053900009F4F6C401C0B12CA02E81E0800F843046
:1053A00008F050C0912E81E0810F843008F04AC08F
:1053B0000E94C4992B013C01F02E07FDF12C07FF40
:1053C00002C0A2E0AA2E812E17FD812C17FF02C079
:1053D000F2E09F2EAF1408F40AC1E82C8F2D90E064
:1053E0006C01CC0CDD1CC80ED91E9E1448F10E2D8C
:1053F00010E0BB2071F0F601E00FF11FEE0FFF1F70
:10540000EE0FFF1FE35DFB4E20813181428153810E
:1054100003C020E030E0A9010C0D1D1D000F111F7D
:10542000000F111F035D1B4EC301B2010F947425C1
:10543000D8016D937D938D939C931397E394D5CF6F
:10544000F394C8CF0E9464A18AE196E00E947BA0F9
:10545000CEC087E00E9436668111C9C00BEA10E316
:10546000ECE3F2E0F9A3E8A39E012F5F3F4F19019F
:105470009EEDC92E90E3D92E7901F80165917591C1
:1054800085919491A8A1B9A18D909D90AD90BD906A
:10549000B9A3A8A3A50194010F9473252B013C0186
:1054A000F701608371838283938320E030E040EAD8
:1054B00051EC0F94D42787FD0AC020E030E040EA89
:1054C00051E4C301B2010F94701E18162CF4F601BA
:1054D000849118160CF45BC4D7018D909D90AD900B
:1054E000BD907D0120E030E040EA51ECC501B401FF
:1054F0000F94D42787FD56C420E030E040EA51E401
:10550000C501B4010F94701E18160CF05FC44AC494
:105510000E94197C6CC00F94270669C00F94D804B0
:1055200066C061E083E50E94659A91E089270F9447
:1055300035065DC081E0809314140E941C761092A1
:105540001414882309F453C00E9434A282EA9AE01A
:105550000E947BA04CC080914D1182FF04C08064EA
:1055600080934D1144C083FF42C00E94CC8E3FC047
:1055700081E080933E051092FA1360E083E50E947B
:10558000659A811134C00E94C8F731C00E94DF6C57
:105590006D3371058105910520F085EC9AE00E943C
:1055A0002BFF81EC9AE00E942BFF8DEA9AE00E948B
:1055B0007BA087EE9DE19093BA038093B90317C057
:1055C0000E94E38E14C0109139130F948D0A6093DA
:1055D000720C7093730C8093740C9093750C112360
:1055E00031F0812F0E946AC302C00E94E38EFDA5A4
:1055F000F11102C00E94B8F72CA5209316031BC41A
:1056000020E030E0A901C701B6010F94701E881F89
:105610008827881F181709F4A2C080E090E0A0E84E
:10562000BFEB88A799A7AAA7BBA728A139A14AA120
:105630005BA1C501B4010F94732520E030E040E088
:105640005FE30F94D61E68A379A38AA39BA32CA122
:105650003DA14EA15FA1C301B2010F94732520E0CB
:1056600030E040E05FE30F94D61E2B013C0128A1FF
:1056700039A14AA15BA1CA01B9010F94D61E4B0101
:105680005C01A3019201C301B2010F94D61E9B01DC
:10569000AC01C501B4010F9474250F9422284B016D
:1056A0005C019B01AC01C701B6010F9473256CA38B
:1056B0007DA38EA39FA3A5019401C701B6010F94FA
:1056C00074259B01AC016CA17DA18EA19FA10F94BB
:1056D000D61E6B017C0120E030E0A9010F94D42795
:1056E00087FD07C0C701B6010F9422286B017C011A
:1056F00003C0C12CD12C7601C301B2019058A50181
:1057000094010F946E2628A539A54AA55BA50F9490
:10571000D61EA70196010F94D61E28A139A14AA131
:105720005BA10F94742569837A838B839C83A50185
:10573000940168A179A18AA19BA10F946E2628A546
:1057400039A54AA55BA50F94D61EA70196010F9413
:10575000D61EA30192010F9474250C94D91B80E0EE
:1057600090E0A0E8BFE35DCF412FBE016F5F7F4FA8
:105770008EEF92E10E941FFB0F948D0A6093720CD2
:105780007093730C8093740C9093750C30CF0E94BF
:10579000DFEC1092620280E00E94719C0F948D0AEF
:1057A0006093720C7093730C8093740C9093750CCF
:1057B0000E94EE6981E08093AA030E94D06C8AE582
:1057C0000E94FB99082F8823A1F081E00E942366A4
:1057D000F82E82E00E94236611E0811101C010E0E2
:1057E000F11009C088E50E94FB99E82E811103C0E1
:1057F000D5C010E0F7CF112309F4C6C00113D2C001
:10580000FF24F394EE24E39411E082E50E94499A88
:10581000882319F00E94C49904C060E070E080EA17
:1058200090E46C8F7D8F8E8F9F8F20E030E0A901F8
:105830000F94701E882359F0E11005C0F11003C0C9
:10584000112309F493C0CE014C960E94F18EEE20F4
:1058500019F080E00F941E16FF2019F081E00F94DC
:105860001E16112309F482C080E00E9400A083E08C
:105870000E94366681117AC00E94E46B80914402D6
:1058800090914502A0914602B091470288A399A346
:10589000AAA3BBA3209110133091111340911213AE
:1058A0005091131360E070E08CED92E40F94732537
:1058B0004B015C016093FE127093FF128093001302
:1058C00090930113209114133091151340911613E6
:1058D0005091171360E070E08CED92E40F94732503
:1058E0002B013C0160930213709303138093041304
:1058F00090930513209118133091191340911A13A6
:1059000050911B1368A179A18AA19BA10F947325C3
:1059100060930613709307138093081390930913F1
:105920008EEF92E10E944B998823A9F019821A8286
:105930001B821C82DE0111966D01E8A0F9A00AA16C
:105940001BA1A3019201C501B4010E940D6A82E06E
:105950000F941E160BC060E087E096E00F94700075
:105960000E9434A285EF95E00E947BA00E94E46B28
:105970008091A9038093AA030E94D56983E0809354
:105980004C020E94E66B33CE11E089E50E94FB9940
:10599000F82E811709F432CFE12E06C01123A9F3A6
:1059A000F12E02C0F12EE12E102F2FCF0E9493472F
:1059B0001ECE1092FB13109316030E94A98E17CED1
:1059C0000E9429340C94D12088E50E94FB99811112
:1059D0005F9889E50E94FB9981118A988AE50E9467
:1059E000FB99882329F0809108018170809306013A
:1059F00085E40E94FB99882309F4F9CD1298F7CD2C
:105A00000E948C99AB01BC014093491150934A11FB
:105A100060934B1170934C1181EE9EE00E94E1BAAD
:105A2000E6CD83E50E94499A882359F00E94C499E3
:105A30000F94E026CB010E947FC361E080E00F94C9
:105A400079140F94DF15D3CD83E50E94499A182F5E
:105A5000811105C082E50E94499A882341F10E9484
:105A6000C4990F94E026CB010E947FC361E081E0DE
:105A70000F9479146091D20E7091D30E072E000C02
:105A8000880B990B0F94771E4B015C014090CE0E52
:105A90005090CF0E6090D00E7090D10EA301920165
:105AA0000F94D42718163CF1112361F001E00F94F4
:105AB000DF15002309F49BCD40E0612F8F2D0E945C
:105AC00095C595CDA3019201C501B4010F94D427CA
:105AD00018168CF082E097E09F938F938DE197E00A
