:100000000C94C7170C94F8170C94F8170C94F81765
:100010000C94F8170C94F8170C94F8170C94F81724
:100020000C94F8170C94F8170C94F8170C94F81714
:100030000C94F8170C94F8170C94F8170C94F81704
:100040000C94F8170C943C5F0C94F8170C94F81768
:100050000C94F8170C94F8170C948A570C94597157
:100060000C94F8170C945E380C9454380C94F817D0
:100070000C94F8170C94F8170C94F8170C94F817C4
:100080000C94F8170C94F8170C94F8170C94F817B4
:100090000C94F8170C94F8170C94F8170C94F817A4
:1000A0000C94F8170C94F8170C94F8170C94F81794
:1000B0000C94F8170C94F8170C94F8170C94F81784
:1000C0000C94F8170C94F8170C94F8170C94F81774
:1000D0000C94F8170C94F8170C94F8170C94F81764
:1000E0000C94F817823587358C359635A03519363E
:1000F000AA35B235BA35C435CE35D835E735F13500
:100100001936FB3505360F36CCA0CFA0BEA0C2A055
:10011000C6A006A1D3A0D7A0DDA0E1A0E5A0EBA0DA
:10012000EFA0F3A006A1F9A0FDA001A1C9BE38BDB2
:1001300071BD05BF71BD71BD71BD71BD71BD71BDB9
:1001400071BD71BD71BD71BD71BD71BD71BD71BD3F
:1001500071BD71BD71BD71BD71BD71BD71BD71BD2F
:1001600071BD71BD71BD71BDFFBE71BD71BD71BD90
:1001700071BD71BD71BD71BD71BDD8BE71BD71BDA7
:1001800071BD71BD71BD71BD71BD71BD71BD71BDFF
:100190001CBF6EBD084AD73B3BCE016E84BCBFFD81
:1001A000C12F3D6C74319ABD56833DDA3D00C77F47
:1001B00011BED9E4BB4C3E916BAAAABE00000080E0
:1001C0003F05A84CCDB2D44EB93836A9020C50B96F
:1001D000918688083CA6AAAA2ABE000000803F009B
:1001E0000C94C2A00C94E1A00C940F360C94F34133
:1001F0000C94D6710C94BEA00C945A3C0C94D7A0CD
:100200000C9497390C94793C0C94AB6D0C9425713B
:100210000C94D8BE0C94F4B60C943D820C94B4A704
:100220000C940CA80C94FBDA0C948C400C9410B831
:100230000C94C0BC0C948B390C94CE350C94BDBC82
:100240000C9454A40C948C350C941A390C94E6DD5F
:100250000C946CA30C940F820C940AB80C94564026
:100260000C94CCA00C94E4380C94EFA00C9442A411
:100270000C9424390C940CB80C94C8BC0C94F7382A
:100280000C94EBA90C94E5A00C9479400C94D771D4
:100290000C9485390C94FB6B0C94A5A70C949BB91A
:1002A0000C94697A0C94FB700C9405360C94CFA5D1
:1002B0000C94917D0C9487350C94F9A00C94963590
:1002C0000C94D8350C9482350C9411A40C941CBF5A
:1002D0000C94523C0C9460A40C9496A70C94A035FA
:1002E0000C944CA80C94F7410C94AA350C94F3A0F0
:1002F0000C9480550C944EA40C9491390C9466A4E3
:100300000C94C9BE0C949DB90C94F93B0C94A9684B
:100310000C942AA40C94EF3B0C94F5410C9401A18D
:100320000C948B820C946D7A0C94FB350C9430A455
:100330000C94187A0C94827A0C94B7A30C9410390C
:100340000C94E7350C94DA710C9405BF0C94B592BB
:100350000C94FDA00C94C1690C94C3A70C9471BDBE
:100360000C9401720C94FFBE0C94E5A30C94D2A3E0
:100370000C9495400C9406A10C94A5380C940B4554
:100380000C94663C0C940EB80C94B7820C9448A460
:100390000C9419360C9408B80C9436A40C9463721F
:1003A0000C9419AA0C943CA40C94DDA00C947F39F5
:1003B0000C9470420C941F390C94EBA00C94FD41EA
:1003C0000C9462390C9499430C94F8A30C94F13575
:1003D0000C9477420C9499390C94BD450C94B23529
:1003E0000C947E7A0C9403420C94293E0C9443396D
:1003F0000C94CFA00C9438BD0C94C4350C945AA422
:100400000C94A1400C9415390C9403A80C9499B940
:100410000C94FE3B0C94C6A00C94BA350C949FB976
:100420000C94F43B0C94BABC0C9485A30C949EA33E
:100430000C945EA30C946EBD0C9422AA0C94D3A0D1
:100440000C9497B90C940AAA4E414E494E495459FE
:10045000494E46CDCCCC3D0AD7233C17B7D138778F
:10046000CC2B329595E6241FB14F0A0000204100A5
:1004700000C84200401C4620BCBE4CCA1B0E5AAEEF
:10048000C59D7400407A10F35A00A0724E180900FE
:1004900010A5D4E80000E87648170000E40B5402E9
:1004A0000000CA9A3B000000E1F505000080969824
:1004B00000000040420F000000A086010000001074
:1004C0002700000000E803000000006400000000B6
:1004D000000A00000000000100000000002C76D897
:1004E00088DC674F0823DFC1DFAE59E1B1B796E57D
:1004F000E3E453C63AE651997696E8E6C28426EBE1
:10050000898C9B62ED407C6FFCEFBC9C9F40F2BAF3
:10051000A56FA5F490055A2AF75C936B6CF9676D8B
:10052000C11BFCE0E40D47FEF520E6B500D0ED90E0
:100530002E0300943577050080841E080000204EAD
:100540000A000000C80C333333330F986E12831146
:1005500041EF8D2114893BE65516CFFEE6DB18D11D
:10056000844B381BF77C1D901DA4BBE424203284EF
:10057000725E228100C9F124ECA1E53D27434F4D75
:100580004D554E49434154494F4E004452595255DE
:100590004E004552524F525300494E464F0045437C
:1005A000484F0047322F47332062616420706172E8
:1005B000616D65746572730A00446F726D696E6473
:1005C0006F2E2E2E00436C6971756520706172610B
:1005D000207265746F6D61720053656D206D6F766A
:1005E000696D656E746F00456E642066696C652088
:1005F0006C6973740A00426567696E2066696C6590
:10060000206C6973740A004E6F206D656469610A1D
:1006100000286E6F2066696C6529004375727265EB
:100620006E742066696C653A2000534420707269CC
:100630006E74696E67206279746520004E6F742055
:100640005344207072696E74696E670A0044656C69
:100650006574696F6E206661696C65642C204669FB
:100660006C653A200046696C652064656C6574654C
:10067000643A002569792025696420256968202568
:10068000696D20256973005072696E742074696DFC
:10069000653A20006F66660044454255473A004D72
:1006A0003131322053687574646F776E004D31318B
:1006B000332053004573667269616E646F206D6507
:1006C00073612E2E2E004171756563656E646F2017
:1006D0006D6573612E2E2E00526F626F74204F462F
:1006E000462E004348414D4245525F54454D5045CA
:1006F000524154555245004241425953544550507D
:10070000494E470041524353004D4F54494F4E5FAD
:100710004D4F44455300544845524D414C5F505253
:100720004F54454354494F4E004C4F4E475F464946
:100730004C454E414D45004155544F5245504F5246
:10074000545F53445F535441545553005344434101
:1007500052440050524F4D50545F535550504F52D9
:100760005400454D455247454E43595F5041525301
:10077000455200434153455F4C494748545F4252FC
:10078000494748544E45535300544F47474C455FE3
:100790004C494748545300534F4654574152455FC4
:1007A000504F574552004255494C445F50455243C3
:1007B000454E54004C4556454C494E475F444154C4
:1007C00041005A5F50524F42450052554E4F5554CA
:1007D000004155544F4C4556454C005052494E54DB
:1007E0005F4A4F420050524F4752455353004155C4
:1007F000544F5245504F52545F54454D5000564F40
:100800004C554D45545249430042494E4152595F5F
:1008100046494C455F5452414E534645520053455C
:100820005249414C5F584F4E5F584F46460046492B
:10083000524D574152455F4E414D453A4D61726CA4
:10084000696E20322E302E372E32202846656220E7
:10085000313720323032312031373A33343A323482
:100860002920534F555243455F434F44455F5552EE
:100870004C3A68747470733A2F2F676974687562A4
:100880002E636F6D2F4D61726C696E4669726D7764
:100890006172652F4D61726C696E2050524F544FDA
:1008A000434F4C5F56455253494F4E3A312E3020FC
:1008B0004D414348494E455F545950453A526F6245
:1008C0006F742045585452554445525F434F554E1E
:1008D000543A3120555549443A6365646532613272
:1008E000662D343161322D343734382D396231324E
:1008F0002D6335356336326633363766660A002F28
:100900002F20004D31343520533C696E6465783EAC
:10091000206F7574206F662072616E6765202830C5
:100920002D31290A00416363656C65726174696FDA
:100930006E3A20500020204D61783A200020204D52
:10094000696E3A2000536F667420656E6473746F2D
:1009500070733A200046523A0020466C6F773A2076
:100960000020643A0020693A0020703A00496E760F
:10097000616C69642065787472756465720A0064DC
:1009800069730043290A0061626C656420286D69FF
:100990006E2074656D702000436F6C642065787400
:1009A0007275646573206172652000486F6D652003
:1009B000257325732573205072696D6569726F0008
:1009C000416C74657261C3A7C3A36F2061706C69C9
:1009D00063616461004572723A20546F6F206661F2
:1009E000722100546F6F206661722066726F6D20F5
:1009F0007265666572656E636520706F696E740AF4
:100A000000454550524F4D204F4B0A00446F6E65D4
:100A1000207072696E74696E672066696C650A0081
:100A20004D3737004D3331009E05990592058B05F2
:100A30007D054572726F722077726974696E6720E6
:100A4000746F20454550524F4D210A004D343130CE
:100A5000004D313132004D313038005041524F5548
:100A60002E20005072696E7465722073746F7070FE
:100A700065642064756520746F206572726F72738F
:100A80002E2046697820746865206572726F722026
:100A9000616E6420757365204D39393920746F207B
:100AA000726573746172742E202854656D7065725E
:100AB00061747572652069732072657365742E2088
:100AC0005365742069742061667465722072657361
:100AD00074617274696E67290A004E6F20436865FD
:100AE000636B73756D2077697468206C696E65201F
:100AF0006E756D6265722C204C617374204C696E4A
:100B0000653A2000636865636B73756D206D69736A
:100B10006D617463682C204C617374204C696E6540
:100B20003A20004C696E65204E756D6265722069D1
:100B300073206E6F74204C617374204C696E652055
:100B40004E756D6265722B312C204C617374204C94
:100B5000696E653A20004D31313000534420726592
:100B60006164206572726F720A002121204B494C2A
:100B70004C20636175736564206279204B494C4C4D
:100B800020627574746F6E2F70696E0A00212120C7
:100B90004B494C4C20636175736564206279207405
:100BA0006F6F206D75636820696E61637469766527
:100BB0002074696D65202D2063757272656E7420D6
:100BC000636F6D6D616E643A2000627573793A20CF
:100BD00070617573656420666F7220696E707574DC
:100BE0000A00627573793A207061757365642066D6
:100BF0006F7220757365720A00627573793A20709E
:100C0000726F63657373696E670A0043617274C3C0
:100C1000A36F2072656D6F7669646F0043617274B3
:100C2000C3A36F20696E73657269646F0043616E60
:100C300063656C617200566F6C7461720050617212
:100C400061720054726F636172205344004D3231FF
:100C500000436F6E74696E75617220696D707265A4
:100C60007373C3A36F0053656D2063617274C3A374
:100C70006F20534400416A75737461720050617251
:100C8000617220696D7072657373C3A36F005061E8
:100C90007573617220696D7072657373C3A36F00A1
:100CA000496E666F726D61C3A7C3B5657300496E07
:100CB000696369617220496D7072657373C3A36F54
:100CC00000496D7072696D69720043616E6E6F7478
:100CD00020656E746572207375626469723A2000D3
:100CE000022E2E004578747275732E206D746F205D
:100CF0006672696100436F6E74696E756172004D52
:100D00006F76696D656E746F004D38340054656D93
:100D100070657261747572610041425300504C41BC
:100D20000056656C2E2056656E746F696E686100A2
:100D3000426F63616C0056656C6F636964616465E2
:100D4000004D656E75207072696E636970616C002C
:100D50004465736162696C69742E206D6F746F7283
:100D600065730049722061206F726967656D205854
:100D7000595A00473238004578747275736F726142
:100D80002024005072652D61712E4D657361202401
:100D90000045736672696172005072652D617175EC
:100DA0006563657220240056617AC3A36F001D0D30
:100DB000190D496D7072657373C3A36F205061750F
:100DC000736164610020746F6F206C6F6E672065C3
:100DD0007874727573696F6E2070726576656E7463
:100DE00065640A0020636F6C6420657874727573A3
:100DF000696F6E2070726576656E7465640A002294
:100E00000A00556E6B6E6F776E20636F6D6D616E4D
:100E1000643A202200526F626F742070726F6E7499
:100E20006F2E00496D7072696D696E646F2E2E2E83
:100E30000020453A00205A3A0020593A004D657387
:100E40006100453100626564002C2073797374651C
:100E50006D2073746F7070656421204865617465DE
:100E6000725F49443A20004171756563696D656E32
:100E7000746F2066616C686F750048656174696E97
:100E800067206661696C656400202D20496E76617B
:100E90006C6964206578747275646572206E756D16
:100EA00062657220210A004553434150452054C3D6
:100EB00089524D49434F00546865726D616C2052F0
:100EC000756E61776179004572726F3A54656D7025
:100ED000204DC3A178696D61004D415854454D5076
:100EE00020747269676765726564004572726F3A53
:100EF00054656D70204DC3AD6E696D61004D494EF6
:100F000054454D50207472696767657265640020AE
:100F10002F002042403A0020403A00205200204951
:100F20000020204D3330312050005049442073655B
:100F30007474696E67733A002046002048002020D0
:100F40004D3134352053004D6174657269616C20F8
:100F500068656174757020706172616D6574657229
:100F6000733A0020204D323036205800486F6D65AE
:100F7000206F66667365743A0020204D323035204C
:100F80004200416476616E6365643A20423C6D695B
:100F90006E5F7365676D656E745F74696D655F75AF
:100FA000733E20533C6D696E5F6665656472617463
:100FB000653E20543C6D696E5F74726176656C5F4E
:100FC00066656564726174653E20583C6D61785F4A
:100FD000785F6A65726B3E20593C6D61785F795F1E
:100FE0006A65726B3E205A3C6D61785F7A5F6A6514
:100FF000726B3E20453C6D61785F655F6A65726B20
:101000003E0020540020204D3230342050004163F7
:1010100063656C65726174696F6E2028756E6974A2
:10102000732F7332293A20503C7072696E745F617D
:101030006363656C3E20523C726574726163745FD9
:10104000616363656C3E20543C74726176656C5FCD
:10105000616363656C3E0020204D323031205800C2
:101060004D6178696D756D20416363656C65726172
:1010700074696F6E2028756E6974732F7332293A04
:101080000020204D3230332058004D6178696D7555
:101090006D206665656472617465732028756E697C
:1010A00074732F73293A00537465707320706572DE
:1010B00020756E69743A0020440020204D32303093
:1010C0002053002044697361626C65640A004669BC
:1010D0006C616D656E742073657474696E67733AC4
:1010E0000020204D3134392043203B20556E697457
:1010F0007320696E2043656C736975730A0020283C
:101100006D6D29002020473231202020203B2055C2
:101110006E69747320696E206D6D0020436F756E6B
:101120007420583A0024F4D43050C38E20C2A24018
:1011300017828B7011127A910D816CD90AA861E126
:1011400008C7586607615143061E4B5D05C145A798
:10115000041A411104093D9803713931034036DB0B
:101160000265339102D4305402802E1D02632CEEAE
:1011700001752AC501B028A001102781018F2564BF
:10118000012B244B01E0223401AC211F018D200DE5
:1011900001801FFC00841EED00971DDF00B81CD2EB
:1011A00000E61BC600201BBC00641AB200B219A8DE
:1011B000000A19A0006A189900D117910040178BF6
:1011C00000B516840031167E00B31579003A157308
:1011D00000C7146F0058146A00EE1366008813638A
:1011E0000025135E00C7125B006C125700151254E5
:1011F00000C111510070114F0021114B00D6104950
:10120000008D1047004610440002104200C00F40FD
:1012100000800F3E00420F3C00060F3B00CB0E3813
:1012200000930E37005C0E3500270E3400F30D32AC
:1012300000C10D3100900D3000600D2E00320D2DDB
:1012400000050D2C00D90C2B00AE0C2900850C29B3
:10125000005C0C2700350C27000E0C2600E80B2440
:1012600000C40B2400A00B23007D0B23005A0B218C
:1012700000390B2100180B2000F80A1F00D90A1EA4
:1012800000BB0A1E009D0A1D00800A1D00630A1C87
:1012900000470A1B002C0A1B00110A1A00F7091A42
:1012A00000DD091900C4091900AB091900920917DA
:1012B000007B091800630917004C0916003609164F
:1012C00000200916000A091500F5081500E00814A9
:1012D00000CC081400B8081400A4081400900813E7
:1012E000007D0812006B081300580812004608120F
:1012F0000034081100230811001208110001081120
:1013000000F0071000E0071000D0071000C0071021
:1013100000B0070F00A107100091070E0083070F10
:101320000074070F0065070E0057070E0049070EEF
:10133000003B070D002E070E0020070D0013070DC0
:101340000006070D00F9060C00ED060D00E0060C86
:1013500000D4060C00C8060C00BC060C00B0060C3D
:1013600000A4060B0099060C008D060B0082060BEC
:101370000077060B006C060B0061060A0057060B8F
:10138000004C060A0042060A0038060A002E060A29
:101390000024060A001A060A001006090007060AB9
:1013A00000FD050900F4050900EB050900E2050947
:1013B00000D9050900D0050900C7050900BE0509C7
:1013C00000B5050800AD050800A50509009C050845
:1013D00000940508008C050800840508007C0508B9
:1013E00000740508006C050700650508005D050729
:1013F00000560508004E0507004705070040050890
:101400000038050700310507002A050700230507F6
:10141000001C050600160507000F05070008050655
:101420000002050700FB040600F5040700EE0406B1
:1014300000E8040600E2040700DB040600D5040609
:1014400000CF040600C9040600C3040600BD04065C
:1014500000B7040600B1040500AC040600A60406AB
:1014600000A00405009B04060095040500900406F6
:10147000008A04050085040500800406007A04053E
:101480000075040500700405006B04050066040582
:1014900000610405005C04050057040500520405C2
:1014A000004D04050048040500430405003E040403
:1014B000003A04050035040500300404002C04053E
:1014C0000027040400230405001E0404001A040479
:1014D0000016040500110404000D040400090405AD
:1014E000000404040000040400FC030400F80304E6
:1014F00000F4030400F0030400EC030400E8030418
:1015000000E4030400E0030400DC030400D8030447
:1015100000D4030400D0030400CC030400C8030378
:1015200000C503030024F404D9201BC40C5C0E98EE
:1015300004C4095F0265077101F405F900FB04B3F7
:101540000048048700C103690058035500030345A0
:1015500000BE023A008402310053022A002902250B
:101560000004022000E4011C00C8011900AF0117AB
:101570000098011400840113007101100061011032
:101580000051010E0043010D0036010B002B010B31
:101590000020010B00150109000C010900030108DE
:1015A00000FB000800F3000800EB000700E4000661
:1015B00000DE000600D8000600D2000600CC0005C0
:1015C00000C7000500C2000500BD000400B900040A
:1015D00000B5000400B1000400AD000400A900043F
:1015E00000A5000300A20003009F0004009B00036D
:1015F0000098000300950002009300030090000390
:10160000008D0002008B00030088000200860002AB
:101610000084000300810002007F0002007D0002C0
:10162000007B0002007900020077000100760002D2
:10163000007400020072000100710002006F0002DD
:10164000006D0001006C0002006A000100690002E8
:1016500000670001006600010065000100640002EF
:10166000006200010061000100600001005F0002F3
:10167000005D0001005C0001005B0001005A0001F8
:1016800000590001005800010057000100560001F8
:1016900000550001005400010053000000530001F8
:1016A000005200010051000100500001004F0001F4
:1016B000004E0000004E0001004D0001004C0001F2
:1016C000004B0000004B0001004A000100490001EE
:1016D00000480000004800010047000100460000EB
:1016E00000460001004500000045000100440001E3
:1016F00000430000004300010042000000420001DE
:10170000004100000041000100400001003F0000D6
:10171000003F0001003E0000003E0001003D0000CF
:10172000003D0001003C0000003C0000003C0001C6
:10173000003B0000003B0001003A0000003A0001BD
:1017400000390000003900010038000000380000B6
:1017500000380001003700000037000100360000AB
:1017600000360000003600010035000000350000A2
:101770000035000100340000003400000034000196
:10178000003300000033000000330001003200008D
:101790000032000000320001003100000031000082
:1017A0000031000100300000003000000030000176
:1017B000002F0000002F0000002F0000002F00016C
:1017C000002E0000002E0000002E0001002D000061
:1017D000002D0000002D0000002D0001002C000055
:1017E000002C0000002C0000002C0001002B000049
:1017F000002B0000002B0000002B0001002A00003D
:10180000002A0000002A0000002A00010029000030
:101810000029000000290000002900000029000123
:101820000028000000280000002800000028000018
:10183000002800010027000000270000002700000A
:1018400000270000002700010026000000260000FD
:1018500000260000002600000026000100250000F0
:1018600000250000002500000025000000250000E4
:1018700000250001002400000024000000240000D6
:1018800000240000002400010023000000230000C9
:1018900000230000002300000023000000230000BC
:1018A00000230001002200000022000000220000AE
:1018B00000220000002200000022000100210000A0
:1018C0000021000000210000002100000021000094
:1018D0000021000000210001002000000020000085
:1018E0000020000000200000002000000020000078
:1018F0000020000000200001001F0000001F000069
:10190000001F0000001F0000001F0000001F00005B
:10191000001F0001001E0000001E0000001E00004D
:10192000001E000000043700001E290000511B00AB
:10193000005810000010090000CC040000780200DC
:1019400000410100004469C3A26D6574726F2046B6
:10195000696C2E00457874727573C3A36F20656D32
:10196000206D6DC2B3002008204661746F720020A4
:1019700008204DC3A178002008204D696E00446501
:10198000736C696761646F004C696761646F0054D0
:10199000656D702E204175746F6DC3A174696361AC
:1019A00000564465736C6F63616D656E746F206D76
:1019B000696E00566D696E00566D6178204500565F
:1019C0006D6178205A00566D6178205900566D611E
:1019D000782058001000C90210012C01400122019A
:1019E00070011801B0010E01F00104015002FA006B
:1019F000B002F0003003E600D003DC009004D20017
:101A00007005C800A006BE000008B400B009AA0016
:101A1000D00BA000600E960060118C0000158200B3
:101A200020197800C01D6E00A0226400B0275A0063
:101A3000902C500000314600E0343C001038320059
:101A4000903A2800603C1E00A03D1400803E0A0031
:101A5000203F00002020506C616E6E6572427566FA
:101A600066657242797465733A2000204672656536
:101A7000204D656D6F72793A2000436F6D70696C0F
:101A800065643A2046656220313720323032310AAF
:101A900000204C61737420557064617465643A2051
:101AA000323032302D31302D3135207C204175746B
:101AB000686F723A20286E6F6E652C2064656661CF
:101AC000756C7420636F6E666967290A00322E3068
:101AD0002E372E320A004D61726C696E0020536FF2
:101AE0006674776172652052657365740A002057C9
:101AF00061746368646F672052657365740A0020BF
:101B000042726F776E206F75742052657365740A28
:101B1000002045787465726E616C2052657365743F
:101B20000A00506F77657255700A006175746F25F1
:101B3000632E67004732385859004D31303031003C
:101B40006572726F722077726974696E6720746F44
:101B50002066696C650A00446F6E65207361766962
:101B60006E672066696C652E0A004D323900466941
:101B70006E7320646520637572736F002553202592
:101B80006320256320256320256300656E647374DC
:101B90006F7073206869743A200023646566696E0B
:101BA000652044454641554C545F004B6420004B32
:101BB0006920004B702000504944204175746F74B7
:101BC000756E652066696E6973686564212050755D
:101BD0007420746865206C617374204B702C204BEA
:101BE0006920616E64204B6420636F6E7374616E54
:101BF00074732066726F6D2062656C6F7720696EFA
:101C0000746F20436F6E66696775726174696F6E79
:101C10002E680A00504944204175746F74756E65D2
:101C2000206661696C6564212074696D656F7574E7
:101C30000A000A20436C6173736963205049442091
:101C40000A00204B643A2000204B693A2000204BC8
:101C5000703A20002054753A2000204B753A20003D
:101C6000206D61783A2000206D696E3A2000206472
:101C70003A200020626961733A20005049442041B3
:101C800075746F74756E652073746172740A005098
:101C90004944204175746F74756E65206661696C86
:101CA0006564212054656D7065726174757265207C
:101CB000746F6F20686967680A0050494420417555
:101CC000746F74756E6500504944204175746F746B
:101CD000756E65206661696C6564212042616420CF
:101CE0006578747275646572206E756D6265720ACE
:101CF000004572723A207574663820666F6E7420E3
:101D00006E6F7420696E697469616C697A65642E9E
:101D100000000C0F00FE07022503BB01FFFE0AFEB8
:101D200008FE05080806000040F0C888889878106A
:101D3000050808060000C0F88888888888F8050526
:101D4000050600012030F8302005080806000020B4
:101D500070F820202020E00509090600FF2070A867
:101D6000A8B888887020070505070001D86C366C74
:101D7000D80509090600FFF8A88888888888A8F887
:101D8000050A0A0600FE205050505088A8A8887006
:101D900003030306000340A040FFFFFFFFFFFFFF18
:101DA000FFFFFFFFFFFFFFFFFFFFFFFFFFFFFF0042
:101DB00000000605FF010707060200808080808082
:101DC0000080030303060105A0A0A0050606060087
:101DD0000050F85050F8500509090600FF2070A87F
:101DE000A07028A87020050707060000C8C81020AA
:101DF00040989805070706000040A0A040A89068FA
:101E00000103030602058080800309090601FF2003
:101E100040408080804040200309090601FF804047
:101E20004020202040408005070706000020A870C1
:101E30002070A8200505050600012020F8202002BA
:101E400003030601FFC04080050101060003F802FC
:101E50000202060100C0C0050707060000081010B6
:101E600020404080050707060000708898A8C888B1
:101E70007003070706010040C040404040E00507EE
:101E800007060000708808102040F80507070600C4
:101E900000F80810300888700507070600001030A9
:101EA0005090F81010050707060000F880F00808A9
:101EB0008870050707060000304080F088887005AC
:101EC0000707060000F80810102020200507070665
:101ED0000000708888708888700507070600007009
:101EE000888878081060020505060100C0C000C09F
:101EF000C00206060601FFC0C000C0408003050501
:101F00000601012040804020050303060002F8007E
:101F1000F8030505060101804020408005070706FB
:101F200000007088102020002005070706000070C0
:101F300088B8A8B88070050707060000708888F880
:101F4000888888050707060000F04848704848F070
:101F500005070706000070888080808870050707E5
:101F6000060000F04848484848F00507070600000A
:101F7000F88080F08080F8050707060000F8808070
:101F8000F0808080050707060000708880809888B0
:101F900070050707060000888888F8888888030786
:101FA00007060100E04040404040E005070706000A
:101FB0000038101010109060050707060000889088
:101FC000A0C0A09088050707060000808080808060
:101FD00080F805070706000088D8A8888888880543
:101FE00007070600008888C8A8988888050707069C
:101FF000000070888888888870050707060000F050
:102000008888F0808080050707060000708888882F
:10201000A89068050707060000F08888F0A090885F
:10202000050707060000708880700888700507079C
:10203000060000F8202020202020050707060000C9
:10204000888888888888700507070600008888883F
:102050008850502005070706000088888888A8A8AF
:10206000500507070600008888502050888805071B
:10207000070600008888502020202005070706005A
:1020800000F80810204080F80309090601FFE080ED
:10209000808080808080E005070706000080404047
:1020A000201010080309090601FFE020202020204D
:1020B0002020E005030306000520508805010106E5
:1020C00000FEF80303030601058040200505050610
:1020D000000070087888780507070600008080F007
:1020E000888888F0050505060000708080887005E6
:1020F000070706000008087888888878050505061F
:1021000000007088F0807005070706000030484026
:10211000E04040400507070600FE70888888780880
:10212000700507070600008080F08888888803070C
:10213000070601004000C0404040E00409090601D4
:10214000FE10003010101010906005070706000008
:1021500080808890E09088030707060100C0404017
:10216000404040E0050505060000D0A8A8A8A80545
:102170000505060000B0C88888880505050600002A
:1021800070888888700507070600FEF0888888F048
:1021900080800507070600FE78888888780808058B
:1021A0000505060000B0C880808005050506000012
:1021B00078807008F00507070600002020F820202E
:1021C000201805050506000088888898680505051B
:1021D00006000088888850200505050600008888CC
:1021E000A8A850050505060000885020508805075E
:1021F000070600FE888888502040800505050600F7
:1022000000F8102040F80309090601FF2040404073
:1022100080404040200109090602FF8080808080C4
:10222000808080800309090601FF804040402040F3
:1022300040408005030306000248A890FFFFFFFF0F
:10224000FFFFFFFFFFFFFFFFFFFFFFFFFFFFFFFF9E
:10225000FFFFFFFFFFFFFFFFFFFFFFFFFF0000008B
:102260000605FF010707060200800080808080804D
:102270000507070600FF2070A8A0A8702005070723
:10228000060000304840E04048B005050506000063
:10229000A8508850A80507070600008850F820F8C5
:1022A00020200107070602008080800080808004D3
:1022B000080806010070806090906010E003010142
:1022C000060107A00607070600007884B4A4B484BA
:1022D0007803050506010460A06000E00505050619
:1022E00000002850A05028050303060001F8080844
:1022F000030101060103E00607070600007884B425
:10230000A4A48478050101060007F804040406016A
:1023100005609090600507070600002020F8202047
:1023200000F803050506010440A02040E003050570
:10233000060104C0204020C003030306010520401D
:10234000800507070600FE88888898E880800508D1
:102350000806000078E8E8E8682828280202020653
:102360000203C0C00302020601FE20C003050506E9
:10237000010440C04040E003050506010540A040BF
:1023800000E0050505060000A0502850A0050A0A37
:1023900006000040C048506050B0507810050A0A4E
:1023A00006000040C048506050A8081038050A0ACE
:1023B000060000C0204830E050B0507810050707F4
:1023C00006000020002020408870050A0A06000050
:1023D000402000708888F8888888050A0A0600006E
:1023E000102000708888F8888888050A0A0600008E
:1023F000205000708888F8888888050A0A0600003E
:1024000068B000708888F888888805090906000087
:102410005000708888F8888888050A0A060000201D
:102420005020708888F8888888050707060000789B
:10243000A0A0F0A0A0B80509090600FE7088808061
:102440008088701060050A0A060000402000F880AD
:1024500080F08080F8050A0A060000102000F8804D
:1024600080F08080F8050A0A060000205000F880FD
:1024700080F08080F80509090600005000F880808F
:10248000F08080F8030A0A060100804000E0404026
:10249000404040E0030A0A060100204000E04040BE
:1024A000404040E0030A0A06010040A000E040402E
:1024B000404040E0030909060100A000E040404020
:1024C0004040E0050707060000704848E8484870AB
:1024D000050A0A06000068B0008888C8A89888889D
:1024E000050A0A06000040200070888888888870E5
:1024F000050A0A0600001020007088888888887005
:10250000050A0A06000020500070888888888870B4
:10251000050A0A06000068B00070888888888870FC
:1025200005090906000050007088888888887005B1
:10253000050506000188502050880509090600FF9E
:10254000087098A8A8A8C87080050A0A060000406C
:10255000200088888888888870050A0A060000108C
:10256000200088888888888870050A0A060000206C
:1025700050008888888888887005090906000050FE
:102580000088888888888870050A0A06000010205C
:10259000008888502020202004070706010080E0E2
:1025A000909090E080050707060000708890A0904A
:1025B00088B0050808060000402000700878887878
:1025C00005080806000010200070087888780508C3
:1025D0000806000020500070087888780508080672
:1025E000000068B0007008788878050707060000CA
:1025F00050007008788878050808060000205020F0
:102600007008788878050505060000702870A078A5
:102610000507070600FE70888088701060050808AE
:102620000600004020007088F08070050808060051
:10263000001020007088F080700508080600002057
:1026400050007088F0807005070706000050007089
:1026500088F08070030808060100804000C04040F8
:1026600040E0030808060100204000C0404040E070
:1026700003080806010040A000C0404040E00307F6
:1026800007060100A000C0404040E005090906001F
:1026900000502050087888888870050808060000D7
:1026A00068B000B0C8888888050808060000402087
:1026B00000708888887005080806000010200070E7
:1026C00088888870050808060000205000708888F7
:1026D000887005080806000068B000708888887057
:1026E00005070706000050007088888870050505FA
:1026F0000600012000F80020050505060000789876
:10270000A8C8F005080806000040200088888888CE
:102710007005080806000010200088888888700569
:102720000808060000205000888888887005070780
:1027300006000050008888888870050A0A0600FE96
:10274000102000888888502040800509090600FE76
:102750008080F0888888F080800509090600FE5096
:1027600000888888502040803F00496E6963696115
:102770007220454550524F4D00496D70726573731C
:10278000C3A36F2041626F7274616461004D323582
:102790000050617573696E672E2E2E0045455052AC
:1027A0004F4D2056657273696F6E204572726F725D
:1027B00000454550524F4D20496E64657820457262
:1027C000726F7200454550524F4D20435243204591
:1027D00072726F720049676E6F7265005265736541
:1027E000746172006F70656E0054524947474552DC
:1027F0004544007A5F6D696E00795F6D696E00789F
:102800005F6D696E005265706F7274696E672065E6
:102810006E6473746F70207374617475730A00460C
:10282000616C686120616F20697220C3A0206F72A3
:102830006967656D005761726E696E673A20486F0F
:102840006D696E672042756D702044697669736F9B
:1028500072203C20310A000000484200004842003B
:102860000080400202040000A0400000A0400000E0
:102870000040000083430000674300007043FFFFF7
:10288000FF2053697A653A200043616E6E6F7420B1
:102890006F70656E20737562646972200053442006
:1028A000496E6974204661696C005344206361720B
:1028B00064206F6B0A006F70656E526F6F742066D4
:1028C00061696C65640A00766F6C756D652E696E62
:1028D0006974206661696C65640A004E6F20534418
:1028E00020636172640A004D3234004D323320257A
:1028F00073006F70656E206661696C65642C20469C
:10290000696C653A200046696C652073656C656387
:102910007465640A0046696C65206F70656E656455
:102920003A2000454E4420535542524F5554494E8B
:10293000450A002220706F73002220706172656E5C
:10294000743A2200535542524F5554494E45204344
:10295000414C4C207461726765743A220053756271
:1029600063616C6C204F766572666C6F770045789A
:10297000636565646564206D617820535542524FEC
:102980005554494E452064657074683A310A0057C1
:10299000726974696E6720746F2066696C653A208D
:1029A00000667265736800646F696E67004E6F77CA
:1029B00020007C3C3E5E2B3D3F2F5B5D3B2C2A2262
:1029C0005C00000028C2000030C1000000000000D0
:1029D0005C4300005C430000704353657474696E8F
:1029E00067732053746F7265640053657474696E05
:1029F00067732053746F726564202800496D70728C
:102A0000696D697220646F205344004D6F76657262
:102A10002025736D6D004D6F76657220302E316DFF
:102A20006D004D6F76657220316D6D004D6F76656E
:102A3000722031306D6D004D6F766572206569785A
:102A40006F004D6F766572204578747275736F7282
:102A5000004D6F766572205A004D6F766572205971
:102A6000004D6F76657220580000000A0B02090CB9
:102A70000D0E080703040100000000000000000024
:102A80000000000000000000000000000000000046
:102A90000000000000121110000000000000000003
:102AA00000000000000000000000000000000043E3
:102AB0006F6E6669672E204176616EC3A76164619F
:102AC00000496E6963696172004D343238004669AD
:102AD0006C616D656E746F00506173736F2F6D6DF7
:102AE00000417272616E63616461004163656C658F
:102AF0007261C3A7C3A36F00436F6D70656E73618E
:102B000072206F726967656D004C657220436F6E4D
:102B1000666967757261C3A7C3A36F00526573745A
:102B20006175726F2073656775726F0053616C76A3
:102B3000617220436F6E666967757261C3A7C3A334
:102B40006F00416A75737461722024001FE02010C9
:102B500020102010102010202010201030300840AD
:102B6000048003001FE03FF03FF03FF01FE01FE054
:102B70003FF03FF03FF00FC0078003003FFFF03809
:102B8000007030FC3020FC102078102030102C0019
:102B9000D02E31D02F7BD02F7BD02E31D02C00D017
:102BA00020301020781020FC1030FC303800703FAE
:102BB000FFF03FFFF0380070318630238710278701
:102BC000902F87D02F03D02030102078102078103D
:102BD0002030102F03D02F87D027879023871031E4
:102BE00086303800703FFFF01FFFF81FFFF8041019
:102BF00040020820020820041040082080104100F4
:102C00001041000820800410400000001FFFF81F42
:102C1000FFF82568753A25303268750025687564B7
:102C20002025303268753A25303268750020202022
:102C3000202020200000002200250028002B002E4C
:102C4000003100340002010000050108010B010001
:102C5000002100240027002A002D0030003300014D
:102C6000010000040107010A010505050507050823
:102C7000080808020202020A0A08080404040401FF
:102C80000101010101010103030303030303030421
:102C90000707070C0C0C0C0C0C0C0C0202020206B1
:102CA000060606060606060B0B0B0B0B0B0B0B01A1
:102CB000021020200808102040102040800201024D
:102CC0000108040201010204081020408080402015
:102CD0001008040201800402018040201008040250
:102CE00001080402010102040810204080010204CE
:102CF0000810204080416D6178204500416D617869
:102D0000205A00416D6178205900416D617820584A
:102D1000004D6F76696D656E746F20410052657469
:102D2000726169722041004163656C2E00617272AC
:102D3000616E6361646120564500617272616E6309
:102D400061646120565A00617272616E63616461F0
:102D500020565900617272616E6361646120565839
:102D600000452F6D6D00506173736F205A2F6D6D8C
:102D700000506173736F20592F6D6D005061737334
:102D80006F20582F6D6D00456E636C6F73757265A3
:102D9000002062797465733B2063726320004E6F7C
:102DA00020454550524F4D2E0A00454550524F4D3B
:102DB000206461746173697A65206572726F722E26
:102DC0000A002073746F7265642073657474696E91
:102DD00067732072657472696576656420280020C7
:102DE0002863616C63756C6174656429210A002035
:102DF000213D2000454550524F4D20435243206D08
:102E000069736D61746368202D202873746F726517
:102E100064292000496E6465783A20004449474996
:102E2000504F5453204C6F616465640A0044494715
:102E300049504F5453204C6F6164696E670A0020FB
:102E40004D61726C696E3D563832290A0045455015
:102E5000524F4D2076657273696F6E206D69736D88
:102E6000617463682028454550524F4D3D004861CC
:102E70007264636F6465642044656661756C742078
:102E800053657474696E6773204C6F616465640A7E
:102E9000003B20000000C8430000C8430000004180
:102EA00000004842000048430000484300004843F7
:102EB0000000C842A00F0000A00F00009001000019
:102EC000320000004361703A00656E71756575658A
:102ED000696E672022006F6B00526573656E643AFD
:102EE000200020573A00526573667269616E646F04
:102EF0002E2E2E004171756563656E646F2E2E2E29
:102F00000045202553004661766F72207265736517
:102F100074617200494D50524553534F52412050F5
:102F200041524F550025533A2025530050415241FC
:102F3000444120444520454D455247C38A4E4349AC
:102F400041005072696E7465722068616C746564CA
:102F50002E206B696C6C28292063616C6C65642180
:102F60000A006563686F3A004572726F723A00201A
:102F70004D393220580020496E76616C69642065B5
:102F800078747275646572200000E6DDFBDA112446
:102F90001FBECFEFD1E2DEBFCDBF00E00CBF12E01D
:102FA000A0E0B2E0E0EBFCED01E00BBF02C0079057
:102FB0000D92A43DB107D9F723E1A4EDB2E001C021
:102FC0001D92A834B207E1F717E1C6ECD7E100E0A3
:102FD00006C021970109802FFE010E94A1EAC53C8D
:102FE000D10780E00807A9F70E94ECD30C9446EEC5
:102FF0000C9400002F923F924F925F926F927F92BB
:103000008F929F92AF92BF92CF92DF92EF92FF92F8
:103010000F931F93CF93DF93CDB7DEB7C555D1097B
:103020000FB6F894DEBF0FBECDBF66968FAF669722
:103030002091DE0265962FAF659791E09093DE02B6
:1030400080919B128D3409F46DC2843511F40C9477
:103050007626873411F00C949B262090991230909C
:103060009A1234E02316310409F495C154F437FC64
:1030700055C28091270B52E0251631040CF0FFC099
:103080002FC08AE52816310409F4D3C164F4A5E100
:103090002A16310411F40C949D26BCE12B16310440
:1030A00009F4B7C13BC2EBE52E16310409F4C5C1E2
:1030B000FCE52F16310409F031C293E7292E92E086
:1030C000392E2AEAE22E2BE0F22EAAE0B2E0B9A3D2
:1030D000A8A333E9C32E33E0D32E00E010E0EEC105
:1030E000813011F00C949D260E946BCE87EB9BE003
:1030F0000E94A67A80918B0883FD85C020911602DC
:103100003091170240911802509119026091C30B3F
:103110007091C40B8091C50B9091C60B0E94AEE3D9
:10312000882309F470C08091D80381111BC060917D
:10313000C10C7091C20C8091C30C9091C40C0E9480
:103140001EEC20911E0230911F022150310962179E
:10315000730744F40E94B8CF84EE9DE00E9456CFDE
:1031600011E001C010E02091160230911702409149
:103170001802509119026091C30B7091C40B809199
:10318000C50B9091C60B0E94B1EA6B017C0120E057
:1031900030E0A9010E9412ED87FF04C0F7FAF09415
:1031A000F7F8F09420911A0230911B0240911C0212
:1031B00050911D02C701B6010E9414E420E030E0E6
:1031C00048E453E40E9412ED18163CF40E94B8CF74
:1031D00085EC9DE00E9456CF02C01123A1F08091A2
:1031E000C30B9091C40BA091C50BB091C60B8093FB
:1031F000160290931702A0931802B093190283EC61
:103200009BE00E94B29A2AE037ED43E25CE36091D2
:1032100000027091010280910202909103020E94CB
:1032200014E46B017C0160915D0270915E02072ED7
:10323000000C880B990B0E94B5E39B01AC01C70100
:10324000B6010E9414E469837A838B839C838E0188
:103250000F5F1F4F23EC3BE04FEB5BE06BEB7BE042
:1032600087EB9BE00E940D5480E1E7EBFBE0AAE0D6
:10327000B2E001900D928A95E1F70C949D26813081
:1032800011F00C949D260E946BCE82E50E945ECECA
:10329000882309F44EC00E94DDCD6B017C0120E043
:1032A00030E0A9010E94AEE3882311F40C946A2750
:1032B00020910A0230910B0240910C0250910D02B4
:1032C00028A339A34AA35BA380910E0290910F0219
:1032D000A0911002B09111028CA39DA3AEA3BFA335
:1032E0008090B70B9090B80BA090B90BB090BA0B30
:1032F0004090BB0B5090BC0B6090BD0B7090BE0B10
:10330000A501940168A179A18AA19BA10E94AEE3C5
:1033100081110C94AB26A30192016CA17DA18EA119
:103320009FA10E94AEE3882311F40C946A270C94A9
:10333000AB2689E40E945ECE882329F00E94DDCD71
:103340006B017C0103C0C12CD12C76018AE40E9460
:103350005ECE882311F40C9471270E94DDCD68A7FE
:1033600079A78AA79BA720E030E0A901C701B60191
:103370000E94AEE381110C947E2720E030E0A90189
:1033800068A579A58AA59BA50E94AEE381110C943E
:103390007E270C946A2780E50E945ECE882329F060
:1033A0000E9495CD6B017C0103C0C12CD12C76010C
:1033B00083E50E945ECE882361F00E94DDCD20E08F
:1033C00030E04AE754E40E9414E40E9425EC6B01CB
:1033D0007C010E940B988091760B811105C060E002
:1033E00089EB95E00E94D8810E944D71C60ED71ED0
:1033F000E81EF91E0E944D71DC01CB018C199D095C
:10340000AE09BF09B7FD02C00C949D260E949D32F3
:10341000F1CF8091B60B8770873011F00C94202B80
:1034200060E08FE40E941DCF81110C949D260C94C6
:10343000202B1092DD020C949D268FE08093DD02FC
:103440000C949D260E94DDCD2B013C01133049F0E8
:10345000D6012D913D914D915C910E94B1EA2B01D5
:103460003C01E8A1F9A12081318142815381C3014E
:10347000B2010E94B1EA4B015C012DEB37E346E853
:1034800055EB0E9412ED87FD21C02DEB37E346E896
:1034900055E3C501B4010E94AEE31816BCF01F5FEE
:1034A000F4E0EF0EF11C28A139A12C5F3F4F39A3A6
:1034B00028A334E0C30ED11C143031F1F101819105
:1034C0001F010E945ECE882351F3BCCF133051F40C
:1034D00040921602509217026092180270921902DE
:1034E00001E0DDCFA5019401D7016D917D918D9112
:1034F0009C910E94B2EAF701608371838283938377
:10350000812F0E94867ACBCF002321F086E192E0C2
:103510000E94B29A0E946A7C0C949D260E940655D5
:103520000C949D260091991210919A120137110561
:1035300009F420C50CF0B1C00B34110509F428C4FE
:103540000CF04DC00831110509F43FC264F5023199
:10355000110509F4A4C574F417FF02C00C94732676
:10356000023011050CF471C10131110509F4CAC111
:103570000C9473260531110509F409C234F40431A1
:10358000110509F4D3C10C9473260631110509F411
:1035900002C20731110511F00C947326E0919712C5
:1035A000F091981206C20C31110509F494C23CF452
:1035B0000A31110509F42EC20CF413C239C20E31BE
:1035C000110509F497C20CF48EC20F31110509F4EC
:1035D00035C30032110509F4EEC20C947326083687
:1035E000110509F4EEC3ACF50235110509F449C51E
:1035F00004F50D34110509F4E1C30CF4CCC3013515
:10360000110511F00C9473260E94DB570E94A37DD4
:103610000E941B980E94DD3068EE73E080E090E02D
:103620000E9432CF60E088ED96E00E94D8810C9431
:103630009D260435110509F432C50CF429C505355C
:10364000110509F463C50C35110509F482C50C9404
:1036500073260C36110509F488C43CF40A361105AA
:1036600009F4EBC30CF4D3C323C40E36110509F4DB
:1036700027C40CF4C9C30F36110509F432C400374E
:10368000110511F00C94732641E060E070E08FE9C1
:1036900096E00E9420D00C949D26033D110511F464
:1036A0000C948E230CF053C00139110509F4D4C6D3
:1036B0000CF50637110509F483C664F403371105C8
:1036C00009F4ECC50CF4E3C50537110509F468C627
:1036D0000C9473260837110509F4AFC60CF4AAC67A
:1036E0000937110509F4B1C60C38110509F464C491
:1036F0000C947326093C110509F46DC774F40E3B54
:10370000110509F478C4083C110509F41DC70B39EB
:10371000110511F00C9473268EC40C3C110509F4AC
:103720009CC734F40B3C110509F478C70C9473263C
:103730000D3C110509F4C5C70E3C110511F00C94A0
:10374000732655E9E52E59E0F52E10E0D5C70C3A61
:1037500041E0140711F40C94B9258CF50D3281E089
:10376000180711F40C94F02494F40D3D110511F494
:103770000C947B240C32A1E01A0711F40C94D12490
:103780000C3D110511F00C9473260C9454240F3247
:10379000B1E01B0711F40C94B32514F40C946F25BD
:1037A0000039F1E01F0711F40C94B6250A391140D5
:1037B00011F00C9473260E943B300C949D26083F18
:1037C00031E0130711F40C942E262CF5053F51E03F
:1037D000150711F40C9428264CF4043F114011F005
:1037E0000C9473260E941A930C949D26063FA1E028
:1037F0001A0711F40C942B26073F114011F00C947A
:10380000732661E083E50E941DCF91E089270E9425
:1038100087660C949D26003AE3E01E0709F400C277
:103820003CF40C30124011F40C943E260C94732698
:10383000073E33E0130711F40C944B26093E134066
:1038400011F40C9459260C94732680E50E945ECEE8
:10385000882329F00E9495CD6B017C0103C0C12C07
:10386000D12C760183E50E945ECE882361F00E9410
:10387000DDCD20E030E04AE754E40E9414E40E94E9
:1038800025EC6B017C010E940B988091971290911E
:103890009812009721F061E00E94688205C060E004
:1038A00085EC95E00E94D8811091DE0283E0809340
:1038B000DE0281E08093A20BC114D104E104F10483
:1038C00031F00E944D71C60ED71EE81EF91E809180
:1038D000A20B882311F40C94532CC114D104E104DD
:1038E000F10411F40C944F2C0E944D71DC01CB01BA
:1038F0008C199D09AE09BF09B7FF02C00C944F2C6B
:103900000C94532C8091931284FF02C00C945A2C77
:103910008091951287FF02C00C945A2C80919612C8
:10392000837011F00C945A2C0C94762C8091FF101B
:1039300083FF25C086EF95E00E9456CF8091FF104F
:1039400083FF17C088E39FE00E94CA8F8BE1E8E302
:10395000FFE0DE01119601900D928A95E1F760E09B
:1039600070E0CE0101960E94B788CE0101960E94B8
:10397000BE9187EE95E00E9456CF0C949D260E9442
:10398000B8CF87E096E00E9456CF0C949D260E9407
:10399000D1850C949D260E9415858091FF10877F0C
:1039A00080628093FF100C949D26803209F410826F
:1039B000319680818111F9CF60E0809197129091CA
:1039C00098120E949E870C949D260E94BD308823E9
:1039D00021F00E9424850E946D7D0E94CC540C949D
:1039E0009D268091FF1082FF03C08B7F8093FF1084
:1039F00080919203813089F782E0809392030E9444
:103A00004D716093A60B7093A70B8093A80B9093B6
:103A1000A90BE3CF8091FF1083FD02C00C949D267B
:103A200083E50E945ECE81110C94842C0C949D261B
:103A300083E40E9410CE882319F18BE196E00E9466
:103A400056CF8091E20E882391F0BE016F5F7F4FC9
:103A50008FED9EE00E94918E8E010F5F1F4FD80167
:103A60008D918D01882339F00E947131F8CF81E169
:103A700096E00E9456CF8AE00E9471310C949D26F8
:103A80008091FF1082FF21C08AE296E00E9456CF0B
:103A90006091FB107091FC108091FD109091FE10D0
:103AA0004AE00E9478318FE20E9471316091F710F4
:103AB0007091F8108091F9109091FA104AE00E94EC
:103AC00078310E9476320C949D268CE396E00E9419
:103AD00056CF0C949D2680919712909198120E9437
:103AE00056870C949D268091FF108E7F8093FF1047
:103AF0000C949D268091FF1083FD02C00C949D269E
:103B00000E94EF548091FF1083FD02C00C949D260B
:103B10004091971250919812BE01645E7F4F80E0F1
:103B20000E94ECB58C01009711F40C949D266C8DCD
:103B30007D8D19821C8222E0AC01CE0101960E948B
:103B4000C491811102C0F12C14C0CE0101960E94D3
:103B50005AB58823C1F361E0CE0101960E94398EE7
:103B6000009789F325EEFC0120831C820E94C18905
:103B7000F82ECE0101960E94BE91B801FF2089F077
:103B800085E696E00E94A1CF8AE00E9471311092F2
:103B9000FB101092FC101092FD101092FE100C946D
:103BA0009D268DE496E00E94A1CF87EA9DE20E94C7
:103BB00056CF0C949D268091FF1082FD0E940B9899
:103BC0008091FF1083FD02C00C949D2660E080E58B
:103BD0000E941DCF182F682F8091971290919812F4
:103BE0000E949E8783E50E945ECE882381F00E941A
:103BF000A5CDAB01BC014093FB105093FC1060932A
:103C0000FD107093FE108FED9EE00E94B48B0E9419
:103C1000248511110C949D260E946D7D0C949D2687
:103C200020919712309198129091FF10926090938A
:103C3000FF10C9010E9456870C949D260E941E7D8C
:103C40007B018C0120E831E541E050E00E9404EA6C
:103C5000C9016DE671E00E945AEA4B015C01C8019E
:103C6000B70120E13EE040E050E00E9404EACA01D2
:103C7000B90128E130E040E050E00E9404EA762EED
:103C8000672EC62ED72E8CE3282E312C412C512C9A
:103C9000C801B701A20191010E9404EAF62EE72EA5
:103CA000CA01B901A20191010E9404EACB018E016F
:103CB0000F5F1F4F8114910499F0EF92FF927F9351
:103CC0006F936F927F92BF92AF929F928F9283E792
:103CD00096E09F938F931F930F930E9446E313C028
:103CE000A114B104B1F0EF92FF927F936F936F92A2
:103CF0007F92BF92AF9287E796E09F938F931F9337
:103D00000F930E9446E30FB6F894DEBF0FBECDBFFF
:103D100030C0CD2879F0EF92FF927F936F936F922E
:103D20007F928BE796E09F938F931F930F930E9450
:103D300046E3E9CF892B69F0EF92FF927F936F936F
:103D40008FE796E09F938F931F930F930E9446E314
:103D5000DACFEF92FF9283E896E09F938F931F93C1
:103D60000F930E9446E30F900F900F900F900F90CB
:103D70000F9060E0C8010E9468820E94B8CFB8012D
:103D800087E896E00E94A1CF8AE00E947131D5C7F2
:103D90000E946D7DD2C780919203813009F0CDC71A
:103DA00082E0809392030E944D716093A60B709302
:103DB000A70B8093A80B9093A90BBFC70E94A37D6C
:103DC000BCC780918B0883FDB8C70E94BCCF87FD1C
:103DD000B4C789E40E945ECE882311F40C94952C1C
:103DE0000E94B9CD90E01816190614F481E090E015
:103DF00026E0289FF001299FF00D1124E65FF64F81
:103E0000808191810C949F2C0E946EC896C70E945D
:103E1000BCCF182F87FD0AC086ED9EE20E9456CFC8
:103E2000812F0E9418578AE00E9471316596BFADBC
:103E30006597B093DE020C94063080E50E9414551D
:103E400081117BC781E40E9410CE882329F0609104
:103E5000C703062F10E002C00FEF10E089E40E94B4
:103E60005ECE882399F00E94B9CD90E0181619060D
:103E700014F481E090E026E0289FF001299FF00DE6
:103E80001124E65FF64F0481158108C083E50E9486
:103E90005ECE882319F00E94A5CD8B01B8010F3F9B
:103EA000110519F010F06FEF70E06093C70345C77C
:103EB00080E50E941455811140C71092C7033DC789
:103EC0008EE40E945ECE882309F437C70E94A5CDF8
:103ED00060932013709321138093221390932313E4
:103EE0002CC783E50E9410CE882329F083E50E9429
:103EF000145580938B080E94B8CF88E996E00E9401
:103F000056CF80918B08882369F108E2E02E0AE001
:103F1000F02E00E010E020E080918B0890E0A0E01F
:103F2000B0E0002E04C0B695A795979587950A94A2
:103F3000D2F780FF0EC0DD24D394D20E222319F0D5
:103F40008CE20E947131F701859194910E9456CFC5
:103F50002D2D0F5F1F4FE2E0EE0EF11C0530110515
:103F6000D9F689CD84E996E084CD1092A20B109207
:103F70003102E3C683E50E945ECE882371F00E9481
:103F8000B9CD282F30E02D3331051CF48093040285
:103F9000D4C68CE380930402D0C60E94B8CF40916F
:103FA000040250E060E070E08DEA96E00E9465CF88
:103FB0008AE00E947131C1C680918B0883FDBDC625
:103FC00089E40E945ECE882311F40C94A82C0E94F0
:103FD000B9CD90E01816190614F481E090E026E0BF
:103FE000289FF001299FF00D1124E65FF64F6281B2
:103FF00073810C94B22C80918B0883FD9EC689E45A
:104000000E945ECE882311F40C94C12C0E94B9CD7D
:1040100090E01816190614F481E090E026E0289F3D
:10402000F001299FF00D1124E65FF64F6281738144
:1040300018A20C94D12C83E50E945ECE882309F44B
:104040007CC60E94B9CD182F90E0CD970CF01CE3F0
:104050001093D8020E944D716B017C01212F30E03A
:10406000A8EEB3E00E9431EAC60ED71EE81EF91E84
:10407000C092D402D092D502E092D602F092D7023A
:104080005CC68091DD028F7D80618093DD0255C624
:104090008091DD028F7E80628093DD024EC683E5D3
:1040A0000E945ECE8823E9F00E944D716093241334
:1040B0007093251380932613909327130E94DDCDD0
:1040C00020E030E04AE754E40E9414E40E9425EC2A
:1040D0006093050270930602809307029093080292
:1040E0002CC68091931284FF02C00C94762E80918E
:1040F000951287FF02C00C94762E809196128370E1
:1041000011F00C94762E0E941B9817C683E50E942E
:1041100010CE882309F411C60E944D7160932413B8
:104120007093251380932613909327130E94DDCD5F
:1041300020E030E04AE754E40E9414E40E9425ECB9
:104140006093D9027093DA028093DB029093DC02D1
:10415000F4C50E94BCCF87FDF0C59091931294FDE9
:1041600004C09091951297FF0AC0E3E7CE2EE2E0DB
:10417000DE2EFCE8EF2EF8E0FF2E10E009C0909153
:104180009612937091F7682F81E00E94E5CFD5C514
:10419000D6018D916D010E945ECE882309F46DC019
:1041A000133009F063C00E94DDCD4B015C0120E0BB
:1041B00030E040EA51E40E94AEE387FF4EC0A50123
:1041C00094016091AC087091AD088091AE08909117
:1041D000AF080E94ACEB2B013C019B01AC0160914C
:1041E000AB037091AC038091AD039091AE030E943C
:1041F00014E46093AB037093AC038093AD0390938E
:10420000AE03A30192016091BC087091BD0880913A
:10421000BE089091BF080E9414E46093BC0870939C
:10422000BD088093BE089093BF086091BB03709156
:10423000BC038091BD039091BE030E94B3E3A30130
:1042400092010E9414E40E9425EC6093BB037093DA
:10425000BC038093BD039093BE038092AC08909200
:10426000AD08A092AE08B092AF0807C00E94DDCDA5
:10427000F701648B758B868B978B1F5FF4E0EF0ED5
:10428000F11C143009F084CF0E94E79B56C50E94B0
:1042900067548EE79FE00E94D45E4FC58EE298E09F
:1042A0000E9456CF60E08EE198E00E94D4CC60E09E
:1042B00089E098E00E94D4CC61E082E797E20E9416
:1042C000D4CC61E08EEF97E00E94D4CC61E08EEE1A
:1042D00097E00E94D4CC60E085EE97E00E94D4CCB9
:1042E00061E08BED97E00E94D4CC60E081ED97E037
:1042F0000E94D4CC60E08AEC97E00E94D4CC60E0CD
:1043000082EC97E00E94D4CC60E084EB97E00E94BE
:10431000D4CC60E086EA97E00E94D4CC60E087E9E4
:1043200097E00E94D4CC60E089E897E00E94D4CC6A
:1043300060E083E797E00E94D4CC60E082E697E0FB
:104340000E94D4CC60E083E597E00E94D4CC61E089
:104350008CE497E00E94D4CC60E087E397E00E9471
:10436000D4CC60E089E297E00E94D4CC61E086E1A1
:1043700097E00E94D4CC60E089E097E00E94D4CC22
:1043800061E084E097E00E94D4CC60E087EF96E0A3
:104390000E94D4CC60E083EE96E00E94D4CCCDC4E1
:1043A0008091971290919812009709F416CBDC0136
:1043B0002C91222309F411CB60E00E946882BDC4D5
:1043C000009197121091981294E0F12C40E09150D6
:1043D00021F1F8018081282F2B7F213421F42181C4
:1043E0002133D9F407C08035C1F4818180538A30EC
:1043F00048F013C0813421F0853421F441E002C03B
:10440000FF24F39498012E5F3F4F89012F5F3F4FA8
:10441000F80180818032C9F3DACF41110E94B8CF10
:10442000FF2021F08FEF98E00E9456CFC8010E9434
:104430007C3283C40E94F17C80C481E08093920925
:10444000809391090E94137D78C410929209109272
:1044500091090E94137D71C483E50E945ECE88237A
:1044600059F00E94B5CD823048F00E94B4CF83E06D
:1044700099E00E9456CF61C480E090E08C01112742
:1044800088E40E945ECE8823E1F00E94B5CD8A3A8E
:10449000910544F00E94B5CD8530914034F40E94DE
:1044A000B5CD05C08AEA90E002C084E091E026E044
:1044B000209FF001219FF00D1124E65FF64F9183BC
:1044C000808382E40E945ECE8823D9F00E94B5CD1D
:1044D000059744F00E94B5CD8D38910534F40E94C3
:1044E000B5CD05C085E090E002C08CE890E026E004
:1044F000209FF001219FF00D1124E65FF64F93837A
:10450000828386E40E945ECE882309F416C40E944A
:10451000B5CD97FD09C00E94B5CD8F3F910509F03B
:1045200034F40E94B5CD05C080E090E002C08FEF6A
:1045300090E026E0209FF001219FF00D1124E65F1E
:10454000F64F95838483F9C30E94BCCF182F87FD53
:10455000F4C300911A0984E40E945ECE882311F40A
:104560000C94A92E0E94DDCD6B017C0120E030E08F
:10457000A9010E94AEE3882341F124E01202F00178
:104580001124EA5EF64FC082D182E282F38220E0FB
:1045900030E0A901609116097091170980911809FE
:1045A000909119090E94AEE381110CC080E090E067
:1045B000A0EEBFE38093160990931709A093180902
:1045C000B093190901E00C94A92E80E080931A0998
:1045D0000E94B592B2C30E94BCCF87FDAEC373E701
:1045E000E72E72E0F72E0CE818E0D7018D917D01DF
:1045F0000E9410CE882359F00E94DDCD0E9425EC48
:10460000F80160837183828393830E94C4970C5F57
:104610001F4FF8E00C391F0741F78FC30E94BCCF32
:1046200087FD8BC363E7E62E62E0F62E0CE818E008
:10463000D7018D917D010E9410CE882339F00E9410
:10464000DDCDF80164A375A386A397A30C5F1F4F6C
:10465000F8E00C391F0761F770C38091941287FF4F
:1046600002C00C94AF2E809195128E7011F00C94B4
:10467000AF2E4091C0085091C1086091C20870915E
:10468000C30885E299E00E9483CF4091C40850910D
:10469000C5086091C6087091C7088BE19FE00E9431
:1046A00083CF4091C8085091C9086091CA087091A1
:1046B000CB0882E090E10E9483CF8AE00E947131B2
:1046C0003CC380919312827111F00C94F72E80916B
:1046D00095128C7811F00C94F72E809196128370BD
:1046E00011F00C94F72E29C31F5FB4E0EB0EF11C00
:1046F000133011F40C948A1A88E5810F0E9410CEB1
:10470000882391F30E94DDCDD7016D937D938D9326
:104710009C931397812F0E94867AE6CF4090930353
:1047200050909403609095037090960320914202FC
:10473000309143024091440250914502C301B201BD
:104740000E94B2EA68A379A38AA39BA380909703EF
:1047500090909803A0909903B0909A0320914602FC
:10476000309147024091480250914902C501B4017D
:104770000E94B2EA6CA37DA38EA39FA3C0909B036B
:10478000D0909C03E0909D03F0909E0320914A02FC
:1047900030914B0240914C0250914D02C701B6013D
:1047A0000E94B2EA68A779A78AA79BA720914E0228
:1047B00030914F024091500250915102C301B20119
:1047C0000E94B2EA2B013C01209152023091530227
:1047D0004091540250915502C501B4010E94B2EAC1
:1047E0004B015C01209156023091570240915802D2
:1047F00050915902C701B6010E94B2EA6B017C01D7
:104800000E94B8CF85E499E00E9456CF83E50E94CC
:1048100010CE882321F00E94CDCD8093400280915C
:104820004002882319F088E895E002C08AE298E007
:104830000E9456CF8DE399E00E9456CF48A159A11E
:104840006AA17BA18DE590E10E9483CF4CA15DA17F
:104850006EA17FA18EE59AE20E9483CF48A559A55B
:104860006AA57BA586E59AE20E9483CF83E39CE25A
:104870000E9456CF85E399E00E9456CFB301A20172
:104880008DE590E10E9483CFB501A4018EE59AE207
:104890000E9483CFB701A60186E59AE20E9483CFEA
:1048A0008AE00E94713149C283E50E945ECE88236E
:1048B00031F00E94B5CD90935E0280935D028091AD
:1048C000931290919412A0919512B0919612892B07
:1048D0008A2B8B2B09F031C260915D0270915E02D0
:1048E00085E599E00E9494CF85E20E9471318AE0CB
:1048F0000E94713122C20E94BCCFF82E87FD1DC2DA
:1049000083E50E945ECE0F2D0F2C000C110B882327
:1049100069F10E94B5CDF801EE0FFF1FEE5CFD4F6F
:1049200091838083000F111F000F111FF801E65EB5
:10493000FD4F7F01BC01990F880B990B0E94B5E3D5
:104940002AE037ED43E25CE30E9414E4F801EB5BFC
:10495000F34F20813181428153810E9414E4D701B9
:104960006D937D938D939C931397E7C10E94B8CF6D
:1049700085E40E94713180E38F0D0E947131000F38
:10498000111FF801EE5CFD4F6081718189E599E0AE
:104990000E9494CF85E20E9471318AE00E947131B9
:1049A000CCC183E50E945ECE882321F00E94A5CD74
:1049B0008B0102C004E011E080E50E945ECE8823F6
:1049C00049F00E94A5CDCB016938734128F088E8F1
:1049D00093E102C088EE93E0B8010E94A181ADC1CD
:1049E00085E40E941455811173C080E50E9410CEA9
:1049F000882351F00E94DDCD6093C80C7093C90CE0
:104A00008093CA0C9093CB0C89E40E9410CE88232B
:104A100081F00E94DDCD2CEA35EC47E25EE30E9496
:104A200014E46093CC0C7093CD0C8093CE0C9093D7
:104A3000CF0C84E40E9410CE882381F00E94DDCD4B
:104A40002CEA35EC47E25EE30E94ACEB6093D00CBD
:104A50007093D10C8093D20C9093D30C0E94B8CF5A
:104A60004091C80C5091C90C6091CA0C7091CB0C4C
:104A700089E699E00E9483CF2CEA35EC47E25EE3B9
:104A80006091CC0C7091CD0C8091CE0C9091CF0C9C
:104A90000E94ACEBAB01BC0185E699E00E9483CF9C
:104AA0002CEA35EC47E25EE36091D00C7091D10CBA
:104AB0008091D20C9091D30C0E9414E4AB01BC0104
:104AC00081E699E00E9483CF8AE00E94713135C16E
:104AD0000E94B4CF8DE699E00E9456CF2EC183E5A7
:104AE0000E9410CE182F882371F00E94DDCD0E9405
:104AF0001EEC70931F0260931E0221E0672B09F0E9
:104B000020E02093D80380E50E9410CE882359F03E
:104B100020911E0230911F02232B11F00E94CDCD57
:104B20008093D8030AC1111108C10E94B8CF88E947
:104B300099E00E9456CF8091D803882319F086EE21
:104B400097E202C08FE799E00E9456CF60911E0263
:104B500070911F0287E899E00E9494CF83E899E062
:104B60000E9456CFEAC00E943E75E7C00E940B9893
:104B7000E4C09091B60B90FD02C087E001C086E0D2
:104B800091FD8D7FFE0131961F0192FD02C00C94B4
:104B9000642F8B7F11F00C94922F02EC19E22AE023
:104BA00032E039A328A39EE7C92E98E2D92E7F01CF
:104BB000F8016591759185919491A8A1B9A18D9005
:104BC0009D90AD90BD90B9A3A8A3A50194010E94AA
:104BD000B1EA2B013C01F7016083718382839383E7
:104BE00020E030E040EA51EC0E9412ED87FD0AC05F
:104BF00020E030E040EA51E4C301B2010E94AEE39C
:104C0000181634F4F6018491181614F40C94952FA8
:104C1000D7018D909D90AD90BD907D0120E030E05A
:104C200040EA51ECC501B4010E9412ED87FF02C0B9
:104C30000C94A12F20E030E040EA51E4C501B4011A
:104C40000E94AEE3181614F00C94B62F0C94A12F0A
:104C50000E9460C872C00E9428C26FC090937812F0
:104C60000E9441C310927812882309F466C00E9402
:104C7000B8CF81E09AE00E9456CF5FC08091FF10CC
:104C800082FF04C080648093FF1057C083FF55C02B
:104C90000E94EF5452C081E08093270B1092A10B29
:104CA00060E083E50E941DCF811147C00E94C1CA08
:104CB00044C00E941E7D6D3371058105910520F071
:104CC00084E29AE00E94EECC80E29AE00E94EECC70
:104CD0008CE09AE00E9456CF89E09DE09093A30972
:104CE0008093A2092AC00E94065527C000919912FC
:104CF00010919A120E944D716093241370932513A2
:104D000080932613909327130023B9F00E94B8CF05
:104D100084E50E947131B8017727072E000C880BBB
:104D2000990B0E94E53180E20E9471318DE699E095
:104D30000E9456CF02C00E9406556696FFAD669748
:104D4000F11102C00E94B1CA65962FAD65972093FC
:104D5000DE020C94063011E032E02316310409F033
:104D600010E020E030E0A901C701B6010E94AEE3E7
:104D7000881F8827881F1813A4C020E030E040E86F
:104D80005FE328A739A74AA75BA728A139A14AA1B1
:104D90005BA1C501B4010E94B1EA20E030E040E02F
:104DA0005FE30E9414E468A379A38AA39BA32CA1C8
:104DB0003DA14EA15FA1C301B2010E94B1EA20E072
:104DC00030E040E05FE30E9414E46CA37DA38EA377
:104DD0009FA328A139A14AA15BA1CA01B9010E94E0
:104DE00014E44B015C012CA13DA14EA15FA1CA01BD
:104DF000B9010E9414E49B01AC01C501B4010E94F9
:104E0000B2EA0E9460ED4B015C019B01AC01C7015D
:104E1000B6010E94B1EA2B013C01A5019401C70132
:104E2000B6010E94B2EA9B01AC01C301B2010E942B
:104E300014E46B017C0120E030E0A9010E9412ED36
:104E400087FD07C0C701B6010E9460ED2B013C0140
:104E500003C0412C512C32016CA17DA18EA19FA1D8
:104E60009058A50194010E94ACEB28A539A54AA54C
:104E70005BA50E9414E4A30192010E9414E428A1FE
:104E800039A14AA15BA10E94B2EA6B017C01A50194
:104E9000940168A179A18AA19BA10E94ACEB28A5ED
:104EA00039A54AA55BA50E9414E4A30192010E94C2
:104EB00014E42CA13DA14EA15FA10E94B2EA0C9482
:104EC000AF1980E090E0A0E8BFEB88A799A7AAA758
:104ED000BBA75BCF0E94B4CF83EA95E00E9456CF78
:104EE0002CCF20E030E0A901C701B6010E94AEE35B
:104EF000882381F318A619A61AA61BA6A701960156
:104F0000505828A339A34AA35BA388A599A5AAA5AD
:104F1000BBA5B0588CA39DA3AEA3BFA3CA01B90182
:104F20000E9414E44B015C012CA13DA14EA15FA1A4
:104F3000CA01B9010E9414E49B01AC01C501B4018E
:104F40000E94B2EA0E9460ED6CAF7DAF8EAF9FAF62
:104F500020910A0230910B0240910C0250910D02F7
:104F60002CA73DA74EA75FA7C701B6010E94B2EAD2
:104F700024966CAF7DAF8EAF9FAF249780910E02C9
:104F800090910F02A0911002B091110288AB99ABE1
:104F9000AAABBBAB28A539A54AA55BA5BC01CD0131
:104FA0000E94B2EA28966CAF7DAF8EAF9FAF289774
:104FB0002091B70B3091B80B4091B90B5091BA0BBF
:104FC0002CAB3DAB4EAB5FAB24962CAD3DAD4EADA7
:104FD0005FAD24976CA97DA98EA99FA90E94B1EA13
:104FE0006B017C018091BB0B9091BC0BA091BD0B20
:104FF000B091BE0B88AF99AFAAAFBBAF28962CADCE
:105000003DAD4EAD5FAD2897BC01CD010E94B1EA28
:105010004B015C01A701960168A179A18AA19BA11E
:105020000E9414E42B013C01A50194016CA17DA117
:105030008EA19FA10E9414E49B01AC01C301B201A7
:105040000E94B2EA2B013C01A501940168A179A15B
:105050008AA19BA10E9414E44B015C01A701960167
:105060006CA17DA18EA19FA10E9414E49B01AC01C3
:10507000C501B4010E94B1EAA30192010E9431EB83
:105080006B017C0120E030E0A9010E94AEE387FFC4
:105090000AC02BED3FE049EC50E4C701B6010E9485
:1050A000B2EA6B017C012BED3FE049EC50E4C70113
:1050B000B6010E94ACEB20E030E040EC51E40E94ED
:1050C00014E40E9490EB0E9425EC8B01672B11F4F5
:1050D00001E010E032E02316310451F42BED3FE003
:1050E00049EC50E4C701B6010E94B1EA6B017C01B2
:1050F00020E030E0A901C701B6010E94AEE38111B2
:1051000022C02CA93DA94EA95FA96CA57DA58EA59D
:105110009FA50E94AEE3811116C028AD39AD4AADFE
:105120005BAD68A979A98AA99BA90E94AEE3811108
:105130000AC008E110E05BEDC52E5FE0D52E59EC0A
:10514000E52E50E4F52E8091120290911302A09169
:105150001402B091150288AB99ABAAABBBAB9C0112
:10516000AD016091BF0B7091C00B8091C10B90910C
:10517000C20B0E94B1EA2B013C01A70196016CAD64
:105180007DAD8EAD9FAD0E9414E44B015C0120E02B
:1051900030E0A901C301B2010E94AEE38823C9F047
:1051A000A5019401C501B4010E9414E44B015C0106
:1051B000A3019201C301B2010E9414E49B01AC015E
:1051C000C501B4010E94B2EA0E9460ED4B015C018E
:1051D0000DC020E030E0A901C501B4010E9412ED2C
:1051E00087FF04C0B7FAB094B7F8B0942FE632E165
:1051F00043E85AE3C501B4010E94AEE387FD15C23E
:105200002091C30B3091C40B4091C50B5091C60B3C
:1052100028AF39AF4AAF5BAF809116029091170269
:10522000A0911802B09119028CAB9DABAEABBFAB95
:105230002AE037ED43E25CE36091000270910102E5
:1052400080910202909103020E9414E46CA77DA752
:105250008EA79FA760915D0270915E02072E000CE1
:10526000880B990B0E94B5E39B01AC016CA57DA551
:105270008EA59FA50E9414E46C8F7D8F8E8F9F8FCB
:10528000C501B4010E9454EC0E9425EC1B0160177B
:10529000710708F41801B10180E090E00E94B3E3C7
:1052A0004B015C019B01AC01C701B6010E94ACEB54
:1052B0006CA77DA78EA79FA7A5019401C301B2018A
:1052C0000E94ACEB60966CAF7DAF8EAF9FAF6097E6
:1052D0002CA93DA94EA95FA968AD79AD8AAD9BAD5A
:1052E0000E94B1EAA50194010E94ACEB64966CAFF8
:1052F0007DAF8EAF9FAF64972CA53DA54EA55FA552
:10530000CA01B9010E9414E46B017C019B01AC014C
:105310006CA57DA58EA59FA50E9414E420E030E039
:1053200040EC50E40E94ACEB9B01AC016CA57DA568
:105330008EA59FA50E94B1EA68AF79AF8AAF9BAFF7
:1053400020E030E040E05FE3C701B6010E9414E4D2
:105350009B01AC0160E070E080E89FE30E94B1EA4D
:105360006CAF7DAF8EAF9FAF28A939A94AA95BA9C1
:1053700029873A874B875C878CA99DA9AEA9BFA9CD
:105380008D879E87AF87B88B0E944D719B01AC01C2
:1053900028533F4F4F4F5F4F2C962CAF3DAF4EAF32
:1053A0005FAF2C9748A059A06AA07BA041E050E0D5
:1053B00059AB48AB59E15CAB88A999A98215930513
:1053C00008F00DC10E94AB5B0E944D71DC01CB0166
:1053D0002C962CAD3DAD4EAD5FAD2C97821B930B43
:1053E000A40BB50BB7FD10C00E944D719B01AC0121
:1053F00028533F4F4F4F5F4F2C962CAF3DAF4EAFD2
:105400005FAF2C970E949D323CA931503CAB3323B7
:10541000E9F12CA13DA14EA15FA16CAD7DAD8EAD9A
:105420009FAD0E9414E46B017C019201A30168AD61
:1054300079AD8AAD9BAD0E9414E4A70196010E944C
:10544000B2EA7B018C019201A3016CAD7DAD8EAD02
:105450009FAD0E9414E44B015C012CA13DA14EA123
:105460005FA168AD79AD8AAD9BAD0E9414E49B014C
:10547000AC01C501B4010E94B1EA2B013C01C70196
:10548000D8018CA39DA3AEA3BFA34FC048A959A91F
:10549000BA0180E090E00E94B3E32CA53DA54EA5A3
:1054A0005FA50E9414E44B015C010E94A7EB6B0115
:1054B0007C01C501B4010E9452ED4B015C01A701C2
:1054C000960168A179A18AA19BA10E9414E42B01F5
:1054D0003C0128A539A54AA55BA5C501B4010E94D8
:1054E00014E4A30192010E94B2EA2B013C01A50140
:1054F000940168A179A18AA19BA10E9414E44B01A7
:105500005C0128A539A54AA55BA5C701B6010E9483
:1055100014E49B01AC01C501B4010E94B1EA6CA383
:105520007DA38EA39FA359E15CAB9201A3012496B6
:105530006CAD7DAD8EAD9FAD24970E94B2EA6983BC
:105540007A838B839C832CA13DA14EA15FA12896D9
:105550006CAD7DAD8EAD9FAD28970E94B2EA6D8394
:105560007E838F83988760962CAD3DAD4EAD5FAD49
:10557000609769857A858B859C850E94B2EA6987E8
:105580007A878B879C8764962CAD3DAD4EAD5FAD21
:1055900064976D857E858F8598890E94B2EA6D87B4
:1055A0007E878F87988BCE0101960E94A67A8E0106
:1055B000045E1F4F9E01235F3F4FAE01475F5F4F69
:1055C000BE016B5F7F4FCE0101960E940D54882370
:1055D00031F088A999A9019699AB88ABEDCE80E10D
:1055E000E7EBFBE0DE01119601900D928A95E1F761
:1055F000CE0101960E94A67A8E01045E1F4F9E0185
:10560000235F3F4FAE01475F5F4FBE016B5F7F4F30
:10561000CE0101960E940D5480E1FE013196AAE070
:10562000B2E001900D928A95E1F70E944D7160936E
:1056300024137093251380932613909327137DCB07
:105640000E940B98109241020E944D7160932413A6
:105650007093251380932613909327138091000253
:1056600090910102A0910202B09103028093E102A5
:105670009093E202A093E302B093E40280915D0272
:1056800090915E029093E0028093DF0284E690E0C6
:1056900090935E0280935D0281E0809392090E9464
:1056A000137D8AE50E9410CE382E88E50E9410CE28
:1056B000882E89E50E9410CE8812EFC0381411F0B0
:1056C000D82C06C0DD24D3948824839433243394C7
:1056D00082E50E945ECE882369F00E94DDCD2B0119
:1056E0003C0120E030E0A9010E94AEE3882309F4E8
:1056F000A1C006C0412C512C40EA642E40E4742E17
:10570000811003C0DD2009F49FC020E030E0A90132
:10571000C301B2010E94B2EA7B018C019090120297
:10572000C0901302B0901402A0901502292D3C2DB8
:105730004B2D5A2D0E94AEE340900A0250900B026E
:1057400060900C0270900D0220910E0230910F02B9
:10575000409110025091110228A339A34AA35BA3E0
:1057600020E030E040E753E487FD37C4B701C801CB
:105770000E94AEE387FD04C0E12CF12C00E713E4A6
:1057800080E090E0A0E8B0E48C8F9D8FAE8FBF8F5B
:1057900089839A83AB83BC839701A801692D7C2DF3
:1057A0008B2D9A2D0E94AEE387FF0EC0C701D80152
:1057B0008093120290931302A0931402B0931502E7
:1057C000CE014C960E94477B40920A0250920B02F7
:1057D00060920C0270920D0288A199A1AAA1BBA1AE
:1057E00080930E0290930F02A0931002B0931102C7
:1057F000CE0101960E94477B9701A8016091120299
:105800007091130280911402909115020E9412ED82
:10581000181674F4C701D8018093120290931302F2
:10582000A0931402B0931502CE014C960E94477BC0
:105830000E940B98882019F080E00E94997BDD205F
:1058400019F081E00E94997B332019F082E00E94D8
:10585000997B0E94577B8091910980939209809156
:10586000E1029091E202A091E302B091E402809300
:10587000000290930102A0930202B0930302809170
:10588000DF029091E00290935E0280935D0283E0DC
:1058900080935A020E946A7C50CAD82E19CF0E9467
:1058A0009D320C94671C1092A20B1093DE020E9492
:1058B000CC5443CA88E50E9410CE81115F9889E5D7
:1058C0000E9410CE81118A988AE50E9410CE88230A
:1058D00029F08091080181708093060185E40E947F
:1058E00010CE882309F429CA129827CA60E089EDEE
:1058F00095E00E94D8815F988A9880910801817014
:1059000080930601129819CA0E94A5CDAB01BC0173
:105910004093FB105093FC106093FD107093FE10A9
:105920008FED9EE00E94B48B08CA83E50E945ECE94
:10593000882359F00E94DDCD0E941EECCB010E940D
:10594000085761E080E00E94C2570E948597F5C920
:1059500083E50E945ECE882309F4EFC90E94DDCD65
:105960000E941EEC6C3871050CF48B011093E40856
:105970000093E3080E94805561E080E00E94C257D6
:10598000DCC983E50E945ECE88A3811106C082E552
:105990000E945ECE882309F4D0C90E94DDCD0E940A
:1059A0001EEC6C3871050CF09EC1962F872F9093DA
:1059B000E3088093E4080E94805560E081E00E9443
:1059C000C2576091E3087091E408072E000C880B21
:1059D000990B0E94B5E32091DF083091E0084091D7
:1059E000E1085091E2080E9412ED18161CF486ECB2
:1059F00096E002C084EB96E060E00E94D88181E0EE
:105A00008093310218A619A61AA61BA628961CAECA
:105A10001DAE1EAE1FAE28971CAEFCE32996FFAF4D
:105A200029972CE12D962FAF2D9736E461963FAF45
:105A30006197C12CD12CB0E8EB2E1FEBF12E1CA2EC
:105A400041E048AF812C912C54016091E3087091A2
:105A5000E408072E000C880B990B0E94B5E3162F63
:105A6000072F782E692E9601A7010E94AEE38823A6
:105A700031F12091DF083091E0084091E108509128
:105A8000E20888A1612F702F811109C0872D962D02
:105A90000E94AEE3881F8827881F8CA316C0872D1D
:105AA000962D0E94AEE387FF0FC0809131028823BC
:105AB00009F443C9109231020E94CC543EC91C2DF6
:105AC0000D2D7E2C6F2C01C01CA20E944D716B010C
:105AD0007C01DC01CB0128962CAD3DAD4EAD5FAD18
